:020000040800F2
:1000000000800120BD250008DD240008DF24000851
:10001000E1240008E3240008E524000800000000B3
:10002000000000000000000000000000E7240008BD
:10003000E924000800000000EB240008ED2400087B
:100040000D2600080D2600080D2600080D260008C4
:100050000D2600080D2600080D2600080D260008B4
:100060000D2600080D2600080D2600080D260008A4
:100070000D2600080D2600080D2600080D26000894
:100080000D2600080D2600080D26000800000000BF
:100090000000000000000000000000000D26000825
:1000A0000D2600080D2600080D2600080D26000864
:1000B0000D2600080D2600080D2600080D26000854
:1000C0000D2600080D2600080D2600080D26000844
:1000D0000D260008F52400080D2600080000000089
:1000E0000D2600080D2600080D260008000000005F
:1000F0000000000000000000000000000D260008C5
:10010000000000000D2600080D2600080D2600083E
:1001100000000000000000000000000000000000DF
:10012000052500080D2600080D2600080D260008EC
:100130000D26000800000000000000000000000084
:100140000000000000000000000000000D26000874
:100150000D2600080D2600080D2600080D260008B3
:100160000D2600080D260008000000000000000019
:10017000000000000000000000000000000000007F
:10018000000000000D260008000000000000000034
:040190000D26000830
:1001A00010B5054C237833B9044B13B10448AFF3B1
:1001B00000800123237010BD7000002000000000AB
:1001C0000435000808B5034B1BB103490348AFF3DE
:1001D000008008BD00000000740000200435000805
:1001E00053B94AB9002908BF00281CBF4FF0FF319E
:1001F0004FF0FF3000F072B9ADF1080C6DE904CE9C
:1002000000F006F8DDF804E0DDE9022304B07047F1
:100210002DE9F047089E04468846002B4BD18A42C0
:10022000154667D9B2FA82F24AB1C2F1200701FA43
:1002300002F320FA07F7954047EA030894404FEA93
:10024000154E230CB8FBFEF71FFA85FC0EFB178832
:1002500043EA084307FB0CF1994209D9EB1807F16F
:10026000FF3080F01B81994240F21881023F2B44FD
:100270005B1AA4B2B3FBFEF00EFB103344EA034456
:1002800000FB0CFCA44509D92C1900F1FF3380F0C8
:100290000781A44540F2048102382C4440EA07401B
:1002A000A4EB0C0400271EB1D4400023C6E9004390
:1002B0003946BDE8F0878B4209D9002E00F0EB806B
:1002C0000027C6E9000138463946BDE8F087B3FA91
:1002D00083F7002F47D18B4202D3824200F2FA808B
:1002E000841A61EB030301209846002EE0D0C6E992
:1002F0000048DDE702B9FFDEB2FA82F2002A40F0E0
:100300008F80491B4FEA154E1FFA85F80127B1FB74
:10031000FEFC230C0EFB1C1143EA014308FB0CF10D
:10032000994207D9EB180CF1FF3002D2994200F242
:10033000CD808446591AA3B2B1FBFEF00EFB101417
:1003400043EA044408FB00F8A04507D92C1900F142
:10035000FF3302D2A04500F2B6801846A4EB080491
:1003600040EA0C409FE7C7F1200CBB4022FA0CFE8C
:100370004EEA030E01FA07F420FA0CF521FA0CF309
:100380004FEA1E482543B3FBF8F92C0C08FB193340
:100390001FFA8EFA44EA034309FB0AF49C4202FA6C
:1003A00007F200FA07F10BD91EEB030309F1FF3046
:1003B00080F087809C4240F28480A9F10209734456
:1003C0001B1BADB2B3FBF8F008FB103345EA034446
:1003D00000FB0AFAA24508D91EEB040400F1FF3322
:1003E0006BD2A24569D90238744440EA0940A0FBA7
:1003F0000289A4EB0A044C45C2464B4654D351D063
:10040000002E69D0B1EB0A0564EB030404FA0CFC7E
:10041000FD40FC404CEA0505C6E90054002747E7CB
:10042000C2F1200320FA03F7954001FA02F021FA05
:1004300003F34FEA154E3843010CB3FBFEF71FFAE6
:1004400085F80EFB173341EA034107FB08F38B42A3
:1004500004FA02F407D9691807F1FF3C2FD28B4246
:100460002DD9023F2944CB1A81B2B3FBFEF00EFB1B
:10047000103341EA034100FB08F38B4207D96918A6
:1004800000F1FF3C17D28B4215D902382944C91A12
:1004900040EA07473BE73746304609E70746E7E6C5
:1004A0001846FBE64145ABD2B8EB020A69EB0E02F7
:1004B00001381346A4E76046E9E7184695E7674622
:1004C000D1E781467CE702382C4447E7ACF1020CC7
:1004D0002B442FE7384608E73746E9E6704700BF68
:1004E00001F0FF01102A2BDB10F0070F08D010F8E5
:1004F000013B013A8B422DD010F0070F42B3F6D1E9
:10050000F0B441EA012141EA014122F007047FF001
:1005100000070023F0E80256083C85EA010586EA58
:10052000010685FA47F5A3FA87F586FA47F6A5FA94
:1005300087F68EB9EED1F0BC01F0FF0102F00702A0
:1005400032B110F8013B013A83EA010313B1F8D14B
:100550000020704701387047002D06BF354603382C
:10056000073815F0010F07D1013015F4807F02BF65
:10057000013015F4C03F0130F0BC0138704700BFB6
:1005800010B504460E4B18784FF47A73B3FBF0F3B2
:100590000C4A1068B0FBF3F000F0A0FB68B90F2C18
:1005A00001D901200AE0002221464FF0FF3000F07F
:1005B00053FB034B5C60002000E0012010BD00BF36
:1005C000000000200800002008B50B4B1A6842F418
:1005D00000721A601A6842F480621A601A6842F463
:1005E00080721A60032000F025FB0020FFF7C8FF8F
:1005F00001F0C2FE002008BD003C0240034A116821
:10060000034B1B780B441360704700BFA000002011
:1006100000000020014B1868704700BFA0000020B8
:1006200038B50446FFF7F6FF0546B4F1FF3F02D0A8
:10063000044B1B781C44FFF7EDFF401BA042FAD38C
:1006400038BD00BF000000204A4B5A6822F44032F7
:100650005A605A6841680A435A600268536823F432
:100660008073536002685368016943EA0123536051
:100670000268536823F040735360026853688168CE
:100680000B4353600268936823F40063936002682D
:100690009368C1680B439360826A374B9A424BD090
:1006A0000268936823F07063936002689368816ABC
:1006B0000B4393600268936823F040539360026891
:1006C0009368C16A0B4393600268936823F0020346
:1006D000936002689368017E43EA4103936090F857
:1006E0002030002B33D10268536823F40063536039
:1006F0000268D36A23F47003D3620168CB6AC269CB
:10070000013A43EA0253CB620268936823F4007310
:1007100093600268936890F8301043EA4123936035
:100720000268936823F48063936002689368416968
:1007300043EA8123936070470268936823F07063F3
:1007400093600268936823F040539360BCE70268AB
:10075000536843F4006353600268536823F46043B2
:10076000536001684B68426A013A43EA42334B6086
:10077000BEE700BF002301400100000F38B310B5F1
:100780000446036C43B1236C13F0100F0BD001200F
:10079000002384F83C3010BD01F00AFE002363649E
:1007A00084F83C30EFE7236C23F4885323F00203F2
:1007B00043F0020323642046FFF746FF00206064F5
:1007C000236C23F0030343F001032364E0E70120DB
:1007D0007047000082B00023019390F83C30012B59
:1007E00063D0012380F83C3003689A6812F0010F4F
:1007F00013D19A6842F001029A60304B1B68304A6C
:10080000A2FB03239B0C03EB4303019302E0019B38
:10081000013B0193019B002BF9D10268936813F00F
:10082000010F44D0036C23F4E06323F0010343F48D
:1008300080730364536813F4806F05D0036C23F452
:10084000405343F480530364036C13F4805F19D066
:10085000436C23F006034364002380F83C306FF0C0
:1008600022031360174B5B6813F01F0F0DD1036851
:100870009A6812F0405F1DD19A6842F080429A60F7
:10088000002015E000234364E6E703680E4A934224
:1008900001D000200CE09A6812F0405F0CD19A68F9
:1008A00042F080429A60002002E0022000E0002036
:1008B00002B070470020FBE70020F9E708000020A5
:1008C00083DE1B43002301400020014030B583B08C
:1008D0000023019390F83C30012B00F0818001232C
:1008E00080F83C300468A36813F0010F13D1A368AB
:1008F00043F00103A3603F4B1C683F4BA3FB043450
:10090000A40C04EB4404019402E0019C013C01941A
:10091000019C002CF9D103689C6814F0010F61D090
:10092000046C24F4E06424F0010444F4807404644E
:100930005B6813F4806F05D0036C23F4405343F4D9
:1009400080530364036C13F4805F36D0436C23F050
:100950000603436413460446002280F83C20826B61
:100960002648D063A26B26481064A26B2548D06449
:1009700022686FF0220010602568686840F080608F
:1009800068602568A86840F48070A86020680A46FE
:1009900000F14C01A06B00F099FA1B4B5B6813F05F
:1009A0001F0F0DD123689A6812F0405F1DD19A681D
:1009B00042F080429A60002015E000234364C9E7BA
:1009C0002368124A934201D000200CE09A6812F08A
:1009D000405F0CD19A6842F080429A60002002E0A9
:1009E000022000E0002003B030BD0020FBE7002023
:1009F000F9E700BF0800002083DE1B43330A00082C
:100A0000110A00081D0A00080023014000200140CF
:100A100008B5806B01F082FC08BD704708B5806B9B
:100A200040230364436C43F004034364FFF7F5FF82
:100A300008BD08B5836B1A6C12F0500F26D11A6CE2
:100A400042F400721A641A68916811F0405F19D17B
:100A5000197EB9B9D16A11F4700F03D0916811F4FD
:100A6000806F0FD1516821F0200151601A6C22F47F
:100A700080721A641A6C12F4805F03D11A6C42F00F
:100A800001021A64184601F057FC08BD1A6C12F0F6
:100A9000100F03D19B6BDB6C9847F6E71846FFF706
:100AA000BCFFF2E730B482B00023019390F83C30F1
:100AB000012B00F0B780012380F83C300B68092B34
:100AC0003ED90568EA689BB203EB43031E3B07244B
:100AD00004FA03F322EA0303EB600568EA688C6812
:100AE0000B8803EB43031E3B04FA03F31343EB6051
:100AF0004B68062B3AD805686A6B03EB8303053B0A
:100B00001F2404FA03F322EA03036B6305686A6B8C
:100B10004B6803EB8303053B0C8804FA03F3134390
:100B20006B630268404B9A4250D002683E4B9A4237
:100B300055D0002380F83C30184602B030BC7047D6
:100B400005682A699BB203EB4303072404FA03F305
:100B500022EA03032B6105682A698C680B8803EB82
:100B6000430304FA03F313432B61C1E70C2B16D89C
:100B700005682A6B03EB8303233B1F2404FA03F36A
:100B800022EA03032B6305682A6B4B6803EB83039C
:100B9000233B0C8804FA03F313432B63C1E7056876
:100BA000EA6A03EB8303413B1F2404FA03F322EABE
:100BB0000303EB620568EA6A4B6803EB8303413B7E
:100BC0000C8804FA03F31343EB62AAE70B68122BB9
:100BD000ABD1164A536843F480035360A5E70B6812
:100BE000103B012BA5D8114A536843F4000353600E
:100BF0000B68102B9DD10E4B1B6802F1467202F55B
:100C00002E3202F28332A2FB03239B0C03EB8303FD
:100C10005A00019202E0019B013B0193019B002BD2
:100C2000F9D186E7022088E7002001400023014037
:100C300008000020074AD36823F4E0631B041B0C60
:100C4000000200F4E060184340F0BF6040F4003060
:100C5000D060704700ED00E030B4174BDB68C3F3A1
:100C60000223C3F10704042C28BF04241D1D062DF4
:100C700018D9033B4FF0FF3505FA04F421EA0401CB
:100C8000994005FA03F322EA0303194300280BDB1A
:100C90000901C9B200F1604000F5614080F800131D
:100CA00030BC70470023E5E700F00F000901C9B22E
:100CB000024B1954F4E700BF00ED00E014ED00E032
:100CC000002807DB00F01F02400901239340024A7D
:100CD00042F82030704700BF00E100E00138B0F179
:100CE000807F0AD2064B5860064AF02182F8231012
:100CF0000020986007221A6070470120704700BFEB
:100D000010E000E000ED00E030B405682C6824F449
:100D100080242C60046863608368402B05D00368DE
:100D200099600368DA6030BC704703689A600368B2
:100D3000D960F8E70268D3B2103B0B49A1FB03135B
:100D40001B090A49C95CC165032B06D822F47F72CE
:100D500022F003028265806D704722F47F7222F0D8
:100D6000030204328265F6E7ABAAAAAA1C35000882
:100D7000836A826992B9012B0AD01BB1022B01D080
:100D800000207047C36A13F0807F2CD10020704789
:100D9000C36AB3F1C07F28D000207047B2F5005F6E
:100DA00005D0022B29D9032B15D000207047032B27
:100DB00003D8DFE803F01C041C0A00207047C36A54
:100DC00013F0807F15D100207047C36AB3F1C07F54
:100DD00011D000207047C36A13F0807F01D001203A
:100DE00070470020704701207047012070470120A4
:100DF00070470120704701207047012070470000B4
:100E000070B50446FFF706FC002C5BD005460023B6
:100E100084F83430022384F835302268136823F0D4
:100E20000103136023681A6812F0010F0AD0FFF75C
:100E3000F1FB401B0528F5D920236365032084F8C6
:100E4000350070BD1A68204810406168A2680A43E6
:100E5000E1680A4321690A4361690A43A1690A43B7
:100E6000E1690A43216A0A430243616A04291ED0E8
:100E70001A602668756925F00705636A1D43042B0F
:100E800007D1A36A1D43E36A1BB12046FFF770FF39
:100E900090B975612046FFF74DFFE26D3F23934007
:100EA000836000206065012384F83530C9E7E16A7A
:100EB000206B01430A43DBE740236365012084F88C
:100EC0003500BEE70120BCE73F8010F038B5856DE6
:100ED00090F83440012C2CD0012480F8344090F854
:100EE0003540E4B2012C04D0002380F834300220D5
:100EF00038BD0446022084F8350000206065204695
:100F0000FFF702FFE26D3F239340AB602268136856
:100F100043F016031360236C23B12268136843F077
:100F2000080313602268136843F001031360002074
:100F3000DEE70220DCE790F83530DBB2022B03D08D
:100F40008023436501207047052380F8353002680F
:100F5000136823F00103136000207047F0B583B0DD
:100F6000044600230193724B1D68724BA3FB0535A9
:100F7000AD0A876D3E68C26D08239340334210D09E
:100F800003681A6812F0040F0BD01A6822F00402EA
:100F90001A60C26D08239340BB60436D43F00103A8
:100FA0004365E26D01239340334209D022685269C0
:100FB00012F0800F04D0BB60636D43F002036365E1
:100FC000E26D04239340334209D02268126812F084
:100FD000020F04D0BB60636D43F004036365E26DF0
:100FE00010239340334224D02268126812F0080F75
:100FF0001FD0BB6023681A6812F4802F0DD01B68C5
:1010000013F4002F04D1236C9BB12046984710E0C5
:10101000A36C73B1204698470BE01A6812F4807FE6
:1010200003D11A6822F008021A60236C0BB1204623
:101030009847E26D20239340334255D022681268CE
:1010400012F0100F50D0BB6094F83530DBB2052B96
:101050000ED023681A6812F4802F33D01B6813F463
:10106000002F2AD1636C002B3ED0204698473BE0EE
:101070002268136823F0160313602268536923F073
:1010800080035361236CA3B12268136823F0080323
:101090001360E26D3F239340BB60002384F834303B
:1010A000012384F83530236D002B3FD0204698472C
:1010B0003CE0A36C002BE7D1EBE7E36BA3B1204648
:1010C000984711E01A6812F4807F09D11A6822F05B
:1010D00010021A60002384F83430012384F835307C
:1010E000E36B0BB120469847636DFBB1636D13F062
:1010F000010F17D0052384F835302268136823F0D8
:1011000001031360019B01330193AB4204D82368B0
:101110001B6813F0010FF5D1002384F8343001234C
:1011200084F83530E36C0BB12046984703B0F0BD2E
:1011300008000020B5814E1B00230F2B00F2C58054
:10114000F0B583B039E0042200E00022AA403A431F
:1011500002345E4D45F824205D4A1468F24302EAE9
:1011600004054F6817F4803F01D046EA0405584C47
:101170002560646802EA04054F6817F4003F01D057
:1011800046EA0405524C6560A46802EA04054F680B
:1011900017F4801F01D046EA04054D4CA560E468B1
:1011A00022404D6815F4001F01D046EA0402484C65
:1011B000E26001330F2B00F2868001229A400C6816
:1011C00004EA0206B242F4D14C68651E012D03D92F
:1011D000112C01D0122C12D185685F000324BC4071
:1011E00025EA0405CC68BC402C438460456825EAA8
:1011F00002054C68C4F300129A402A434260C46856
:101200005F000322BA40D24314408D68BD4025439D
:10121000C5604C68022C01D0122C13D1DD080835B2
:1012200050F825E003F007044FEA840C0F2404FA79
:101230000CF42EEA040E0C6904FA0CF444EA0E04D1
:1012400040F82540046822404C6804F00304BC4088
:10125000224302604A6812F0805FAAD00022019205
:101260001C4A546C44F480445464526C02F480422E
:101270000192019A9C08A51C144A52F8257003F0AB
:10128000030295000F22AA4027EA0207124A904261
:101290003FF45BAF02F5806290420ED002F58062AF
:1012A00090420CD002F5806290420AD002F5806232
:1012B00090423FF448AF072248E7012246E7022266
:1012C00044E7032242E703B0F0BD70470038014015
:1012D000003C0140003802400000024012B90904FD
:1012E0008161704781617047002800F0E48170B52A
:1012F00082B00446036813F0010F3BD0A74B9B68F4
:1013000003F00C03042B2CD0A44B9B6803F00C03BC
:10131000082B21D06368B3F5803F4FD0B3F5A02FE1
:1013200052D09E4B1A6822F480321A601A6822F456
:1013300080221A606368002B50D0FFF76BF90546D6
:10134000964B1B6813F4003F14D1FFF763F9401B61
:101350006428F5D90320B3E1904B5B6813F4800F48
:10136000D8D08E4B1B6813F4003F03D06368002B6A
:1013700000F0A381236813F0020F55D0874B9B68C0
:1013800013F00C0F3ED0854B9B6803F00C03082B29
:1013900033D0E368002B68D0814B01221A60FFF73D
:1013A00039F905467D4B1B6813F0020F54D1FFF746
:1013B00031F9401B0228F5D9032081E1774A1368EF
:1013C00043F480331360B5E7744B1A6842F480220B
:1013D0001A601A6842F480321A60ABE7FFF71AF914
:1013E00005466E4B1B6813F4003FC3D0FFF712F99C
:1013F000401B6428F5D9032062E1684B5B6813F455
:10140000800FC6D1654B1B6813F0020F04D0E36850
:10141000012B01D0012053E1604A136823F0F80347
:10142000216943EAC1031360236813F0080F40D019
:10143000636963B35B4B01221A60FFF7EBF8054663
:10144000564B5B6F13F0020F33D1FFF7E3F8401BED
:101450000228F5D9032033E1504A136823F0F8033A
:10146000216943EAC1031360DEE74D4B00221A6095
:10147000FFF7D0F80546494B1B6813F0020FD3D095
:10148000FFF7C8F8401B0228F5D9032018E1454BA7
:1014900000221A60FFF7BEF80546404B5B6F13F061
:1014A000020F06D0FFF7B6F8401B0228F5D903203B
:1014B00006E1236813F0040F79D0384B1B6C13F04E
:1014C000805F33D100230193344B1A6C42F0805279
:1014D0001A641B6C03F080530193019B0125324B6E
:1014E0001B6813F4807F23D0A368012B34D0052B15
:1014F00038D02A4B1A6F22F001021A671A6F22F0B5
:1015000004021A67A368002B36D0FFF783F806465B
:10151000224B1B6F13F0020F48D1FFF77BF8801BA3
:1015200041F288339842F3D90320C9E00025D6E779
:101530001D4A136843F480731360FFF76BF8064687
:10154000194B1B6813F4807FCED1FFF763F8801B23
:101550000228F5D90320B3E0104A136F43F00103CA
:101560001367CFE70D4B1A6F42F004021A671A6F28
:1015700042F001021A67C5E7FFF74CF80646074B31
:101580001B6F13F0020F11D0FFF744F8801B41F2DC
:1015900088339842F3D9032092E000BF003802401C
:1015A00000004742800E474200700040EDB9A36939
:1015B000002B00F08480454A926802F00C02082A51
:1015C00051D0022B17D0424B00221A60FFF722F8AD
:1015D00004463E4B1B6813F0007F42D0FFF71AF819
:1015E000001B0228F5D903206AE0384A136C23F067
:1015F00080531364DBE7364B00221A60FFF70AF8CA
:101600000546324B1B6813F0007F06D0FFF702F847
:10161000401B0228F5D9032052E0E369226A1343F4
:10162000626A43EA8213A26A5208013A43EA024319
:10163000E26A43EA0263254A5360254B01221A609D
:10164000FEF7E8FF0446214B1B6813F0007F06D12C
:10165000FEF7E0FF001B0228F5D9032030E0002050
:101660002EE000202CE0012B2CD0184B5B6803F4FB
:101670008001E269914201D0012021E003F03F02A4
:10168000216A8A4201D001201AE0616A47F6C072DD
:101690001A408A4201D0012012E003F44032A16ACC
:1016A0008A4201D001200BE003F07063E26A9342AA
:1016B0000AD0012004E001207047012000E0002052
:1016C00002B070BD0120FBE70020F9E700380240BE
:1016D00060004742324B9B6803F00C03042B5CD044
:1016E000082B01D02F4870472DE9F04B2C4B5A683E
:1016F00002F03F025B6813F4800F2BD0284B5B682D
:10170000C3F388131E4600275C010025E41A65EB2D
:101710000705A90141EA9461A001001B61EB0501E5
:10172000CB0043EA5073C400A01943EB07014B02FE
:1017300043EAD0534402204619460023FEF750FDE9
:10174000174B5B68C3F3014301335B00B0FBF3F05D
:10175000BDE8F08B124B5B68C3F388131E4600276D
:101760005C010025E41A65EB0705A90141EA9461D3
:10177000A001001B61EB0501CB0043EA5073C400DC
:10178000A01943EB07018B0243EA905384022046E1
:1017900019460023FEF724FDD2E70348704700BF37
:1017A000003802400024F40000127A00002800F003
:1017B0009E8070B50446504B1B6803F00F038B42AC
:1017C00009D2CBB24C4A1370136803F00F038B425B
:1017D00001D0012070BD236813F0020F17D013F061
:1017E000040F04D0454A936843F4E05393602368A0
:1017F00013F0080F04D0414A936843F460439360A8
:101800003E4A936823F0F003A068034393600D46BB
:10181000236813F0010F32D06368012B21D09A1E88
:10182000012A25D9354A126812F0020F61D03349D6
:101830008A6822F0030213438B60FEF7EBFE064634
:101840002E4B9B6803F00C036268B3EB820F16D03B
:10185000FEF7E0FE801B41F288339842F0D9032066
:10186000B8E7264A126812F4003FE0D10120B1E740
:10187000224A126812F0007FD9D10120AAE71E4B3C
:101880001B6803F00F03AB4209D9EAB21A4B1A7076
:101890001B6803F00F03AB4201D001209AE72368D5
:1018A00013F0040F06D0154A936823F4E053E1685F
:1018B0000B439360236813F0080F07D00F4A936817
:1018C00023F46043216943EAC1039360FFF702FFF9
:1018D0000A4B9B68C3F30313094AD35CD840094BF6
:1018E0001860094B1868FEF74BFE002072E70120D4
:1018F000704701206EE700BF003C02400038024004
:10190000243500080800002004000020014B18685E
:10191000704700BF0800002008B5FFF7F7FF044B31
:101920009B68C3F38223034AD35CD84008BD00BF41
:10193000003802403435000808B5FFF7E7FF044BD4
:101940009B68C3F34233034AD35CD84008BD00BF51
:1019500000380240343500080268D36823F49073DD
:10196000D3600268536923F001035361202380F898
:101970003A30704790F83930DBB2212B2AD1836896
:10198000B3F5805F16D0036A5A1C02621A780368A6
:101990005A60C38C013B9BB2C384EBB90268D36825
:1019A00023F08003D3600268D36843F04003D36020
:1019B00000207047036A1B880268C3F30803536062
:1019C00003691BB9036A02330362E2E7036A013366
:1019D0000362DEE702207047002070472DE9F04BDC
:1019E00004460268136923F44053C1680B43136132
:1019F00083680269134342691343C2691A43016849
:101A0000CB6823F4164323F00C031343CB60026826
:101A1000536923F4407381690B435361C369B3F580
:101A2000004F3BD00368714A934200F0AB8002F54F
:101A30008062934200F0A680FFF76EFF4FF000092E
:101A4000061849EB090716EB000B47EB090C4FEAA8
:101A5000CC0343EA5B734FEACB0293469C46636830
:101A60009A009B0F10EB0B0049EB0C01FEF7B8FB43
:101A70005F4DA5FB00325109642202FB11021301E4
:101A80003233A5FB03235B0903F0F00202EB0112E2
:101A900003F00F03216813448B60A4E00368534AEA
:101AA000934239D002F58062934235D0FFF734FF7C
:101AB00083464FF0000C06184CEB0C0716EB0008A1
:101AC00047EB0C094FEAC90343EA58734FEAC802CF
:101AD0009046994662680021921841EB01031BEB86
:101AE00008004CEB0901FEF77BFB414DA5FB0032E2
:101AF0005109642202FB1102D3003233A5FB0323F8
:101B00005B095A0002F4F87202EB011203F00703BA
:101B1000216813448B6066E0FFF70EFF80464FF0AC
:101B20000009061849EB090716EB000B47EB090CF7
:101B30004FEACC0343EA5B734FEACB0293469C46E1
:101B400062680021921841EB010318EB0B0049EB8E
:101B50000C01FEF745FB264DA5FB0032510964221E
:101B600002FB1102D3003233A5FB03235B095A00A9
:101B700002F4F87202EB011203F007032168134428
:101B80008B6030E0FFF7D8FE4FF00009061849EBF4
:101B9000090716EB000B47EB090C4FEACC0343EAAD
:101BA0005B734FEACB0293469C4663689A009B0F97
:101BB00010EB0B0049EB0C01FEF712FB0C4DA5FBE3
:101BC00000325109642202FB110213013233A5FBDA
:101BD00003235B0903F0F00202EB011203F00F0391
:101BE000216813448B60BDE8F08B00BF00100140FA
:101BF0001F85EB512DE9F04105460F4616469846E4
:101C0000069C2B681B6837EA03030CBF01230023E3
:101C1000B3421DD1B4F1FF3FF3D02CB1FEF7FAFC73
:101C2000A0EB0800A042ECD92A68D36823F4D07353
:101C3000D3602A68536923F001035361202385F898
:101C4000393085F83A30002385F83830032000E039
:101C50000020BDE8F08158B310B5044690F8393043
:101C60000BB3242384F839302268D36823F400535B
:101C7000D3602046FFF7B2FE2268136923F4904335
:101C800013612268536923F02A0353612268D368E1
:101C900043F40053D3600020E063202384F83930FC
:101CA00084F83A3010BD80F8383000F0D7FBD8E720
:101CB000012070472DE9F04383B01E4690F839307B
:101CC000DBB2202B56D104460D469046002956D053
:101CD000002A56D090F83830012B54D0012380F8D8
:101CE00038304FF00009C0F83C90212380F839309B
:101CF000FEF790FC0746A4F82480A4F8268084F818
:101D0000389010E000963B46002280212046FFF7E5
:101D100071FF002839D12B882268C3F30803536070
:101D20002369C3B90235E38C9BB2B3B1E38C013BA9
:101D30009BB2E384A368B3F5805FE3D000963B4693
:101D4000002280212046FFF755FF00BB2A78236838
:101D50005A600135E7E70135E5E700963B4600228A
:101D600040212046FFF746FF034690B9202284F821
:101D7000392000E00223184603B0BDE8F0830123B8
:101D8000F9E70123F7E70223F5E70323F3E703234A
:101D9000F1E70323EFE790F83A30DBB2202B20D1B4
:101DA00009B312B390F83830012B20D081628285BC
:101DB000C2850023C363222280F83A2080F838309D
:101DC0000168CA6842F48072CA6001684A6942F0D8
:101DD00001024A610168CA6842F02002CA601846DE
:101DE0007047022070470120704701207047022091
:101DF0007047704708B50168CB6823F04003CB609B
:101E0000202380F83930FFF7F4FF002008BD08B523
:101E100090F83A30DBB2222B45D18368B3F5805F6E
:101E20000ED0036903BB03685A68836A591C816238
:101E30001A70C38D013B9BB2C385F3B1002033E020
:101E4000826A036943B903685B68C3F308031380BC
:101E5000836A02338362ECE703685B68DBB213805A
:101E6000836A01338362E4E703685B68826A511C1A
:101E7000816203F07F031370DBE70268D36823F00D
:101E80002003D3600268D36823F48073D3600268B0
:101E9000536923F001035361202380F83A3000F0A6
:101EA00059FA002000E0022008BD704710B5044632
:101EB00002681368D168526913F00F0005D113F05E
:101EC000200F02D011F0200F56D100286AD012F056
:101ED000010202D111F4907F64D013F0010F06D0FB
:101EE00011F4807F03D0E06B40F00100E06313F059
:101EF000040F04D01AB1E06B40F00200E06313F06D
:101F0000020F04D01AB1E06B40F00400E06313F05C
:101F1000080F07D011F0200F00D11AB1E26B42F088
:101F20000802E263E26B002A48D013F0200F02D0CF
:101F300011F0200F24D123685B6903F04003E26BAA
:101F400012F0080F00D13BB32046FFF705FD2368D0
:101F50005A6912F0400F1BD05A6922F040025A61B0
:101F6000636B8BB11A4A1A65606BFEF7E4FF28B306
:101F7000606B036D984721E02046FFF748FF1DE0A6
:101F80002046FFF744FFD6E72046FFF78EFF15E017
:101F90002046FFF78AFF11E02046FFF786FF002367
:101FA000E3630BE013F0800F02D011F0800F06D135
:101FB00013F0400F02D011F0400F04D110BD2046A5
:101FC000FFF7D8FCFAE72046FFF714FFF6E700BF5B
:101FD000D51F000808B5806B0023C385C384FFF7B5
:101FE00064FF08BD002300E00133072BFCD9002368
:101FF000132B03D89AB20AB90133F9E79FED010A0E
:10200000704700BF0000000030B589B00024039481
:1020100004940594069407940194134B1A6B42F0B0
:1020200080021A631A6B02F080020192019A0294F4
:102030001A6B42F001021A631B6B03F00103029357
:10204000029B0A4D224620212846FFF747F920230C
:102050000393012304930594069403A92846FFF7EC
:102060006BF809B030BD00BF0038024000000240EC
:1020700000B583B000210191094B1A6B42F4800234
:102080001A631B6B03F480030193019B0A463820FB
:10209000FEF7E2FD3820FEF713FE03B05DF804FB07
:1020A0000038024070B584B0002500950195029576
:1020B0000395104C104B23604FF480336360A56090
:1020C0002561257684F82050E5620C4BA362E5601B
:1020D0000126E66184F8306066612046FEF74EFB1B
:1020E00000960196029569462046FEF7DBFC04B097
:1020F00070BD00BFA8000020002001400100000FBB
:1021000008B50848084B03604FF41653436000239A
:102110008360C36003610C2242618361C361FFF786
:102120009AFD08BDF00000200010014010B50446E3
:102130004FF47A70FEF774FA642303220F492046A5
:10214000FFF7B8FD6420FEF76BFA642309220C49FF
:102150002046FFF7AFFD6420FEF762FA64230E22EB
:1021600008492046FFF7A6FD6420FEF759FA6423CC
:102170000D2205492046FFF79DFD10BD3C350008A6
:10218000403500084C3500085C35000830B595B086
:102190003022002108A800F065FA0024039404947A
:1021A00005940694079401941B4B1A6C42F08052DC
:1021B0001A641B6C03F080530193019B0294174A2D
:1021C000136823F4404343F400431360136803F49B
:1021D00040430293029B0225089501230B93102391
:1021E0000C930E950F94082310935423119312957A
:1021F0000423139308A8FFF777F80F23039304959C
:1022000005944FF4805306930794294603A8FFF7DB
:10221000CDFA15B030BD00BF00380240007000405C
:1022200038B5FEF7D1F9FFF7B1FFFFF7EDFEFFF785
:102230001FFFFFF737FFFFF763FF20222E492F48CC
:10224000FEF744FB2E4C01222E492046FFF7A3FD4A
:102250002046FFF76BFF43E02B4800F07FFA264B48
:1022600033F8143000EE103AB8EE400AFFF7BAFE29
:10227000264DBCEEC00A10EE103A2B8021462448B1
:1022800000F0F8F92988234800F0F4F901340F2C04
:10229000E2DD214B00221A7002221A7010241AE08B
:1022A000194800F05BFA144B33F8143000EE103A82
:1022B000B8EE400AFFF796FE144DBCEEC00A10EED1
:1022C000103A2B802146124800F0D4F92988114891
:1022D00000F0D0F901341F2CE2DD0F4B00221A7000
:1022E0006420FEF79DF90548FEF774FA0A4B0122B7
:1022F0001A700024CBE700BF30010020A8000020A6
:10230000F0000020A60000206C350008A40000208A
:10231000783500088C3500088C00002008B50122B3
:1023200020210348FEF7DAFF024B01221A7008BD94
:10233000000002408C00002008B500222021034844
:10234000FEF7CCFF024B02221A7008BD00000240CB
:102350008C00002008B5054B834200D008BD012247
:1023600003491846FFF717FDF8E700BFF00000200B
:10237000A60000207047000082B0002100910B4BA6
:102380005A6C42F480425A645A6C02F480420092C1
:10239000009A01911A6C42F080521A641B6C03F08F
:1023A00080530193019B02B0704700BF0038024088
:1023B00030B589B0002303930493059306930793E4
:1023C000026803F1804303F590339A4201D009B0CB
:1023D00030BD04460025019503F58C335A6C42F458
:1023E00080725A645A6C02F480720192019A0295CA
:1023F0001A6B42F001021A631B6B03F00103029394
:10240000029B022303930323049303A91048FEF7BE
:1024100093FE1048104B036045608560C5604FF423
:10242000806303614FF4006343614FF400538361A1
:102430004FF48073C36105624562FEF7E1FC18B991
:10244000044BA3639C63C2E7FFF794FFF8E700BF68
:1024500000000240700100201064024010B588B0F6
:10246000002303930493059306930793026803F1F3
:10247000804303F588339A4201D008B010BD002490
:10248000019403F594335A6C42F010025A645A6C6A
:1024900002F010020192019A02941A6B42F00102BA
:1024A0001A631B6B03F001030293029B4FF4C0639A
:1024B000039302230493032306930723079303A99B
:1024C0000548FEF739FE224621462520FEF7C4FBCB
:1024D0002520FEF7F5FBD0E7000002407047FEE73D
:1024E000FEE7FEE7FEE770477047704708B5FEF766
:1024F00085F808BD08B50248FFF7D8FC08BD00BF45
:10250000F000002008B50248FEF728FD08BD00BF16
:102510007001002070B50D461646002404E0AFF3AC
:102520000080287001340135B442F8DB304670BDBC
:1025300070B51646002405E04D1C0878AFF3008006
:1025400001342946B442F7DB304670BD08B5034676
:102550000B4A126842B10A4A106803446A46934221
:1025600006D8074A136008BD054A06491160F2E71C
:1025700000F04EF80C2303604FF0FF30F3E700BF8C
:1025800090000020D80100204FF0FF3070474FF43A
:1025900000534B60002070470120704700207047B7
:1025A000054BD3F8882042F47002C3F888204FF01E
:1025B00000629A60704700BF00ED00E0DFF834D0A1
:1025C000002103E00C4B5B58435004310B480C4B8B
:1025D00042189A42F6D30B4A02E0002342F8043B29
:1025E000094B9A42F9D3FFF7DBFF00F017F8FFF72A
:1025F00017FE7047008001204036000800000020D0
:102600007000002070000020D4010020FEE70000D0
:10261000014B1868704700BF0C00002070B50D4ECC
:102620000D4CA41BA4100025A54209D10B4E0C4C47
:1026300000F068FFA41BA4100025A54205D170BDC1
:1026400056F8253098470135EEE756F8253098477B
:102650000135F2E738360008383600083836000809
:102660003C36000802440346934200D1704703F809
:10267000011BF9E70FB40A4B13B51C6824B1A36919
:1026800013B9204600F022FA05AB049AA168019321
:10269000204600F0DBFB02B0BDE8104004B07047FC
:1026A0000C00002070B50E46054618B183690BB9C1
:1026B00000F00CFAAB69AC6813B9284600F006FAD2
:1026C000234B9C4217D16C68A3891B071DD5236936
:1026D000DBB1013EA36816F8011F013BA360E9B915
:1026E000002B2EDA22460A21284600F03FF801305E
:1026F00011D00A2011E0174B9C4201D1AC68E3E7EE
:10270000154B9C4208BFEC68DEE72146284600F0E6
:102710007FF80028DDD04FF0FF3070BD002B04DAC9
:10272000A2699A4206DC0A2904D023685A1C226056
:102730001970CFE72246284600F018F80130C9D1B9
:10274000E9E723680A205A1C22601870E5E700BFF9
:10275000BC350008DC3500089C350008024B0146FA
:102760001868FFF79FBF00BF0C000020F8B50E46A9
:102770001446054618B183690BB900F0A7F9214B3F
:102780009C422AD16C68A369A360A3891A072ED53D
:10279000236963B323692068C01A6369F6B2834270
:1027A000374604DC2146284600F026F928BBA368FA
:1027B000013BA36023685A1C22601E7063690130CC
:1027C000834204D0A389DB0719D50A2E17D12146ED
:1027D000284600F011F990B10FE00B4B9C4201D15B
:1027E000AC68D0E7094B9C4208BFEC68CBE72146B8
:1027F000284600F00DF80028CCD04FF0FF373846BF
:10280000F8BD00BFBC350008DC3500089C35000869
:10281000324B70B51D6806460C4625B1AB6913B93D
:10282000284600F053F92E4B9C420FD16C68B4F946
:102830000C309AB215072CD4D00611D4092232607C
:1028400043F04003A3814FF0FF303EE0254B9C4214
:1028500001D1AC68EBE7244B9C4208BFEC68E6E78B
:10286000510712D5616B41B104F14403994202D082
:10287000304600F019FA00236363A38923F0240390
:10288000A3810023636023692360A38943F00803C5
:10289000A38123694BB9A38903F42073B3F5007FA7
:1028A00003D02146304600F0BFF9A28912F001039F
:1028B0000CD00023A36063695B42A361236953B911
:1028C000B4F90C3013F08000BAD170BD920758BF34
:1028D0006369A360F2E70020F7E700BF0C00002067
:1028E000BC350008DC3500089C3500088A892DE9D4
:1028F000F041054610070C4658D44B68002B05DC08
:102900000B6C002B02DC0020BDE8F081E66A002E93
:10291000F9D0002312F480522F68216A2B6032D044
:10292000606DA3895A0705D56368C01A636B0BB144
:10293000236CC01A00230246E66A216A2846B04783
:10294000431CA38906D129681D2948D8294ACA40B1
:10295000D60744D500226260D9042269226004D5DA
:10296000421C01D12B6803B96065616B2F6000299F
:10297000C9D004F14403994202D0284600F094F9EA
:1029800000206063C0E701232846B047411CC8D13E
:102990002B68002BC5D01D2B01D0162B01D12F6029
:1029A000B1E7A38943F04003A381ADE70F69002F8E
:1029B000A9D093070E6808BF4B690F6018BF0023AA
:1029C000A6EB07088B60B8F1000F9CDD43463A4642
:1029D000216AA66A2846B047002806DCA38943F08E
:1029E0004003A3814FF0FF308EE70744A8EB0008B7
:1029F000E9E700BF0100402038B50B6905460C46E9
:102A0000DBB118B183690BB900F060F80C4B9C4244
:102A100009D16C68B4F90C307BB121462846BDE879
:102A20003840FFF763BF074B9C4201D1AC68F1E728
:102A3000054B9C4208BFEC68ECE7002038BD00BFA6
:102A4000BC350008DC3500089C350008002310B5B3
:102A50000446C0E90033836081814366C281C0E9D6
:102A600004338361194608225C30FFF7FBFD054BF8
:102A70006362054BA362054BE362054B246223634B
:102A800010BD00BFA9330008CB3300080334000891
:102A900027340008014900F085B800BFF929000873
:102AA00070B54A1E682555430E4605F1740100F0C5
:102AB00049F9044640B10021C0E900160C30A0607D
:102AC00005F16802FFF7CEFD204670BD836910B5A1
:102AD000044633BBC0E912330365124B124A1B682C
:102AE0008262984204BF0123836100F01FF8606096
:102AF000204600F01BF8A060204600F017F80022E6
:102B0000E06004216068FFF7A1FF01220921A068AD
:102B1000FFF79CFF02221221E068FFF797FF0123D5
:102B2000A36110BD98350008952A0008F8B51B4B25
:102B30001E68B369074613B93046FFF7C7FF48362A
:102B4000D6E90134013B03D5336833B13668F7E782
:102B5000B4F90C506DB16834F4E704213846FFF73E
:102B60009FFF30600028F1D10C233B6004462046D3
:102B7000F8BD0B4B6566C4E90055A560C4E9033593
:102B8000C4E905550822294604F15C00FFF76AFDF7
:102B9000C4E90D55C4E91255E9E700BF98350008AE
:102BA0000100FFFF2DE9F8438046894600F1480403
:102BB000002614B93046BDE8F883D4E90175013F19
:102BC00001D52468F5E7AB89012B07D9B5F90E309B
:102BD000013303D029464046C84706436835EEE72F
:102BE00070B50E46B1F90E10002996B014461D4678
:102BF00007DA00232B60B3891A0610D44FF48063E0
:102C00000EE06A4600F036FC0028F2DB019A02F47E
:102C10007042A2F500535A425A412A60EEE740231F
:102C20000020236016B070BD8B8973B59D070646E2
:102C30000C4607D504F14703236023610123636138
:102C400002B070BD01AB6A46FFF7CAFF00990546A6
:102C5000304600F077F848B9B4F90C309A05EFD453
:102C600023F0030343F00203A381E3E70D4BB362B8
:102C7000A389206043F08003A381009B6361019BD3
:102C800020615BB1B4F90E10304600F005FC28B1AC
:102C9000A38923F0030343F00103A381A3891D4308
:102CA000A581CDE7952A000838B50546002945D00D
:102CB00051F8043C0C1F002BB8BFE41800F00EFCC8
:102CC0001F4A1368104633B9636014602846BDE894
:102CD000384000F004BCA3420CD92168621893422A
:102CE00004BF1A685B68636004BF52182260046006
:102CF000ECE713465A680AB1A242FAD91968581883
:102D0000A0420BD120680144581882421960DDD1DD
:102D1000106852685A6001441960D7E702D90C2341
:102D20002B60D3E7206821188A4204BF11685268DB
:102D3000626004BF091821605C60C7E738BD00BF4E
:102D40009800002070B5CD1C25F0030508350C2D2A
:102D500038BF0C25002D064601DBA94203D90C2300
:102D60003360002070BD00F0B9FB214A1468214691
:102D700091B9204C23681BB9304600F005FB206058
:102D80002946304600F000FB431C24D10C2333605D
:102D9000304600F0A4FBE4E70B685B1B18D40B2B58
:102DA0000FD90B60CD50CC18304600F098FB04F1E1
:102DB0000B00231D20F00700C31AD3D05A42E25063
:102DC000D0E78C424B6816BF636013600C46EBE79C
:102DD0000C464968CCE7C41C24F00304A04205D08B
:102DE000211A304600F0D0FA0130CFD02560DBE761
:102DF000980000209C0000209368013B002B10B439
:102E0000936008DA9469A34201DB0A2903D15DF8D3
:102E1000044BFFF7ABBC1368581C106019700846D0
:102E20005DF8044B7047F8B506460F461446D518B2
:102E3000AC4201D1002007E03A4614F8011B3046AD
:102E4000FFF7DAFF431CF3D1F8BD00002DE9F04F86
:102E50000C469DB017461D46064618B183690BB94E
:102E6000FFF734FE7C4B9C4258D17468A389180745
:102E70005ED52369002B5BD00023099320238DF8B6
:102E8000293030238DF82A3003954FF0010BB846D6
:102E9000454615F8013B0BB1252B54D1B8EB070A79
:102EA0000BD053463A4621463046FFF7BCFF01306F
:102EB00000F0C280099B5344099398F80030002B1E
:102EC00000F0BA8000234FF0FF32CDE905230493D0
:102ED00007938DF853301A93A846052218F8011B62
:102EE0005E48FDF7FDFA049B78BBD90644BF20225B
:102EF0008DF853201A0744BF2B228DF853202A78CF
:102F00002A2A2AD0079AA84600200A25414611F805
:102F1000013B303B092B69D960B324E0504B9C4204
:102F200001D1B468A2E74F4B9C4208BFF4689DE70B
:102F300021463046FFF76CFC00289DD04FF0FF3053
:102F40001DB0BDE8F08FA846A2E7444A801A0BFAEC
:102F500000F0184304904546BEE7039A111D12681D
:102F60000391002A01DB079204E0524243F002037E
:102F70000792049398F800302E2B0ED198F8013068
:102F80002A2B38D1039B1A1D1B680392002BB8BF54
:102F90004FF0FF3308F102080593334D98F8001005
:102FA00003222846FDF79CFA40B14023401B03FA58
:102FB00000F0049B034308F10108049398F8001003
:102FC0002A488DF82810062208F10107FDF788FA33
:102FD000002837D0264B1BBB039B073323F0070386
:102FE00008330393099B4B44099350E705FB0232D6
:102FF000012088468AE7002308F101080593194655
:103000000A25404610F8012B303A092A03D9002B33
:10301000C3D00591C1E705FB012101238046F0E7FC
:1030200003AB00932246134B04A93046AFF3008054
:10303000B0F1FF3F8146D5D1A3895B063FF57EAF56
:1030400009987DE703AB009322460A4B04A930465A
:1030500000F088F8ECE700BFBC350008FC3500083C
:10306000DC3500089C3500080236000806360008EA
:1030700000000000272E00082DE9F04791461F466A
:103080008A680B69DDF820809342B8BF1346C9F8FF
:10309000003091F8432006460C4612B10133C9F8BE
:1030A00000302368990642BFD9F800300233C9F8CE
:1030B0000030256815F0060507D104F1190AE36808
:1030C000D9F800209B1AAB4228DC94F843302268E0
:1030D000003318BF012392062DD404F14302394670
:1030E0003046C047013020D02368E568D9F8002079
:1030F00003F00603042B08BFAD1AA36822690CBFB6
:1031000025EAE57500259342C4BF9B1AED184FF0E0
:1031100000091A344D451AD1002008E00123524617
:1031200039463046C047013003D14FF0FF30BDE88B
:10313000F0870135C3E7E1185A1C302081F84300BD
:10314000224494F8451082F843100233C5E7012366
:10315000224639463046C0470130E6D009F1010920
:10316000D8E700002DE9F04301F1430C0C46097E3D
:1031700085B06E291746064698460C9A00F0B38033
:1031800022D8632936D00AD8002900F0B9805829FE
:1031900000F0838004F1420584F8421032E0642993
:1031A00001D06929F6D120681368050603F10401EE
:1031B0002AD51B681160002B03DA2D225B4284F8AC
:1031C00043206F480A2239E0732900F09D8008D817
:1031D0006F2920D07029DDD1236843F020032360BC
:1031E00003E0752917D07829D4D1782384F84530A5
:1031F000644855E01368191D1B68116004F142050D
:1032000084F8423001238CE01B68116010F0400FFD
:1032100018BF1BB2CFE713682568181D1060280679
:1032200001D51B6802E06806FBD51B8854486F294E
:1032300014BF0A220822002184F843106568A560A3
:10324000002DC0F29580216821F004012160002B3F
:103250003DD1002D40F08E806546082A0BD12368B1
:10326000DB0708D5236962689A42DEBF302305F880
:10327000013C05F1FF35ACEB05032361CDF800807F
:103280003B4603AA21463046FFF7F6FE01304DD1FA
:103290004FF0FF3005B0BDE8F083394884F84510A1
:1032A000136821681D1D1B6815600A060BD5CA0727
:1032B00044BF41F0200121601BB9226822F02002A6
:1032C00022601022B7E74D0648BF9BB2EFE7654684
:1032D000B3FBF2F102FB1133C35C05F8013D0B4671
:1032E0000029F5D1B9E7136825686169181D1060D8
:1032F00028061B6801D5196002E06A06FBD5198013
:10330000002323616546B9E71368191D11601D6824
:10331000626800212846FDF7E3F808B1401B6060B1
:1033200063682361002384F84330A7E723692A46B2
:1033300039463046C0470130AAD023689B0713D4D2
:10334000E068039B9842B8BF1846A3E701234A46AA
:1033500039463046C04701309AD00135E368039AB8
:103360009B1AAB42F2DCEBE7002504F11909F5E703
:10337000002BACD1037884F8423004F142056CE7AD
:103380000D3600081E36000838B5064C00230546E9
:1033900008462360FFF7DAF8431C02D1236803B123
:1033A0002B6038BDD001002010B50C46B1F90E10CD
:1033B00000F096F80028ABBF636DA3891B1823F4B7
:1033C0008053ACBF6365A38110BD2DE9F0411F465A
:1033D0008B89DB0505460C46164605D502230022DF
:1033E000B1F90E1000F068F8A389B4F90E1023F4B7
:1033F0008053A38132463B462846BDE8F04100F0A9
:1034000017B810B50C46B1F90E1000F055F8431C72
:10341000A38915BF606523F4805343F48053A381CF
:1034200018BFA38110BDB1F90E1000F013B8000051
:1034300038B5074C054608461146002222601A4658
:10344000FFF776F8431C02D1236803B12B6038BD27
:10345000D001002038B5064C0023054608462360FD
:10346000FFF792F8431C02D1236803B12B6038BDEB
:10347000D001002038B5074C002305460846114608
:103480002360FFF784F8431C02D1236803B12B604B
:1034900038BD00BFD001002038B5064C00230546DA
:1034A00008462360FFF778F8431C02D1236803B174
:1034B0002B6038BDD001002038B5074C05460846C2
:1034C0001146002222601A46FFF768F8431C02D119
:1034D000236803B12B6038BDD001002070477047CE
:1034E00038B5074C054608461146002222601A46A8
:1034F000FFF710F8431C02D1236803B12B6038BDDD
:10350000D0010020F8B500BFF8BC08BC9E4670474B
:0C351000F8B500BFF8BC08BC9E46704730
:10351C000006101600061016000000000000000047
:10352C00010203040607080900000000010203045D
:10353C0041540A0041542B42415544300A000000CA
:10354C0041542B4E414D45656B675F62740A000018
:10355C0041542B50494E3131313131310A00000088
:10356C0050727A656420505400000000506F205057
:10357C005420637572723D202564200A00000000FF
:10358C005152533F3A202025643E20001000002069
:10359C00000000000000000000000000000000001F
:1035AC00000000000000000000000000000000000F
:1035BC0000000000000000000000000000000000FF
:1035CC0000000000000000000000000000000000EF
:1035DC0000000000000000000000000000000000DF
:1035EC0000000000000000000000000000000000CF
:1035FC00232D302B2000686C4C00656667454647D0
:10360C000030313233343536373839414243444552
:10361C0046003031323334353637383961626364C1
:04362C0065660000CF
:08363000E0CBFF7F0100000068
:04363800C5010008C0
:04363C00A1010008E0
:1036400001000000100000000024F4001000002021
:1036500000000000BC350008DC3500089C3500087F
:10366000000000000000000000000000000000005A
:10367000000000000000000000000000000000004A
:10368000000000000000000000000000000000003A
:10369000000000000000000000000000000000002A
:1036A000000000000000000000000000000000001A
:04000005080025BD0D
:00000001FF
