:020000040800F2
:10000000008001204D3E0008F93D0008FB3D00083E
:10001000FD3D0008FF3D0008013E00080000000013
:10002000000000000000000000000000033E000887
:10003000053E000800000000073E0008093E0008D9
:100040009D3E00089D3E00089D3E00089D3E000824
:100050009D3E00089D3E00089D3E00089D3E000814
:100060009D3E00089D3E00089D3E00089D3E000804
:100070009D3E00089D3E00089D3E00089D3E0008F4
:100080009D3E00089D3E00089D3E000800000000C7
:100090000000000000000000000000009D3E00087D
:1000A0009D3E00089D3E00089D3E00089D3E0008C4
:1000B0009D3E00089D3E00089D3E00089D3E0008B4
:1000C0009D3E00089D3E00089D3E00089D3E0008A4
:1000D0009D3E0008113E00089D3E00080000000003
:1000E0009D3E00089D3E00089D3E00080000000067
:1000F0000000000000000000000000009D3E00081D
:10010000000000009D3E00089D3E00089D3E000846
:1001100000000000000000000000000000000000DF
:10012000213E00089D3E00089D3E00089D3E0008BF
:100130009D3E0008000000000000000000000000DC
:100140000000000000000000000000009D3E0008CC
:100150009D3E00089D3E00089D3E00089D3E000813
:100160009D3E00089D3E00080000000000000000C9
:10017000000000000000000000000000000000007F
:10018000000000009D3E000800000000000000008C
:040190009D3E000888
:1001980010B5054C237833B9044B13B10448AFF3B9
:1001A80000800123237010BD1C0000200000000007
:1001B800F83E000808B5034B1BB103490348AFF3E9
:1001C800008008BD0000000020000020F83E000864
:1001D80081F0004102E000BF83F0004330B54FEAF0
:1001E80041044FEA430594EA050F08BF90EA020F5D
:1001F8001FBF54EA000C55EA020C7FEA645C7FEAF0
:10020800655C00F0E2804FEA5454D4EB5555B8BF12
:100218006D420CDD2C4480EA020281EA030382EA83
:10022800000083EA010180EA020281EA0303362D15
:1002380088BF30BD11F0004F4FEA01314FF4801CE8
:100248004CEA113102D0404261EB410113F0004FFA
:100258004FEA03334CEA133302D0524263EB4303B1
:1002680094EA050F00F0A780A4F10104D5F1200E4F
:100278000DDB02FA0EFC22FA05F2801841F10001AA
:1002880003FA0EF2801843FA05F359410EE0A5F17E
:1002980020050EF1200E012A03FA0EFC28BF4CF0AF
:1002A800020C43FA05F3C01851EBE37101F0004565
:1002B80007D54FF0000EDCF1000C7EEB00006EEB72
:1002C8000101B1F5801F1BD3B1F5001F0CD34908FC
:1002D8005FEA30004FEA3C0C04F101044FEA445253
:1002E80012F5800F80F09A80BCF1004F08BF5FEADA
:1002F800500C50F1000041EB045141EA050130BDBA
:100308005FEA4C0C404141EB010111F4801FA4F15C
:100318000104E9D191F0000F04BF01460020B1FAB1
:1003280081F308BF2033A3F10B03B3F120020CDAE9
:100338000C3208DD02F1140CC2F10C0201FA0CF0C7
:1003480021FA02F10CE002F11402D8BFC2F1200C2C
:1003580001FA02F120FA0CFCDCBF41EA0C019040E2
:10036800E41AA2BF01EB0451294330BD6FEA04042B
:100378001F3C1CDA0C340EDC04F11404C4F1200216
:1003880020FA04F001FA02F340EA030021FA04F328
:1003980045EA030130BDC4F10C04C4F1200220FA7F
:1003A80002F001FA04F340EA0300294630BD21FABD
:1003B80004F0294630BD94F0000F83F4801306BF83
:1003C80081F480110134013D4EE77FEA645C18BF77
:1003D8007FEA655C29D094EA050F08BF90EA020F0E
:1003E80005D054EA000C04BF1946104630BD91EA06
:1003F800030F1EBF0021002030BD5FEA545C05D109
:100408004000494128BF41F0004130BD14F5800447
:100418003CBF01F5801130BD01F0004545F0FE41BB
:1004280041F470014FF0000030BD7FEA645C1ABFF0
:10043800194610467FEA655C1CBF0B46024650EA27
:10044800013406BF52EA033591EA030F41F4002153
:1004580030BD00BF90F0000F04BF0021704730B5D9
:100468004FF4806404F132044FF000054FF00001AE
:1004780050E700BF90F0000F04BF0021704730B56F
:100488004FF4806404F1320410F0004548BF404244
:100498004FF000013EE700BF42004FEAE2014FEA99
:1004A80031014FEA02701FBF12F07F4393F07F4F74
:1004B80081F06051704732F07F4208BF704793F077
:1004C8007F4F04BF41F40021704730B54FF460748A
:1004D80001F0004521F000411CE700BF50EA01028D
:1004E80008BF704730B54FF000050AE050EA010236
:1004F80008BF704730B511F0004502D5404261EBA6
:1005080041014FF4806404F132045FEA915C3FF4E6
:10051800D8AE4FF003025FEADC0C18BF03325FEA83
:10052800DC0C18BF033202EBDC02C2F1200300FA34
:1005380003FC20FA02F001FA03FE40EA0E0021FA59
:1005480002F11444BDE600BF70B54FF0FF0C4CF447
:10055800E06C1CEA11541DBF1CEA135594EA0C0FF9
:1005680095EA0C0F00F0DEF82C4481EA030621EA34
:100578004C5123EA4C5350EA013518BF52EA03356F
:1005880041F4801143F4801338D0A0FB02CE4FF021
:100598000005E1FB02E506F00042E0FB03E54FF051
:1005A8000006E1FB03569CF0000F18BF4EF0010E49
:1005B800A4F1FF04B6F5007F64F5407404D25FEA45
:1005C8004E0E6D4146EB060642EAC62141EA5551F8
:1005D8004FEAC52040EA5E504FEACE2EB4F1FD0C3A
:1005E80088BFBCF5E06F1ED8BEF1004F08BF5FEAB8
:1005F800500E50F1000041EB045170BD06F000466A
:1006080046EA010140EA020081EA0301B4EB5C0416
:10061800C2BFD4EB0C0541EA045170BD41F480110E
:100628004FF0000E013C00F3AB8014F1360FDEBF33
:10063800002001F0004170BDC4F10004203C35DA0F
:100648000C341BDC04F11404C4F1200500FA05F392
:1006580020FA04F001FA05F240EA020001F0004233
:1006680021F0004110EBD37021FA04F642EB0601A9
:100678005EEA430E08BF20EAD37070BDC4F10C04D3
:10068800C4F1200500FA04F320FA05F001FA04F297
:1006980040EA020001F0004110EBD37041F1000183
:1006A8005EEA430E08BF20EAD37070BDC4F120058E
:1006B80000FA05F24EEA020E20FA04F301FA05F2F6
:1006C80043EA020321FA04F001F0004121FA04F29E
:1006D80020EA020000EBD3705EEA430E08BF20EA6E
:1006E800D37070BD94F0000F0FD101F000464000A8
:1006F80041EB010111F4801F08BF013CF7D041EA2A
:10070800060195F0000F18BF704703F0004652002D
:1007180043EB030313F4801F08BF013DF7D043EAFE
:100728000603704794EA0C0F0CEA135518BF95EAB4
:100738000C0F0CD050EA410618BF52EA4306D1D13B
:1007480081EA030101F000414FF0000070BD50EA5A
:10075800410606BF1046194652EA430619D094EAE4
:100768000C0F02D150EA013613D195EA0C0F05D1CE
:1007780052EA03361CBF104619460AD181EA030122
:1007880001F0004141F0FE4141F470014FF00000DA
:1007980070BD41F0FE4141F4780170BD70B54FF075
:1007A800FF0C4CF4E06C1CEA11541DBF1CEA1355F5
:1007B80094EA0C0F95EA0C0F00F0A7F8A4EB0504D7
:1007C80081EA030E52EA03354FEA013100F08880CE
:1007D8004FEA03334FF0805545EA131343EA126397
:1007E8004FEA022245EA111545EA10654FEA00264C
:1007F8000EF000419D4208BF964244F1FD0404F505
:10080800407402D25B084FEA3202B61A65EB030560
:100818005B084FEA32024FF480104FF4002CB6EB1D
:10082800020E75EB030E22BFB61A754640EA0C009D
:100838005B084FEA3202B6EB020E75EB030E22BFDD
:10084800B61A754640EA5C005B084FEA3202B6EB1E
:10085800020E75EB030E22BFB61A754640EA9C00DD
:100868005B084FEA3202B6EB020E75EB030E22BFAD
:10087800B61A754640EADC0055EA060E18D04FEA6B
:10088800051545EA16754FEA06164FEAC30343EA0B
:1008980052734FEAC2025FEA1C1CC0D111F4801FD8
:1008A8000BD141EA00014FF000004FF0004CB6E7D1
:1008B80011F4801F04BF01430020B4F1FD0C88BF70
:1008C800BCF5E06F3FF6AFAEB5EB030C04BFB6EB7B
:1008D800020C5FEA500C50F1000041EB045170BD6E
:1008E8000EF0004E4EEA113114EB5C04C2BFD4EB9B
:1008F8000C0541EA045170BD41F480114FF0000E1F
:10090800013C90E645EA060E8DE60CEA135594EA9A
:100918000C0F08BF95EA0C0F3FF43BAF94EA0C0F9D
:100928000AD150EA01347FF434AF95EA0C0F7FF412
:1009380025AF104619462CE795EA0C0F06D152EA66
:1009480003353FF4FDAE1046194622E750EA41064A
:1009580018BF52EA43067FF4C5AE50EA41047FF45B
:100968000DAF52EA43057FF4EBAE12E74FF0FF3CC0
:1009780006E000BF4FF0010C02E000BF4FF0010C91
:100988004DF804CD4FEA410C7FEA6C5C4FEA430C0A
:1009980018BF7FEA6C5C1BD001B050EA410C0CBF59
:1009A80052EA430C91EA030F02BF90EA020F0020BB
:1009B800704710F1000F91EA030F58BF994208BF22
:1009C80090422CBFD8176FEAE37040F001007047DF
:1009D8004FEA410C7FEA6C5C02D150EA013C07D136
:1009E8004FEA430C7FEA6C5CD6D152EA033CD3D081
:1009F8005DF8040B704700BF8446104662468C467B
:100A08001946634600E000BF01B5FFF7B7FF0028AD
:100A180048BF10F1000F01BD4DF808EDFFF7F4FFD6
:100A28000CBF012000205DF808FB00BF4DF808ED61
:100A3800FFF7EAFF34BF012000205DF808FB00BF84
:100A48004DF808EDFFF7E0FF94BF012000205DF8A6
:100A580008FB00BF4DF808EDFFF7CEFF94BF01205B
:100A680000205DF808FB00BF4DF808EDFFF7C4FF54
:100A780034BF012000205DF808FB00BF4FEA4102A7
:100A880012F5001215D211D56FF47873B3EB6252D8
:100A980012D94FEAC12343F0004343EA505311F0FF
:100AA800004F23FA02F018BF404270474FF0000091
:100AB800704750EA013005D111F0004008BF6FF0CF
:100AC800004070474FF00000704700BF4A0011D245
:100AD80012F5001211D20DD56FF47873B3EB625290
:100AE8000ED44FEAC12343F0004343EA505323FA9C
:100AF80002F070474FF00000704750EA013002D111
:100B08004FF0FF3070474FF00000704753B94AB9B3
:100B1800002908BF00281CBF4FF0FF314FF0FF30FD
:100B280000F072B9ADF1080C6DE904CE00F006F8DA
:100B3800DDF804E0DDE9022304B070472DE9F04751
:100B4800089E04468846002B4BD18A42154667D931
:100B5800B2FA82F24AB1C2F1200701FA02F320FA8E
:100B680007F7954047EA030894404FEA154E230CCF
:100B7800B8FBFEF71FFA85FC0EFB178843EA08430B
:100B880007FB0CF1994209D9EB1807F1FF3080F007
:100B98001B81994240F21881023F2B445B1AA4B290
:100BA800B3FBFEF00EFB103344EA034400FB0CFCDD
:100BB800A44509D92C1900F1FF3380F00781A44519
:100BC80040F2048102382C4440EA0740A4EB0C04AC
:100BD80000271EB1D4400023C6E900433946BDE8CA
:100BE800F0878B4209D9002E00F0EB800027C6E978
:100BF800000138463946BDE8F087B3FA83F7002F7D
:100C080047D18B4202D3824200F2FA80841A61EB08
:100C1800030301209846002EE0D0C6E90048DDE72E
:100C280002B9FFDEB2FA82F2002A40F08F80491B37
:100C38004FEA154E1FFA85F80127B1FBFEFC230C7D
:100C48000EFB1C1143EA014308FB0CF1994207D93A
:100C5800EB180CF1FF3002D2994200F2CD808446A5
:100C6800591AA3B2B1FBFEF00EFB101443EA044478
:100C780008FB00F8A04507D92C1900F1FF3302D270
:100C8800A04500F2B6801846A4EB080440EA0C40E0
:100C98009FE7C7F1200CBB4022FA0CFE4EEA030E78
:100CA80001FA07F420FA0CF521FA0CF34FEA1E4872
:100CB8002543B3FBF8F92C0C08FB19331FFA8EFAFD
:100CC80044EA034309FB0AF49C4202FA07F200FAD9
:100CD80007F10BD91EEB030309F1FF3080F0878081
:100CE8009C4240F28480A9F1020973441B1BADB2F7
:100CF800B3FBF8F008FB103345EA034400FB0AFA9B
:100D0800A24508D91EEB040400F1FF336BD2A245BB
:100D180069D90238744440EA0940A0FB0289A4EB6F
:100D28000A044C45C2464B4654D351D0002E69D0D4
:100D3800B1EB0A0564EB030404FA0CFCFD40FC402B
:100D48004CEA0505C6E90054002747E7C2F120032D
:100D580020FA03F7954001FA02F021FA03F34FEA6B
:100D6800154E3843010CB3FBFEF71FFA85F80EFB4E
:100D7800173341EA034107FB08F38B4204FA02F4F4
:100D880007D9691807F1FF3C2FD28B422DD9023FB2
:100D98002944CB1A81B2B3FBFEF00EFB103341EAB3
:100DA800034100FB08F38B4207D9691800F1FF3CA7
:100DB80017D28B4215D902382944C91A40EA074785
:100DC8003BE73746304609E70746E7E61846FBE6BD
:100DD8004145ABD2B8EB020A69EB0E020138134663
:100DE800A4E76046E9E7184695E76746D1E78146F4
:100DF8007CE702382C4447E7ACF1020C2B442FE780
:100E0800384608E73746E9E6704700BF10B504469C
:100E18000E4B18784FF47A73B3FBF0F30C4A106852
:100E2800B0FBF3F000F024FB68B90F2C01D90120C6
:100E38000AE0002221464FF0FF3000F0D7FA034BBA
:100E48005C60002000E0012010BD00BF0000002011
:100E58001800002008B50B4B1A6842F400721A609B
:100E68001A6842F480621A601A6842F480721A6042
:100E7800032000F0A9FA0020FFF7C8FF02F0F0FEF7
:100E8800002008BD003C0240034A1168034B1B7850
:100E98000B441360704700BF80130020000000203F
:100EA800014B1868704700BF8013002038B504460E
:100EB800FFF7F6FF0546B4F1FF3F02D0044B1B785D
:100EC8001C44FFF7EDFF401BA042FAD338BD00BF1A
:100ED800000000204A4B5A6822F440325A605A688F
:100EE80041680A435A600268536823F48073536068
:100EF80002685368016943EA012353600268536832
:100F080023F0407353600268536881680B43536051
:100F18000268936823F40063936002689368C16869
:100F28000B439360826A374B9A424BD002689368AE
:100F380023F07063936002689368816A0B4393603F
:100F48000268936823F04053936002689368C16A0B
:100F58000B4393600268936823F00203936002686E
:100F68009368017E43EA4103936090F82030002B98
:100F780033D10268536823F4006353600268D36A6C
:100F880023F47003D3620168CB6AC269013A43EA69
:100F98000253CB620268936823F40073936002687B
:100FA800936890F8301043EA41239360026893688D
:100FB80023F48063936002689368416943EA81235C
:100FC800936070470268936823F0706393600268C7
:100FD800936823F040539360BCE70268536843F476
:100FE800006353600268536823F4604353600168E8
:100FF8004B68426A013A43EA42334B60BEE700BF9E
:10100800002301400100000F38B310B50446036CFB
:1010180043B1236C13F0100F0BD00120002384F888
:101028003C3010BD02F038FE0023636484F83C3085
:10103800EFE7236C23F4885323F0020343F0020301
:1010480023642046FFF746FF00206064236C23F0EA
:10105800030343F001032364E0E701207047000025
:1010680030B583B00023019390F83C30012B00F099
:101078008180012380F83C300468A36813F0010FD5
:1010880013D1A36843F00103A3603F4B1C683F4B97
:10109800A3FB0434A40C04EB4404019402E0019C77
:1010A800013C0194019C002CF9D103689C6814F060
:1010B800010F61D0046C24F4E06424F0010444F4CA
:1010C800807404645B6813F4806F05D0036C23F4A8
:1010D800405343F480530364036C13F4805F36D0A9
:1010E800436C23F00603436413460446002280F849
:1010F8003C20826B2648D063A26B26481064A26B02
:101108002548D06422686FF022001060256868685E
:1011180040F0806068602568A86840F48070A86026
:1011280020680A4600F14C01A06B00F099FA1B4BAD
:101138005B6813F01F0F0DD123689A6812F0405FA7
:101148001DD19A6842F080429A60002015E0002381
:101158004364C9E72368124A934201D000200CE097
:101168009A6812F0405F0CD19A6842F080429A6007
:10117800002002E0022000E0002003B030BD002083
:10118800FBE70020F9E700BF1800002083DE1B43BF
:10119800CF110008AD110008B91100080023014063
:1011A8000020014008B5806B02F03CFD08BD704787
:1011B80008B5806B40230364436C43F00403436425
:1011C800FFF7F5FF08BD08B5836B1A6C12F0500FD6
:1011D80026D11A6C42F400721A641A68916811F0E8
:1011E800405F19D1197EB9B9D16A11F4700F03D0D3
:1011F800916811F4806F0FD1516821F0200151607E
:101208001A6C22F480721A641A6C12F4805F03D18B
:101218001A6C42F001021A64184602F009FD08BD72
:101228001A6C12F0100F03D19B6BDB6C9847F6E732
:101238001846FFF7BCFFF2E730B482B000230193F1
:1012480090F83C30012B00F0B780012380F83C3047
:101258000B68092B3ED90568EA689BB203EB430388
:101268001E3B072404FA03F322EA0303EB60056834
:10127800EA688C680B8803EB43031E3B04FA03F30C
:101288001343EB604B68062B3AD805686A6B03EB8F
:101298008303053B1F2404FA03F322EA03036B6369
:1012A80005686A6B4B6803EB8303053B0C8804FAFB
:1012B80003F313436B630268404B9A4250D00268B1
:1012C8003E4B9A4255D0002380F83C30184602B075
:1012D80030BC704705682A699BB203EB43030724B7
:1012E80004FA03F322EA03032B6105682A698C6870
:1012F8000B8803EB430304FA03F313432B61C1E7A1
:101308000C2B16D805682A6B03EB8303233B1F2499
:1013180004FA03F322EA03032B6305682A6B4B687C
:1013280003EB8303233B0C8804FA03F313432B6377
:10133800C1E70568EA6A03EB8303413B1F2404FA0B
:1013480003F322EA0303EB620568EA6A4B6803EBDE
:101358008303413B0C8804FA03F31343EB62AAE7C7
:101368000B68122BABD1164A536843F480035360C1
:10137800A5E70B68103B012BA5D8114A536843F425
:10138800000353600B68102B9DD10E4B1B6802F1B4
:10139800467202F52E3202F28332A2FB03239B0C23
:1013A80003EB83035A00019202E0019B013B019386
:1013B800019B002BF9D186E7022088E70020014035
:1013C8000023014018000020074AD36823F4E06393
:1013D8001B041B0C000200F4E060184340F0BF60DF
:1013E80040F40030D060704700ED00E030B4174B97
:1013F800DB68C3F30223C3F10704042C28BF0424C9
:101408001D1D062D18D9033B4FF0FF3505FA04F4CE
:1014180021EA0401994005FA03F322EA0303194378
:1014280000280BDB0901C9B200F1604000F56140FA
:1014380080F8001330BC70470023E5E700F00F0088
:101448000901C9B2024B1954F4E700BF00ED00E0EE
:1014580014ED00E0002807DB00F01F02400901231B
:101468009340024A42F82030704700BF00E100E094
:101478000138B0F1807F0AD2064B5860064AF02145
:1014880082F823100020986007221A607047012014
:10149800704700BF10E000E000ED00E030B40568E0
:1014A8002C6824F480242C60046863608368402BD3
:1014B80005D0036899600368DA6030BC7047036838
:1014C8009A600368D960F8E70268D3B2103B0B4909
:1014D800A1FB03131B090A49C95CC165032B06D884
:1014E80022F47F7222F003028265806D704722F435
:1014F8007F7222F0030204328265F6E7ABAAAAAA39
:10150800103F0008836A826992B9012B0AD01BB187
:10151800022B01D000207047C36A13F0807F2CD1C2
:1015280000207047C36AB3F1C07F28D000207047FD
:10153800B2F5005F05D0022B29D9032B15D0002066
:101548007047032B03D8DFE803F01C041C0A0020B3
:101558007047C36A13F0807F15D100207047C36AB3
:10156800B3F1C07F11D000207047C36A13F0807FA9
:1015780001D00120704700207047012070470120EA
:1015880070470120704701207047012070470120F3
:101598007047000070B50446FFF782FC002C5BD052
:1015A8000546002384F83430022384F83530226855
:1015B800136823F00103136023681A6812F0010FFF
:1015C8000AD0FFF76DFC401B0528F5D92023636579
:1015D800032084F8350070BD1A68204810406168FF
:1015E800A2680A43E1680A4321690A4361690A4318
:1015F800A1690A43E1690A43216A0A430243616A0D
:1016080004291ED01A602668756925F00705636AE3
:101618001D43042B07D1A36A1D43E36A1BB120466F
:10162800FFF770FF90B975612046FFF74DFFE26D37
:101638003F239340836000206065012384F83530A0
:10164800C9E7E16A206B01430A43DBE7402363658E
:10165800012084F83500BEE70120BCE73F8010F088
:1016680038B5856D90F83440012C2CD0012480F8D1
:10167800344090F83540E4B2012C04D0002380F8BF
:101688003430022038BD0446022084F8350000209A
:1016980060652046FFF702FFE26D3F239340AB6091
:1016A8002268136843F016031360236C23B1226881
:1016B800136843F0080313602268136843F00103BA
:1016C80013600020DEE70220DCE790F83530DBB25B
:1016D800022B03D08023436501207047052380F83F
:1016E80035300268136823F0010313600020704747
:1016F800F0B583B0044600230193724B1D68724B0A
:10170800A3FB0535AD0A876D3E68C26D082393407B
:10171800334210D003681A6812F0040F0BD01A680D
:1017280022F004021A60C26D08239340BB60436D27
:1017380043F001034365E26D01239340334209D02E
:101748002268526912F0800F04D0BB60636D43F0C9
:1017580002036365E26D04239340334209D0226893
:10176800126812F0020F04D0BB60636D43F00403EB
:101778006365E26D10239340334224D022681268D7
:1017880012F0080F1FD0BB6023681A6812F4802F6C
:101798000DD01B6813F4002F04D1236C9BB1204695
:1017A800984710E0A36C73B1204698470BE01A687D
:1017B80012F4807F03D11A6822F008021A60236CA1
:1017C8000BB120469847E26D20239340334255D011
:1017D8002268126812F0100F50D0BB6094F83530B0
:1017E800DBB2052B0ED023681A6812F4802F33D091
:1017F8001B6813F4002F2AD1636C002B3ED02046BF
:1018080098473BE02268136823F0160313602268A8
:10181800536923F080035361236CA3B122681368D2
:1018280023F008031360E26D3F239340BB6000235D
:1018380084F83430012384F83530236D002B3FD0F1
:10184800204698473CE0A36C002BE7D1EBE7E36B1D
:10185800A3B12046984711E01A6812F4807F09D195
:101868001A6822F010021A60002384F83430012329
:1018780084F83530E36B0BB120469847636DFBB1B4
:10188800636D13F0010F17D0052384F835302268F3
:10189800136823F001031360019B01330193AB42EA
:1018A80004D823681B6813F0010FF5D1002384F8CE
:1018B8003430012384F83530E36C0BB12046984767
:1018C80003B0F0BD18000020B5814E1B00230F2B7C
:1018D80000F2C580F0B583B039E0042200E00022B0
:1018E800AA403A4302345E4D45F824205D4A146804
:1018F800F24302EA04054F6817F4803F01D046EA34
:101908000405584C2560646802EA04054F6817F41A
:10191800003F01D046EA0405524C6560A46802EA1B
:1019280004054F6817F4801F01D046EA04054D4CA2
:10193800A560E46822404D6815F4001F01D046EA0E
:101948000402484CE26001330F2B00F2868001222A
:101958009A400C6804EA0206B242F4D14C68651E4B
:10196800012D03D9112C01D0122C12D185685F00EA
:101978000324BC4025EA0405CC68BC402C438460A1
:10198800456825EA02054C68C4F300129A402A43C8
:101998004260C4685F000322BA40D24314408D6895
:1019A800BD402543C5604C68022C01D0122C13D1D0
:1019B800DD08083550F825E003F007044FEA840CE9
:1019C8000F2404FA0CF42EEA040E0C6904FA0CF441
:1019D80044EA0E0440F82540046822404C6804F0AC
:1019E8000304BC40224302604A6812F0805FAAD018
:1019F800002201921C4A546C44F480445464526C92
:101A080002F480420192019A9C08A51C144A52F8DB
:101A1800257003F0030295000F22AA4027EA020767
:101A2800124A90423FF45BAF02F5806290420ED0BA
:101A380002F5806290420CD002F5806290420AD092
:101A480002F5806290423FF448AF072248E701223E
:101A580046E7022244E7032242E703B0F0BD70479D
:101A680000380140003C01400038024000000240BC
:101A780012B909048161704781617047436931EA8D
:101A8800030301D081617047090481617047000038
:101A9800002800F0E48170B582B00446036813F0B2
:101AA800010F3BD0A74B9B6803F00C03042B2CD0F1
:101AB800A44B9B6803F00C03082B21D06368B3F593
:101AC800803F4FD0B3F5A02F52D09E4B1A6822F416
:101AD80080321A601A6822F480221A606368002B28
:101AE80050D0FFF7DDF90546964B1B6813F4003F0D
:101AF80014D1FFF7D5F9401B6428F5D90320B3E1C9
:101B0800904B5B6813F4800FD8D08E4B1B6813F48E
:101B1800003F03D06368002B00F0A381236813F013
:101B2800020F55D0874B9B6813F00C0F3ED0854BA6
:101B38009B6803F00C03082B33D0E368002B68D0B4
:101B4800814B01221A60FFF7ABF905467D4B1B68F4
:101B580013F0020F54D1FFF7A3F9401B0228F5D95F
:101B6800032081E1774A136843F480331360B5E7B3
:101B7800744B1A6842F480221A601A6842F4803260
:101B88001A60ABE7FFF78CF905466E4B1B6813F438
:101B9800003FC3D0FFF784F9401B6428F5D9032020
:101BA80062E1684B5B6813F4800FC6D1654B1B6814
:101BB80013F0020F04D0E368012B01D0012053E198
:101BC800604A136823F0F803216943EAC1031360EC
:101BD800236813F0080F40D0636963B35B4B01229D
:101BE8001A60FFF75DF90546564B5B6F13F0020F5D
:101BF80033D1FFF755F9401B0228F5D9032033E10B
:101C0800504A136823F0F803216943EAC1031360BB
:101C1800DEE74D4B00221A60FFF742F90546494BB3
:101C28001B6813F0020FD3D0FFF73AF9401B0228C4
:101C3800F5D9032018E1454B00221A60FFF730F967
:101C48000546404B5B6F13F0020F06D0FFF728F9EB
:101C5800401B0228F5D9032006E1236813F0040F7E
:101C680079D0384B1B6C13F0805F33D1002301937C
:101C7800344B1A6C42F080521A641B6C03F0805388
:101C88000193019B0125324B1B6813F4807F23D0FD
:101C9800A368012B34D0052B38D02A4B1A6F22F0B9
:101CA80001021A671A6F22F004021A67A368002B50
:101CB80036D0FFF7F5F80646224B1B6F13F0020FDC
:101CC80048D1FFF7EDF8801B41F288339842F3D9E9
:101CD8000320C9E00025D6E71D4A136843F4807342
:101CE8001360FFF7DDF80646194B1B6813F4807F75
:101CF800CED1FFF7D5F8801B0228F5D90320B3E031
:101D0800104A136F43F001031367CFE70D4B1A6FA7
:101D180042F004021A671A6F42F001021A67C5E717
:101D2800FFF7BEF80646074B1B6F13F0020F11D0E2
:101D3800FFF7B6F8801B41F288339842F3D90320A5
:101D480092E000BF0038024000004742800E474240
:101D580000700040EDB9A369002B00F08480454A6B
:101D6800926802F00C02082A51D0022B17D0424B7D
:101D780000221A60FFF794F804463E4B1B6813F0E4
:101D8800007F42D0FFF78CF8001B0228F5D903200A
:101D98006AE0384A136C23F080531364DBE7364B50
:101DA80000221A60FFF77CF80546324B1B6813F0D7
:101DB800007F06D0FFF774F8401B0228F5D90320EE
:101DC80052E0E369226A1343626A43EA8213A26A11
:101DD8005208013A43EA0243E26A43EA0263254AA7
:101DE8005360254B01221A60FFF75AF80446214B2D
:101DF8001B6813F0007F06D1FFF752F8001B02287A
:101E0800F5D9032030E000202EE000202CE0012B43
:101E18002CD0184B5B6803F48001E269914201D031
:101E2800012021E003F03F02216A8A4201D001200B
:101E38001AE0616A47F6C0721A408A4201D001204E
:101E480012E003F44032A16A8A4201D001200BE07B
:101E580003F07063E26A93420AD0012004E0012093
:101E68007047012000E0002002B070BD0120FBE7B0
:101E78000020F9E70038024060004742324B9B6877
:101E880003F00C03042B5CD0082B01D02F487047BB
:101E98002DE9F04B2C4B5A6802F03F025B6813F4B3
:101EA800800F2BD0284B5B68C3F388131E4600278E
:101EB8005C010025E41A65EB0705A90141EA946174
:101EC800A001001B61EB0501CB0043EA5073C4007D
:101ED800A01943EB07014B0243EAD05344022046C2
:101EE80019460023FEF712FE174B5B68C3F3014344
:101EF80001335B00B0FBF3F0BDE8F08B124B5B687D
:101F0800C3F388131E4600275C010025E41A65EB1D
:101F18000705A90141EA9461A001001B61EB0501D5
:101F2800CB0043EA5073C400A01943EB07018B02AE
:101F380043EA90538402204619460023FEF7E6FD43
:101F4800D2E70348704700BF003802400024F4007D
:101F580000127A00002800F09E8070B50446504BAD
:101F68001B6803F00F038B4209D2CBB24C4A1370A3
:101F7800136803F00F038B4201D0012070BD236862
:101F880013F0020F17D013F0040F04D0454A9368DA
:101F980043F4E0539360236813F0080F04D0414AD8
:101FA800936843F4604393603E4A936823F0F003D8
:101FB800A068034393600D46236813F0010F32D0E5
:101FC8006368012B21D09A1E012A25D9354A126847
:101FD80012F0020F61D033498A6822F003021343DA
:101FE8008B60FEF75DFF06462E4B9B6803F00C03E3
:101FF8006268B3EB820F16D0FEF752FF801B41F2E6
:1020080088339842F0D90320B8E7264A126812F4B8
:10201800003FE0D10120B1E7224A126812F0007FA8
:10202800D9D10120AAE71E4B1B6803F00F03AB426E
:1020380009D9EAB21A4B1A701B6803F00F03AB42B6
:1020480001D001209AE7236813F0040F06D0154A3F
:10205800936823F4E053E1680B439360236813F01B
:10206800080F07D00F4A936823F46043216943EAB5
:10207800C1039360FFF702FF0A4B9B68C3F3031386
:10208800094AD35CD840094B1860094B1868FEF719
:10209800BDFE002072E70120704701206EE700BFF7
:1020A800003C024000380240183F00081800002099
:1020B80004000020014B1868704700BF180000207A
:1020C80008B5FFF7F7FF044B9B68C3F38223034A65
:1020D800D35CD84008BD00BF00380240283F000844
:1020E80008B5FFF7E7FF044B9B68C3F34233034A85
:1020F800D35CD84008BD00BF00380240283F000824
:1021080010B4036A046A24F001040462846924F0A8
:10211800F00444EA021223F00A030B4382610362CB
:102128005DF8044B704710B4036A23F01003036290
:102138008469036A24F4704444EA023223F0A00359
:1021480043EA0113826103625DF8044B70478368B8
:1021580023F07003194341F007018160704702239F
:1021680080F83D300268936803F00703062B03D01C
:10217800136843F001031360012380F83D30002009
:10218800704700000368254A90420ED0B0F1804F96
:102198000BD0A2F57C42904207D002F580629042B3
:1021A80003D002F58062904203D123F070034A689D
:1021B80013431A4A90421AD0B0F1804F17D0A2F5B3
:1021C8007C42904213D002F5806290420FD002F513
:1021D800806290420BD002F59A32904207D002F505
:1021E8008062904203D002F58062904203D123F4CA
:1021F8004073CA68134323F080034A69134303609A
:102208008B68C3620B688362044B984202D0012337
:10221800436170470B690363F9E700BF00000140A1
:10222800A8B110B5044690F83D305BB1022384F89C
:102238003D30211D2068FFF7A5FF012384F83D30BC
:10224800002010BD80F83C3001F07CFDEEE7012055
:10225800704710B4846824F47F4442EA03230B4394
:10226800234383605DF8044B704790F83C30012BA2
:1022780066D010B50446012380F83C30022380F86C
:102288003D300268936823F47F4323F0770393601B
:102298000B68402B4AD013D9602B3DD01ED9702B28
:1022A80028D0B3F5005F30D1CB684A6889680068E8
:1022B800FFF7CFFF2268936843F48043936024E0DC
:1022C800102B06D004D9202B03D0302B01D01CE0D2
:1022D800DBB919462068FFF73AFF16E0502B14D1F6
:1022E800CA6849680068FFF70BFF50212068FFF7AC
:1022F8002EFF0AE0CB684A6889680068FFF7A9FFE3
:102308002268936843F077039360012384F83D3093
:10231800002084F83C0010BDCA6849680068FFF7CF
:1023280002FF60212068FFF712FFEEE7CA684968DC
:102338000068FFF7E5FE40212068FFF708FFE4E7A3
:102348000220704790F83C30012B33D030B4012381
:1023580080F83C30022380F83D3003685C689D6853
:1023680024F070040A6822435A600368124A9342B0
:1023780012D0B3F1804F0FD0A2F57C4293420BD01C
:1023880002F58062934207D002F58062934203D03F
:1023980002F59A32934204D125F080054A68154324
:1023A8009D60012380F83D30002380F83C301846BA
:1023B80030BC704702207047000001400268D368B3
:1023C80023F49073D3600268536923F001035361C7
:1023D800202380F83A30704790F83930DBB2212B4F
:1023E8002AD18368B3F5805F16D0036A5A1C02624B
:1023F8001A7803685A60C38C013B9BB2C384EBB95B
:102408000268D36823F08003D3600268D36843F07E
:102418004003D36000207047036A1B880268C3F337
:102428000803536003691BB9036A02330362E2E7D6
:10243800036A01330362DEE7022070470020704719
:102448002DE9F04B04460268136923F44053C16830
:102458000B43136183680269134342691343C269DA
:102468001A430168CB6823F4164323F00C03134383
:10247800CB600268536923F4407381690B4353614D
:10248800C369B3F5004F3BD00368714A934200F02B
:10249800AB8002F58062934200F0A680FFF710FE41
:1024A8004FF00009061849EB090716EB000B47EB3C
:1024B800090C4FEACC0343EA5B734FEACB0293461D
:1024C8009C4663689A009B0F10EB0B0049EB0C01CC
:1024D800FEF71CFB5F4DA5FB00325109642202FB8D
:1024E800110213013233A5FB03235B0903F0F00249
:1024F80002EB011203F00F03216813448B60A4E080
:102508000368534A934239D002F58062934235D02A
:10251800FFF7D6FD83464FF0000C06184CEB0C076E
:1025280016EB000847EB0C094FEAC90343EA587356
:102538004FEAC8029046994662680021921841EB1A
:1025480001031BEB08004CEB0901FEF7DFFA414DD4
:10255800A5FB00325109642202FB1102D300323379
:10256800A5FB03235B095A0002F4F87202EB01127F
:1025780003F00703216813448B6066E0FFF7B0FDA2
:1025880080464FF00009061849EB090716EB000BC7
:1025980047EB090C4FEACC0343EA5B734FEACB02E3
:1025A80093469C4662680021921841EB010318EBA0
:1025B8000B0049EB0C01FEF7A9FA264DA5FB0032EA
:1025C8005109642202FB1102D3003233A5FB032315
:1025D8005B095A0002F4F87202EB011203F00703D8
:1025E800216813448B6030E0FFF77AFD4FF0000953
:1025F800061849EB090716EB000B47EB090C4FEAE5
:10260800CC0343EA5B734FEACB0293469C4663686C
:102618009A009B0F10EB0B0049EB0C01FEF776FAC2
:102628000C4DA5FB00325109642202FB1102130173
:102638003233A5FB03235B0903F0F00202EB01121E
:1026480003F00F03216813448B60BDE8F08B00BFD3
:10265800001001401F85EB512DE9F04105460F465A
:1026680016469846069C2B681B6837EA03030CBF7E
:1026780001230023B3421DD1B4F1FF3FF3D02CB1A5
:10268800FEF70EFCA0EB0800A042ECD92A68D3683C
:1026980023F4D073D3602A68536923F0010353618C
:1026A800202385F8393085F83A30002385F838300A
:1026B800032000E00020BDE8F08158B310B50446BF
:1026C80090F839300BB3242384F839302268D36862
:1026D80023F40053D3602046FFF7B2FE2268136943
:1026E80023F4904313612268536923F02A0353614A
:1026F8002268D36843F40053D3600020E0632023AA
:1027080084F8393084F83A3010BD80F8383001F058
:102718002FFBD8E7012070472DE9F04383B01E4610
:1027280090F83930DBB2202B56D104460D4690463E
:10273800002956D0002A56D090F83830012B54D0B2
:10274800012380F838304FF00009C0F83C9021236D
:1027580080F83930FEF7A4FB0746A4F82480A4F8D3
:10276800268084F8389010E000963B4600228021AD
:102778002046FFF771FF002839D12B882268C3F360
:10278800080353602369C3B90235E38C9BB2B3B124
:10279800E38C013B9BB2E384A368B3F5805FE3D08D
:1027A80000963B46002280212046FFF755FF00BBDC
:1027B8002A7823685A600135E7E70135E5E700968E
:1027C8003B46002240212046FFF746FF034690B9CA
:1027D800202284F8392000E00223184603B0BDE81F
:1027E800F0830123F9E70123F7E70223F5E7032341
:1027F800F3E70323F1E70323EFE790F83A30DBB27E
:10280800202B20D109B312B390F83830012B20D0F7
:1028180081628285C2850023C363222280F83A2020
:1028280080F838300168CA6842F48072CA6001686A
:102838004A6942F001024A610168CA6842F020020E
:10284800CA6018467047022070470120704701206F
:10285800704702207047704708B50168CB6823F0BD
:102868004003CB60202380F83930FFF7F4FF0020C5
:1028780008BD08B590F83A30DBB2222B45D1836801
:10288800B3F5805F0ED0036903BB03685A68836A97
:10289800591C81621A70C38D013B9BB2C385F3B189
:1028A800002033E0826A036943B903685B68C3F3B5
:1028B80008031380836A02338362ECE703685B686A
:1028C800DBB21380836A01338362E4E703685B68E1
:1028D800826A511C816203F07F031370DBE7026890
:1028E800D36823F02003D3600268D36823F480738D
:1028F800D3600268536923F001035361202380F8F1
:102908003A3001F09BF9002000E0022008BD704732
:1029180010B5044602681368D168526913F00F00B5
:1029280005D113F0200F02D011F0200F56D1002846
:102938006AD012F0010202D111F4907F64D013F032
:10294800010F06D011F4807F03D0E06B40F0010046
:10295800E06313F0040F04D01AB1E06B40F00200FA
:10296800E06313F0020F04D01AB1E06B40F00400EA
:10297800E06313F0080F07D011F0200F00D11AB14F
:10298800E26B42F00802E263E26B002A48D013F0DF
:10299800200F02D011F0200F24D123685B6903F0C7
:1029A8004003E26B12F0080F00D13BB32046FFF75B
:1029B80005FD23685A6912F0400F1BD05A6922F0AE
:1029C80040025A61636B8BB11A4A1A65606BFEF755
:1029D8007CFE28B3606B036D984721E02046FFF723
:1029E80048FF1DE02046FFF744FFD6E72046FFF7E3
:1029F8008EFF15E02046FFF78AFF11E02046FFF71B
:102A080086FF0023E3630BE013F0800F02D011F080
:102A1800800F06D113F0400F02D011F0400F04D1FF
:102A280010BD2046FFF7D8FCFAE72046FFF714FF51
:102A3800F6E700BF412A000808B5806B0023C3856C
:102A4800C384FFF764FF08BD244B00221A605A6054
:102A58009A60DA601A615A619A61DA611A625A6296
:102A68009A62DA621A865A869A86DA861A875A87A4
:102A78009A87DA87A3F84020A3F8422083F84420F5
:102A8800174901200870A3F8462010E0134B0022D4
:102A9800A3F86823A3F88826A3F8A829A3F8C82CC4
:102AA800A3F8E82F41F208301A52013199610B4B13
:102AB8009969B1F5C77FE9D90AE00A4A02EB8302AE
:102AC8000021C2F81012C2F830120133034A5361D0
:102AD800024B5B69072BF0D9704700BF3800002014
:102AE80008000020301100202DE9F04F87B0B14BCD
:102AF800DB69B3F5C87FC0F01581AE4B00225A617F
:102B08001EE0581CAB4901EB4002B2F8484001EB0B
:102B18004303A3F84840B2F86843A3F86843B2F8FF
:102B28008846A3F88846B2F8A849A3F8A849B2F895
:102B3800C84CA3F8C84CB2F8E82FA3F8E82F4861AE
:102B48009C4B5B69B3F5C77FDBD99A4B40F28F1278
:102B5800DA62984AD46ABCEEC00A10EE103A9BB208
:102B680002EB4402A2F84830A2F86833002C0BDDCF
:102B7800621E904901EB4202B2F8682301EB44015E
:102B880003EB4203A1F86833012C0CDDA21E894B2C
:102B980003EB4202B2F8681303EB4403B3F868236B
:102BA800521AA3F86823052C0DDDA21F814B03EBF5
:102BB8004202B2F8481003EB4403B3F86823A2EBCF
:102BC8004102A3F868230B2C0DDDA4F10C02794B0C
:102BD80003EB4202B2F8482003EB4403B3F868134E
:102BE8000A44A3F86823734A02EB4402B2F8683334
:102BF8005B429BB2A2F88836002C0ADD621E6D4942
:102C080001EB4202B2F8882601EB44011344A1F813
:102C180088360F2C0EDDA4F11002664B03EB42023E
:102C2800B2F8681303EB4403B3F8882602EB4112A9
:102C3800A3F88826102C0EDDA4F111025D4B03EBDE
:102C48004202B2F8681303EB4403B3F88826A2EBF8
:102C58004112A3F888261F2C0DDDA4F12002554B44
:102C680003EB4202B2F8682303EB4403B3F8881677
:102C78000A44A3F888264F4A02EB4403B3F888961F
:102C88004FEA49039BB2A2F84630002C08DD621EC9
:102C9800484901EB4202B2F888261344A1F84630AD
:102CA800022C0ADDE31E434A02EB4303B3F88816FD
:102CB800B2F846305B1AA2F84630032C0BDD231F0E
:102CC8003C4A02EB4303B3F88816B2F84630A3EB4C
:102CD8004103A2F84630374AB2F84630DB08A2F87A
:102CE800463013FB03F302EB4401A1F8A839002393
:102CF800A1F8C83C53612F4B5B69132B15D89AB2C6
:102D0800944212DBE11A2B4A02EB4101B1F8A819EF
:102D180002EB4400B0F8C85C2944A0F8C81C013391
:102D28005361E8E7234AD36213E79BB2214A02EBD7
:102D38004401B1F8C8ACBAFBF3FAA1F8C8AC002357
:102D480082F84430938E9A4502D2128F914504D36B
:102D5800184AA2F830A0A2F832909A45C0F0D4815F
:102D6800144B1B8F9945C0F0CF81124A136A03F1A7
:102D78003201D269914280F043815A339A4200F27B
:102D8800A1800C4B00229A62A4F10A029A6102E027
:102D98000133084A9361074B9B69A3420CD8054A43
:102DA80002EB4301B1F8A819926A9142F0D9014A9D
:102DB8009162EDE7380000208D4A536AD2F82880E6
:102DC800C3F34F03984540F29F811546108EFDF7D7
:102DD80051FB00224FF07F53FDF7B6FB06460F4626
:102DE800A88FFDF747FB0022824BFDF7ADFB02469B
:102DF8000B4630463946FDF7F1F9FDF767FE80B21C
:102E0800A887B5F840B0A0EB0B00FDF733FB002214
:102E1800794BFDF799FB06460F465846FDF72AFB06
:102E280032463B46FDF7DAF9FDF750FE80B2A88638
:102E3800FDF720FB0022714BFDF786FBFDF746FEF0
:102E4800E886688EFDF716FB00224FF07F53FDF7EA
:102E58007BFB06460F46E88FFDF70CFB0022654B0F
:102E6800FDF772FB02460B4630463946FDF7B6F9C8
:102E7800FDF72CFE80B2E887B5F842B0A0EB0B0056
:102E8800FDF7F8FA00225C4BFDF75EFB06460F469D
:102E98005846FDF7EFFA32463B46FDF79FF9FDF736
:102EA80015FE80B22887FDF7E5FA0022534BFDF79F
:102EB8004BFBFDF70BFE6887C5F82480012385F8D6
:102EC800443021E14A4B00229A62A4F10A029A6135
:102ED80002E00133464A9361454B9B69A3420AD8F5
:102EE800434A02EB4301B1F8A819926A9142F0D91A
:102EF8003F4A9162EDE73E4D288EFDF7BBFA00226E
:102F08004FF07F53FDF720FB06460F46A88FFDF7CD
:102F1800B1FA0022374BFDF717FB02460B46304645
:102F28003946FDF75BF9FDF7D1FD80B2A887B5F802
:102F38004080A0EB0800FDF79DFA00222E4BFDF71C
:102F480003FB06460F464046FDF794FA32463B46D9
:102F5800FDF744F9FDF7BAFD80B2A886FDF78AFAB5
:102F68000022264BFDF7F0FAFDF7B0FDE886688EE3
:102F7800FDF780FA00224FF07F53FDF7E5FA064689
:102F88000F46E88FFDF776FA00221A4BFDF7DCFAB8
:102F980002460B4630463946FDF720F9FDF796FD07
:102FA80080B2E887B5F84280A0EB0800FDF762FA26
:102FB8000022114BFDF7C8FA06460F464046FDF7BA
:102FC80059FA32463B46FDF709F9FDF77FFD80B215
:102FD8002887FDF74FFA0022084BFDF7B5FAFDF7F1
:102FE80075FD6887AB6A6B62012385F844308BE016
:102FF800380000200000EC3F0000D03F0000E03F18
:10300800A74DA5F830A05046FDF734FA00224FF03E
:103018007F53FDF799FA06460F46B5F84000FDF7CD
:1030280029FA00229F4BFDF78FFA02460B463046DD
:103038003946FDF7D3F8FDF749FD1FFA80F8A5F8E2
:103048004080A88FA0EB0800FDF714FA0022964BE9
:10305800FDF77AFA06460F464046FDF70BFA324668
:103068003B46FDF7BBF8FDF731FD80B2A886FDF7BA
:1030780001FA00228D4BFDF767FAFDF727FDE88678
:10308800A5F832904846FDF7F5F900224FF07F5336
:10309800FDF75AFA06460F46B5F84200FDF7EAF979
:1030A8000022804BFDF750FA02460B46304639465F
:1030B800FDF794F8FDF70AFD1FFA80F8A5F842809D
:1030C800E88FA0EB0800FDF7D5F90022764BFDF755
:1030D8003BFA06460F464046FDF7CCF932463B46DA
:1030E800FDF77CF8FDF7F2FC80B22887FDF7C2F9FE
:1030F80000226E4BFDF728FAFDF7E8FC688705EB20
:1031080044050023A5F8E83F654B93F84430002BAD
:1031180000F09280624B00221A605A610EE0511C46
:10312800634B03EB8100D0F8100203EB8203C3F872
:1031380010025B4B1A6802441A605961584B5A696D
:10314800062AECD91E46DB69346A1C1B584AC2F8A9
:103158002C42336230682044FDF78CF900224FF08E
:103168007F53FDF7F1F9FDF789FC05463060B36838
:103178009C4249DBF3689C4246DC00227260726123
:103188000EE0511C4A4B03EB8100D0F8300203EBF0
:103198008203C3F83002424B5A6802445A605961AC
:1031A8003F4B5A69062AECD9414BC3F84C423C4E76
:1031B80070682044FDF75EF900224FF07F53FDF759
:1031C800C3F9FDF75BFC7060FDF754F9804689464A
:1031D8002DA3D3E90023FDF7B7F9FDF74FFCB06045
:1031E8002BA3D3E9002340464946FDF7ADF9FDF787
:1031F80045FCF06028A3D3E9002340464946FDF783
:10320800A3F9FDF73BFC30612A4B1A78244B5B6825
:103218009D420DD0274B00211970002A00F06682CC
:103228001F4B9A8E52089A861A8F52081A875DE2A7
:10323800204B01221A7059E2194BDF69196A04916F
:103248007A1A1B699A4240F2C8810B4632339F4270
:1032580040F2C381CB1BA04623443233104A53614A
:10326800059453E001330E4A93610D4B9B69AB42C1
:1032780022D80B4A02EB4301B1F8A819926A91428D
:10328800F0D9074A9162EDE7713D0AD7A370ED3F87
:103298008FC2F5285C8FF23F8FC2F5285C8FFA3F0A
:1032A800380000200000EC3F0000D03F0000E03F65
:1032B8003011002008000020B94A536A946AC3F309
:1032C8004F039C423CD27819FDF7C4F8CDE90001C0
:1032D8000498FDF7BFF8CDE90201A9A3D3E90023BB
:1032E800FDF732F902460B46DDE90201FCF776FFED
:1032F80002460B46DDE90001FDF798FB00B3A84B39
:10330800002283F844200135A54B5D61A44B5D691B
:10331800A84540F25181A24B03EB4502B2F8C8BC64
:10332800DB8E9B45EFD99E4BB2F888665B8F9E4239
:10333800E9D99B4B00229A62A5F10A029A6194E7A7
:103348000094059C964BA3F830B05E865846FDF76E
:1033580091F80022934BFDF7F7F8CDE90201904B65
:10336800988FFDF787F800228F4BFDF7EDF802469E
:103378000B46DDE90201FCF731FFFDF7A7FB1FFA59
:1033880080FB874BA3F83CB03046FDF773F800226A
:10339800844BFDF7D9F8CDE90201814B1E46D88F41
:1033A800FDF768F80022804BFDF7CEF802460B4681
:1033B800DDE90201FCF712FFFDF788FB1FFA80F830
:1033C800A6F83E80B6F84060ABEB0600FDF752F871
:1033D8000022744BFDF7B8F8CDE902013046FDF73D
:1033E80049F8DDE90223FCF7F9FEFDF76FFB80B22F
:1033F80083466B4B1E469886FDF73CF800226B4BC4
:10340800FDF7A2F8FDF762FBF086009A7262B6F843
:103418004260A8EB0600FDF72DF80022614BFDF78E
:1034280093F8CDE900013046FDF724F8DDE90023E3
:10343800FCF7D4FEFDF74AFB80B20090584B1E46BD
:103448001887FDF717F80022584BFDF77DF8FDF7B0
:103458003DFB708700233360B3610EE0511C544B71
:1034680003EB8100D0F8100203EB8203C3F81002CB
:103478004B4B1A6802441A609961494B9A69062AAB
:10348800ECD92D1B3D44049BA5EB0308484BC3F81E
:103498002C82434E012386F844303562306840441C
:1034A800FCF7E8FF00224FF07F53FDF74DF8FDF7DA
:1034B800E5FA05463060B368984549DBF3689845F6
:1034C80046DC0022726072610EE0511C384B03EB3F
:1034D8008100D0F8300203EB8203C3F83002304B8E
:1034E8005A6802445A6059612D4B5A69062AECD928
:1034F8002F4BC3F84C822A4E70684044FCF7BAFF41
:1035080000224FF07F53FDF71FF8FDF7B7FA706000
:10351800FCF7B0FF074688461BA3D3E90023FDF755
:1035280013F8FDF7ABFAB06019A3D3E900233846C6
:103538004146FDF709F8FDF7A1FAF06016A3D3E9B3
:10354800002338464146FCF7FFFFFDF797FA306144
:10355800184B1A78124B5B689D420CD0154B002112
:10356800197052B30E4B4FEA5B0BA3F834B0009AB4
:1035780057081F8721E00F4B01221A701DE000BF7A
:103588000AD7A3703D0AD73F713D0AD7A370ED3F14
:103598008FC2F5285C8FF23F8FC2F5285C8FFA3F07
:1035A800380000200000D03F0000E83F0000E03F66
:1035B8003011002008000020059C544B93F844303B
:1035C8005BB1524B03EB44040022A4F8E82F5A697C
:1035D80003EB42030122A3F8E82F4C4B93F8443045
:1035E800002B40F08380494B9B8E9A4503D2474B72
:1035F8001B8F99457AD3454CA4F830A05046FCF768
:1036080039FF00224FF07F53FCF79EFF06460F4616
:10361800B4F84000FCF72EFF00223D4BFCF794FF66
:1036280002460B4630463946FCF7D8FDFDF74EFA00
:1036380085B2A4F84050A08F401BFCF71BFF002266
:10364800344BFCF781FF06460F462846FCF712FF6D
:1036580032463B46FCF7C2FDFDF738FA80B2A08639
:10366800FCF708FF00222C4BFCF76EFFFDF72EFA43
:10367800E086A4F832904846FCF7FCFE00224FF0A2
:103688007F53FCF761FF06460F46B4F84200FCF78B
:10369800F1FE00221E4BFCF757FF02460B46304650
:1036A8003946FCF79BFDFDF711FA85B2A4F84250A4
:1036B800E08F401BFCF7DEFE0022164BFCF744FFB0
:1036C80006460F462846FCF7D5FE32463B46FCF731
:1036D80085FDFDF7FBF980B22087FCF7CBFE0022C1
:1036E8000D4BFCF731FFFDF7F1F96087074B93F8B5
:1036F8004420D96A03EB4103A3F8E82F07EE902A88
:10370800B8EE670A07B0BDE8F08F00BF38000020A8
:103718000000EC3F0000D03F0000E03F30B41C4602
:10372800DBB92D4B01251D60B0F5487F05DAB1F5F1
:10373800487F02DAB2F5487F04DB43181344B3F537
:10374800E16F02DA244B05251D60B1F5167F0ADA10
:10375800914208DA204B05251D60012C03D01E4B31
:10376800186830BC704707EE901AF8EEE76A07EE63
:10377800900AF8EEE77A194B93ED007A27EE877AEC
:10378800F4EEC76AF1EE10FA13D507EE102AB8EE78
:10379800C77A93ED016A27EE067AF4EEC77AF1EE5E
:1037A80010FA06D51144B1EB400F10DA0A4B022289
:1037B8001A600A4B93ED027A67EE877AF4EEE76AAD
:1037C800F1EE10FACBDD044B04221A60C7E7024B76
:1037D80003221A60EDE700BF881300200C000020C8
:1037E80030B589B000240394049405940694079492
:1037F8000194134B1A6B42F080021A631A6B02F0A1
:1038080080020192019A02941A6B42F001021A6333
:103818001B6B03F001030293029B0A4D22462021F1
:103828002846FEF725F920230393012304930594E2
:10383800069403A92846FEF749F809B030BD00BF31
:10384800003802400000024000B583B00021019119
:10385800094B1A6B42F480021A631B6B03F4800352
:103868000193019B0A463820FDF7C0FD3820FDF77B
:10387800F1FD03B05DF804FB0038024070B584B078
:1038880000250095019502950395114C114B236075
:103898004FF480336360A5602561257684F8205055
:1038A8004FF08053E3624FF0C063A362E5600126E6
:1038B800E66184F8306066612046FDF7A5FB009656
:1038C8000196029569462046FDF7B6FC04B070BD26
:1038D800901300200020014008B50848084B0360F9
:1038E8004FF41653436000238360C36003610C22C6
:1038F80042618361C361FEF7E0FE08BDD813002072
:103908000010014030B587B0002402940394049459
:103918000594009401940F4D4FF080432B6042F2C0
:10392800CF036B60AC602823EB602C61AC61284648
:10393800FEF776FC4FF48053029302A92846FEF75F
:1039480094FC20230093019469462846FEF7FAFC6C
:1039580007B030BDBC14002010B504464FF47A708F
:10396800FDF7A4FA6423032206492046FEF7D4FE95
:103978006420FDF79BFA64230F2203492046FEF7D3
:10398800CBFE10BD303F0008343F000830B595B07D
:103998003022002108A800F0A3FA0024039404941C
:1039A80005940694079401941B4B1A6C42F08052BC
:1039B8001A641B6C03F080530193019B0294174A0D
:1039C800136823F4404343F400431360136803F47B
:1039D80040430293029B0225089501230B93102371
:1039E8000C930E950F94082310935423119312955A
:1039F8000423139308A8FEF74BF80F2303930495A9
:103A080005944FF4805306930794294603A8FEF7BC
:103A1800A1FA15B030BD00BF003802400070004068
:103A28002DE9F04184B00024764B1C70FDF712FAA2
:103A3800FFF7ACFFFFF7D4FEFFF706FFFFF71EFF07
:103A4800FFF74AFFFFF75EFF20226F496F48FDF737
:103A580007FB6F48FEF783FB6E4D01226E4928462F
:103A6800FEF7CBFE2846FFF777FFFEF7EDFF019440
:103A7800029403942746A04626465EE02021674824
:103A8800FDF7FCFF04EB840404AB03EB860343F867
:103A98000C4C022E1AD00136002401350F2D44DCBF
:103AA800594B33F8153000EE103AB8EE400AFFF7DC
:103AB8001BF8B5EE400AF1EE10FA14BF01230023FB
:103AC800574A1370002BD9D10134E6E7711EB01E96
:103AD80004AB03EB810151F80C3C04AA02EB800013
:103AE80040F80C3C02EB860353F80C2C41F80C2CE4
:103AF8004B4A127843F80C2C434651F80C1C50F8EA
:103B08000C0CFFF70BFE0446052803D00027B84627
:103B18003C46C2E728B90137042FBED14FF001084F
:103B2800BBE70027B8463C46B7E7364B00221A7079
:103B3800344B1B78DBB2022B5DD0324B1B78DBB2E7
:103B4800012BF5D10025A9E7013401351F2D54DCDF
:103B58002D4B33F8153000EE103AB8EE400AFEF758
:103B6800C3FFB5EE400AF1EE10FA14BF012300239B
:103B78002B4A1370002BE7D020212848FDF77EFF41
:103B880004EB840404AB03EB860343F80C4C022ECD
:103B980002D001360024D8E7711EB01E04AB03EB37
:103BA800810151F80C3C04AA02EB800040F80C3C5F
:103BB80002EB860353F80C2C41F80C2C184A1278A7
:103BC80043F80C2C434651F80C1C50F80C0CFFF72A
:103BD800A5FD0446052803D00027B8463C46B4E7AF
:103BE80028B90137042FB0D14FF00108ADE70027FD
:103BF800B8463C46A9E71025A8E7024B00221A70F0
:103C08009BE700BFB8140020181400209013002070
:103C1800BC140020D81300208D130020000002409F
:103C28008C130020014B01221A707047B814002031
:103C3800014B02221A707047B814002008B5054BD2
:103C4800834200D008BD012203491846FEF7D5FD7E
:103C5800F8E700BFD81300208D130020704700003C
:103C680082B0002100910B4B5A6C42F480425A6496
:103C78005A6C02F480420092009A01911A6C42F048
:103C880080521A641B6C03F080530193019B02B0AD
:103C9800704700BF0038024030B589B00023039355
:103CA8000493059306930793026803F1804303F591
:103CB80090339A4201D009B030BD044600250195E1
:103CC80003F58C335A6C42F480725A645A6C02F4CD
:103CD80080720192019A02951A6B42F001021A63EE
:103CE8001B6B03F001030293029B0223039303233C
:103CF800049303A91048FDF7E9FD1048104B036031
:103D080045608560C5604FF4806303614FF40063CC
:103D180043614FF4005383614FF48073C3610562BC
:103D28004562FDF737FC18B9044BA3639C63C2E7EF
:103D3800FFF794FFF8E700BF000002405814002086
:103D4800106402400368B3F1804F00D0704782B01E
:103D580000230193054B1A6C42F001021A641B6C94
:103D680003F001030193019B02B070470038024041
:103D780010B588B000230393049305930693079323
:103D8800026803F1804303F588339A4201D008B0F2
:103D980010BD0024019403F594335A6C42F01002CC
:103DA8005A645A6C02F010020192019A02941A6B3A
:103DB80042F001021A631B6B03F001030293029B9A
:103DC8004FF4C0630393022304930323069307234A
:103DD800079303A90548FDF779FD224621462520CA
:103DE800FDF704FB2520FDF735FBD0E70000024076
:103DF8007047FEE7FEE7FEE7FEE77047704770474B
:103E080008B5FDF741F808BD08B50248FEF780FD82
:103E180008BD00BFD813002008B50248FDF768FCAC
:103E280008BD00BF58140020054BD3F8882042F481
:103E38007002C3F888204FF000629A60704700BF94
:103E480000ED00E0DFF834D0002103E00C4B5B58B4
:103E5800435004310B480C4B42189A42F6D30B4A94
:103E680002E0002342F8043B094B9A42F9D3FFF7DA
:103E7800DBFF00F011F8FFF7D3FD70470080012049
:103E8800543F0008000000201C0000201C000020F7
:103E9800FC140020FEE7000070B50D4E0D4CA41B6D
:103EA800A4100025A54209D10B4E0C4C00F020F8B7
:103EB800A41BA4100025A54205D170BD56F82530D5
:103EC80098470135EEE756F8253098470135F2E76F
:103ED8004C3F00084C3F00084C3F0008503F00088A
:103EE80002440346934200D1704703F8011BF9E7E7
:103EF800F8B500BFF8BC08BC9E467047F8B500BFCF
:083F0800F8BC08BC9E4670479E
:103F10000006101600061016000000000000000049
:103F2000010203040607080900000000010203045F
:103F300041540A0041542B4E414D453D454B475F8E
:043F400042540A00DD
:083F440000CCFF7F010000002A
:043F4C00BD010008AB
:043F500099010008CB
:103F54000100000010000000010000006666663FDA
:0C3F64006666663F0000C03F0024F400C9
:0400000508003E4D64
:00000001FF
