:020000040800F2
:1000000000800120DD470008F1430008F3430008A9
:10001000F5430008F7430008F9430008000000001A
:10002000000000000000000000000000FB4300088A
:10003000FD43000800000000FF43000801440008E1
:100040002D4800082D4800082D4800082D480008BC
:100050002D4800082D4800082D4800082D480008AC
:100060002D4800082D4800082D4800082D4800089C
:100070002D4800082D4800082D4800082D4800088C
:100080002D4800082D4800082D48000800000000F9
:100090000000000000000000000000002D480008E3
:1000A0002D4800082D4800082D4800082D4800085C
:1000B0002D4800082D4800082D4800082D4800084C
:1000C0002D4800082D4800082D4800082D4800083C
:1000D0002D480008094400082D48000800000000D1
:1000E0002D4800082D4800082D4800080000000099
:1000F0000000000000000000000000002D48000883
:10010000000000002D4800082D4800082D48000878
:1001100000000000000000000000000000000000DF
:10012000194400082D4800082D4800082D480008F3
:100130002D48000800000000000000000000000042
:100140000000000000000000000000002D48000832
:100150002D4800082D4800082D4800082D480008AB
:100160002D4800082D480008000000000000000095
:10017000000000000000000000000000000000007F
:10018000000000002D4800080000000000000000F2
:040190002D480008EE
:1001980010B5054C237833B9044B13B10448AFF3B9
:1001A80000800123237010BD1C0000200000000007
:1001B8008848000808B5034B1BB103490348AFF34F
:1001C800008008BD000000002000002088480008CA
:1001D80081F0004102E000BF83F0004330B54FEAF0
:1001E80041044FEA430594EA050F08BF90EA020F5D
:1001F8001FBF54EA000C55EA020C7FEA645C7FEAF0
:10020800655C00F0E2804FEA5454D4EB5555B8BF12
:100218006D420CDD2C4480EA020281EA030382EA83
:10022800000083EA010180EA020281EA0303362D15
:1002380088BF30BD11F0004F4FEA01314FF4801CE8
:100248004CEA113102D0404261EB410113F0004FFA
:100258004FEA03334CEA133302D0524263EB4303B1
:1002680094EA050F00F0A780A4F10104D5F1200E4F
:100278000DDB02FA0EFC22FA05F2801841F10001AA
:1002880003FA0EF2801843FA05F359410EE0A5F17E
:1002980020050EF1200E012A03FA0EFC28BF4CF0AF
:1002A800020C43FA05F3C01851EBE37101F0004565
:1002B80007D54FF0000EDCF1000C7EEB00006EEB72
:1002C8000101B1F5801F1BD3B1F5001F0CD34908FC
:1002D8005FEA30004FEA3C0C04F101044FEA445253
:1002E80012F5800F80F09A80BCF1004F08BF5FEADA
:1002F800500C50F1000041EB045141EA050130BDBA
:100308005FEA4C0C404141EB010111F4801FA4F15C
:100318000104E9D191F0000F04BF01460020B1FAB1
:1003280081F308BF2033A3F10B03B3F120020CDAE9
:100338000C3208DD02F1140CC2F10C0201FA0CF0C7
:1003480021FA02F10CE002F11402D8BFC2F1200C2C
:1003580001FA02F120FA0CFCDCBF41EA0C019040E2
:10036800E41AA2BF01EB0451294330BD6FEA04042B
:100378001F3C1CDA0C340EDC04F11404C4F1200216
:1003880020FA04F001FA02F340EA030021FA04F328
:1003980045EA030130BDC4F10C04C4F1200220FA7F
:1003A80002F001FA04F340EA0300294630BD21FABD
:1003B80004F0294630BD94F0000F83F4801306BF83
:1003C80081F480110134013D4EE77FEA645C18BF77
:1003D8007FEA655C29D094EA050F08BF90EA020F0E
:1003E80005D054EA000C04BF1946104630BD91EA06
:1003F800030F1EBF0021002030BD5FEA545C05D109
:100408004000494128BF41F0004130BD14F5800447
:100418003CBF01F5801130BD01F0004545F0FE41BB
:1004280041F470014FF0000030BD7FEA645C1ABFF0
:10043800194610467FEA655C1CBF0B46024650EA27
:10044800013406BF52EA033591EA030F41F4002153
:1004580030BD00BF90F0000F04BF0021704730B5D9
:100468004FF4806404F132044FF000054FF00001AE
:1004780050E700BF90F0000F04BF0021704730B56F
:100488004FF4806404F1320410F0004548BF404244
:100498004FF000013EE700BF42004FEAE2014FEA99
:1004A80031014FEA02701FBF12F07F4393F07F4F74
:1004B80081F06051704732F07F4208BF704793F077
:1004C8007F4F04BF41F40021704730B54FF460748A
:1004D80001F0004521F000411CE700BF50EA01028D
:1004E80008BF704730B54FF000050AE050EA010236
:1004F80008BF704730B511F0004502D5404261EBA6
:1005080041014FF4806404F132045FEA915C3FF4E6
:10051800D8AE4FF003025FEADC0C18BF03325FEA83
:10052800DC0C18BF033202EBDC02C2F1200300FA34
:1005380003FC20FA02F001FA03FE40EA0E0021FA59
:1005480002F11444BDE600BF70B54FF0FF0C4CF447
:10055800E06C1CEA11541DBF1CEA135594EA0C0FF9
:1005680095EA0C0F00F0DEF82C4481EA030621EA34
:100578004C5123EA4C5350EA013518BF52EA03356F
:1005880041F4801143F4801338D0A0FB02CE4FF021
:100598000005E1FB02E506F00042E0FB03E54FF051
:1005A8000006E1FB03569CF0000F18BF4EF0010E49
:1005B800A4F1FF04B6F5007F64F5407404D25FEA45
:1005C8004E0E6D4146EB060642EAC62141EA5551F8
:1005D8004FEAC52040EA5E504FEACE2EB4F1FD0C3A
:1005E80088BFBCF5E06F1ED8BEF1004F08BF5FEAB8
:1005F800500E50F1000041EB045170BD06F000466A
:1006080046EA010140EA020081EA0301B4EB5C0416
:10061800C2BFD4EB0C0541EA045170BD41F480110E
:100628004FF0000E013C00F3AB8014F1360FDEBF33
:10063800002001F0004170BDC4F10004203C35DA0F
:100648000C341BDC04F11404C4F1200500FA05F392
:1006580020FA04F001FA05F240EA020001F0004233
:1006680021F0004110EBD37021FA04F642EB0601A9
:100678005EEA430E08BF20EAD37070BDC4F10C04D3
:10068800C4F1200500FA04F320FA05F001FA04F297
:1006980040EA020001F0004110EBD37041F1000183
:1006A8005EEA430E08BF20EAD37070BDC4F120058E
:1006B80000FA05F24EEA020E20FA04F301FA05F2F6
:1006C80043EA020321FA04F001F0004121FA04F29E
:1006D80020EA020000EBD3705EEA430E08BF20EA6E
:1006E800D37070BD94F0000F0FD101F000464000A8
:1006F80041EB010111F4801F08BF013CF7D041EA2A
:10070800060195F0000F18BF704703F0004652002D
:1007180043EB030313F4801F08BF013DF7D043EAFE
:100728000603704794EA0C0F0CEA135518BF95EAB4
:100738000C0F0CD050EA410618BF52EA4306D1D13B
:1007480081EA030101F000414FF0000070BD50EA5A
:10075800410606BF1046194652EA430619D094EAE4
:100768000C0F02D150EA013613D195EA0C0F05D1CE
:1007780052EA03361CBF104619460AD181EA030122
:1007880001F0004141F0FE4141F470014FF00000DA
:1007980070BD41F0FE4141F4780170BD70B54FF075
:1007A800FF0C4CF4E06C1CEA11541DBF1CEA1355F5
:1007B80094EA0C0F95EA0C0F00F0A7F8A4EB0504D7
:1007C80081EA030E52EA03354FEA013100F08880CE
:1007D8004FEA03334FF0805545EA131343EA126397
:1007E8004FEA022245EA111545EA10654FEA00264C
:1007F8000EF000419D4208BF964244F1FD0404F505
:10080800407402D25B084FEA3202B61A65EB030560
:100818005B084FEA32024FF480104FF4002CB6EB1D
:10082800020E75EB030E22BFB61A754640EA0C009D
:100838005B084FEA3202B6EB020E75EB030E22BFDD
:10084800B61A754640EA5C005B084FEA3202B6EB1E
:10085800020E75EB030E22BFB61A754640EA9C00DD
:100868005B084FEA3202B6EB020E75EB030E22BFAD
:10087800B61A754640EADC0055EA060E18D04FEA6B
:10088800051545EA16754FEA06164FEAC30343EA0B
:1008980052734FEAC2025FEA1C1CC0D111F4801FD8
:1008A8000BD141EA00014FF000004FF0004CB6E7D1
:1008B80011F4801F04BF01430020B4F1FD0C88BF70
:1008C800BCF5E06F3FF6AFAEB5EB030C04BFB6EB7B
:1008D800020C5FEA500C50F1000041EB045170BD6E
:1008E8000EF0004E4EEA113114EB5C04C2BFD4EB9B
:1008F8000C0541EA045170BD41F480114FF0000E1F
:10090800013C90E645EA060E8DE60CEA135594EA9A
:100918000C0F08BF95EA0C0F3FF43BAF94EA0C0F9D
:100928000AD150EA01347FF434AF95EA0C0F7FF412
:1009380025AF104619462CE795EA0C0F06D152EA66
:1009480003353FF4FDAE1046194622E750EA41064A
:1009580018BF52EA43067FF4C5AE50EA41047FF45B
:100968000DAF52EA43057FF4EBAE12E74FF0FF3CC0
:1009780006E000BF4FF0010C02E000BF4FF0010C91
:100988004DF804CD4FEA410C7FEA6C5C4FEA430C0A
:1009980018BF7FEA6C5C1BD001B050EA410C0CBF59
:1009A80052EA430C91EA030F02BF90EA020F0020BB
:1009B800704710F1000F91EA030F58BF994208BF22
:1009C80090422CBFD8176FEAE37040F001007047DF
:1009D8004FEA410C7FEA6C5C02D150EA013C07D136
:1009E8004FEA430C7FEA6C5CD6D152EA033CD3D081
:1009F8005DF8040B704700BF8446104662468C467B
:100A08001946634600E000BF01B5FFF7B7FF0028AD
:100A180048BF10F1000F01BD4DF808EDFFF7F4FFD6
:100A28000CBF012000205DF808FB00BF4DF808ED61
:100A3800FFF7EAFF34BF012000205DF808FB00BF84
:100A48004DF808EDFFF7E0FF94BF012000205DF8A6
:100A580008FB00BF4DF808EDFFF7CEFF94BF01205B
:100A680000205DF808FB00BF4DF808EDFFF7C4FF54
:100A780034BF012000205DF808FB00BF4FEA4102A7
:100A880012F5001215D211D56FF47873B3EB6252D8
:100A980012D94FEAC12343F0004343EA505311F0FF
:100AA800004F23FA02F018BF404270474FF0000091
:100AB800704750EA013005D111F0004008BF6FF0CF
:100AC800004070474FF00000704700BF4A0011D245
:100AD80012F5001211D20DD56FF47873B3EB625290
:100AE8000ED44FEAC12343F0004343EA505323FA9C
:100AF80002F070474FF00000704750EA013002D111
:100B08004FF0FF3070474FF00000704753B94AB9B3
:100B1800002908BF00281CBF4FF0FF314FF0FF30FD
:100B280000F072B9ADF1080C6DE904CE00F006F8DA
:100B3800DDF804E0DDE9022304B070472DE9F04751
:100B4800089E04468846002B4BD18A42154667D931
:100B5800B2FA82F24AB1C2F1200701FA02F320FA8E
:100B680007F7954047EA030894404FEA154E230CCF
:100B7800B8FBFEF71FFA85FC0EFB178843EA08430B
:100B880007FB0CF1994209D9EB1807F1FF3080F007
:100B98001B81994240F21881023F2B445B1AA4B290
:100BA800B3FBFEF00EFB103344EA034400FB0CFCDD
:100BB800A44509D92C1900F1FF3380F00781A44519
:100BC80040F2048102382C4440EA0740A4EB0C04AC
:100BD80000271EB1D4400023C6E900433946BDE8CA
:100BE800F0878B4209D9002E00F0EB800027C6E978
:100BF800000138463946BDE8F087B3FA83F7002F7D
:100C080047D18B4202D3824200F2FA80841A61EB08
:100C1800030301209846002EE0D0C6E90048DDE72E
:100C280002B9FFDEB2FA82F2002A40F08F80491B37
:100C38004FEA154E1FFA85F80127B1FBFEFC230C7D
:100C48000EFB1C1143EA014308FB0CF1994207D93A
:100C5800EB180CF1FF3002D2994200F2CD808446A5
:100C6800591AA3B2B1FBFEF00EFB101443EA044478
:100C780008FB00F8A04507D92C1900F1FF3302D270
:100C8800A04500F2B6801846A4EB080440EA0C40E0
:100C98009FE7C7F1200CBB4022FA0CFE4EEA030E78
:100CA80001FA07F420FA0CF521FA0CF34FEA1E4872
:100CB8002543B3FBF8F92C0C08FB19331FFA8EFAFD
:100CC80044EA034309FB0AF49C4202FA07F200FAD9
:100CD80007F10BD91EEB030309F1FF3080F0878081
:100CE8009C4240F28480A9F1020973441B1BADB2F7
:100CF800B3FBF8F008FB103345EA034400FB0AFA9B
:100D0800A24508D91EEB040400F1FF336BD2A245BB
:100D180069D90238744440EA0940A0FB0289A4EB6F
:100D28000A044C45C2464B4654D351D0002E69D0D4
:100D3800B1EB0A0564EB030404FA0CFCFD40FC402B
:100D48004CEA0505C6E90054002747E7C2F120032D
:100D580020FA03F7954001FA02F021FA03F34FEA6B
:100D6800154E3843010CB3FBFEF71FFA85F80EFB4E
:100D7800173341EA034107FB08F38B4204FA02F4F4
:100D880007D9691807F1FF3C2FD28B422DD9023FB2
:100D98002944CB1A81B2B3FBFEF00EFB103341EAB3
:100DA800034100FB08F38B4207D9691800F1FF3CA7
:100DB80017D28B4215D902382944C91A40EA074785
:100DC8003BE73746304609E70746E7E61846FBE6BD
:100DD8004145ABD2B8EB020A69EB0E020138134663
:100DE800A4E76046E9E7184695E76746D1E78146F4
:100DF8007CE702382C4447E7ACF1020C2B442FE780
:100E0800384608E73746E9E6704700BF10B504469C
:100E18000E4B18784FF47A73B3FBF0F30C4A106852
:100E2800B0FBF3F000F024FB68B90F2C01D90120C6
:100E38000AE0002221464FF0FF3000F0D7FA034BBA
:100E48005C60002000E0012010BD00BF0000002011
:100E58001800002008B50B4B1A6842F400721A609B
:100E68001A6842F480621A601A6842F480721A6042
:100E7800032000F0A9FA0020FFF7C8FF03F098FA52
:100E8800002008BD003C0240034A1168034B1B7850
:100E98000B441360704700BF8C1300200000002033
:100EA800014B1868704700BF8C13002038B5044602
:100EB800FFF7F6FF0546B4F1FF3F02D0044B1B785D
:100EC8001C44FFF7EDFF401BA042FAD338BD00BF1A
:100ED800000000204A4B5A6822F440325A605A688F
:100EE80041680A435A600268536823F48073536068
:100EF80002685368016943EA012353600268536832
:100F080023F0407353600268536881680B43536051
:100F18000268936823F40063936002689368C16869
:100F28000B439360826A374B9A424BD002689368AE
:100F380023F07063936002689368816A0B4393603F
:100F48000268936823F04053936002689368C16A0B
:100F58000B4393600268936823F00203936002686E
:100F68009368017E43EA4103936090F82030002B98
:100F780033D10268536823F4006353600268D36A6C
:100F880023F47003D3620168CB6AC269013A43EA69
:100F98000253CB620268936823F40073936002687B
:100FA800936890F8301043EA41239360026893688D
:100FB80023F48063936002689368416943EA81235C
:100FC800936070470268936823F0706393600268C7
:100FD800936823F040539360BCE70268536843F476
:100FE800006353600268536823F4604353600168E8
:100FF8004B68426A013A43EA42334B60BEE700BF9E
:10100800002301400100000F38B310B50446036CFB
:1010180043B1236C13F0100F0BD00120002384F888
:101028003C3010BD02F0A4FE0023636484F83C3019
:10103800EFE7236C23F4885323F0020343F0020301
:1010480023642046FFF746FF00206064236C23F0EA
:10105800030343F001032364E0E701207047000025
:1010680030B583B00023019390F83C30012B00F099
:101078008180012380F83C300468A36813F0010FD5
:1010880013D1A36843F00103A3603F4B1C683F4B97
:10109800A3FB0434A40C04EB4404019402E0019C77
:1010A800013C0194019C002CF9D103689C6814F060
:1010B800010F61D0046C24F4E06424F0010444F4CA
:1010C800807404645B6813F4806F05D0036C23F4A8
:1010D800405343F480530364036C13F4805F36D0A9
:1010E800436C23F00603436413460446002280F849
:1010F8003C20826B2648D063A26B26481064A26B02
:101108002548D06422686FF022001060256868685E
:1011180040F0806068602568A86840F48070A86026
:1011280020680A4600F14C01A06B00F099FA1B4BAD
:101138005B6813F01F0F0DD123689A6812F0405FA7
:101148001DD19A6842F080429A60002015E0002381
:101158004364C9E72368124A934201D000200CE097
:101168009A6812F0405F0CD19A6842F080429A6007
:10117800002002E0022000E0002003B030BD002083
:10118800FBE70020F9E700BF1800002083DE1B43BF
:10119800CF110008AD110008B91100080023014063
:1011A8000020014008B5806B03F078F808BD70474F
:1011B80008B5806B40230364436C43F00403436425
:1011C800FFF7F5FF08BD08B5836B1A6C12F0500FD6
:1011D80026D11A6C42F400721A641A68916811F0E8
:1011E800405F19D1197EB9B9D16A11F4700F03D0D3
:1011F800916811F4806F0FD1516821F0200151607E
:101208001A6C22F480721A641A6C12F4805F03D18B
:101218001A6C42F001021A64184603F045F808BD3A
:101228001A6C12F0100F03D19B6BDB6C9847F6E732
:101238001846FFF7BCFFF2E730B482B000230193F1
:1012480090F83C30012B00F0B780012380F83C3047
:101258000B68092B3ED90568EA689BB203EB430388
:101268001E3B072404FA03F322EA0303EB60056834
:10127800EA688C680B8803EB43031E3B04FA03F30C
:101288001343EB604B68062B3AD805686A6B03EB8F
:101298008303053B1F2404FA03F322EA03036B6369
:1012A80005686A6B4B6803EB8303053B0C8804FAFB
:1012B80003F313436B630268404B9A4250D00268B1
:1012C8003E4B9A4255D0002380F83C30184602B075
:1012D80030BC704705682A699BB203EB43030724B7
:1012E80004FA03F322EA03032B6105682A698C6870
:1012F8000B8803EB430304FA03F313432B61C1E7A1
:101308000C2B16D805682A6B03EB8303233B1F2499
:1013180004FA03F322EA03032B6305682A6B4B687C
:1013280003EB8303233B0C8804FA03F313432B6377
:10133800C1E70568EA6A03EB8303413B1F2404FA0B
:1013480003F322EA0303EB620568EA6A4B6803EBDE
:101358008303413B0C8804FA03F31343EB62AAE7C7
:101368000B68122BABD1164A536843F480035360C1
:10137800A5E70B68103B012BA5D8114A536843F425
:10138800000353600B68102B9DD10E4B1B6802F1B4
:10139800467202F52E3202F28332A2FB03239B0C23
:1013A80003EB83035A00019202E0019B013B019386
:1013B800019B002BF9D186E7022088E70020014035
:1013C8000023014018000020074AD36823F4E06393
:1013D8001B041B0C000200F4E060184340F0BF60DF
:1013E80040F40030D060704700ED00E030B4174B97
:1013F800DB68C3F30223C3F10704042C28BF0424C9
:101408001D1D062D18D9033B4FF0FF3505FA04F4CE
:1014180021EA0401994005FA03F322EA0303194378
:1014280000280BDB0901C9B200F1604000F56140FA
:1014380080F8001330BC70470023E5E700F00F0088
:101448000901C9B2024B1954F4E700BF00ED00E0EE
:1014580014ED00E0002807DB00F01F02400901231B
:101468009340024A42F82030704700BF00E100E094
:101478000138B0F1807F0AD2064B5860064AF02145
:1014880082F823100020986007221A607047012014
:10149800704700BF10E000E000ED00E030B40568E0
:1014A8002C6824F480242C60046863608368402BD3
:1014B80005D0036899600368DA6030BC7047036838
:1014C8009A600368D960F8E70268D3B2103B0B4909
:1014D800A1FB03131B090A49C95CC165032B06D884
:1014E80022F47F7222F003028265806D704722F435
:1014F8007F7222F0030204328265F6E7ABAAAAAA39
:10150800A0480008836A826992B9012B0AD01BB1EE
:10151800022B01D000207047C36A13F0807F2CD1C2
:1015280000207047C36AB3F1C07F28D000207047FD
:10153800B2F5005F05D0022B29D9032B15D0002066
:101548007047032B03D8DFE803F01C041C0A0020B3
:101558007047C36A13F0807F15D100207047C36AB3
:10156800B3F1C07F11D000207047C36A13F0807FA9
:1015780001D00120704700207047012070470120EA
:1015880070470120704701207047012070470120F3
:101598007047000070B50446FFF782FC002C5BD052
:1015A8000546002384F83430022384F83530226855
:1015B800136823F00103136023681A6812F0010FFF
:1015C8000AD0FFF76DFC401B0528F5D92023636579
:1015D800032084F8350070BD1A68204810406168FF
:1015E800A2680A43E1680A4321690A4361690A4318
:1015F800A1690A43E1690A43216A0A430243616A0D
:1016080004291ED01A602668756925F00705636AE3
:101618001D43042B07D1A36A1D43E36A1BB120466F
:10162800FFF770FF90B975612046FFF74DFFE26D37
:101638003F239340836000206065012384F83530A0
:10164800C9E7E16A206B01430A43DBE7402363658E
:10165800012084F83500BEE70120BCE73F8010F088
:1016680038B5856D90F83440012C2CD0012480F8D1
:10167800344090F83540E4B2012C04D0002380F8BF
:101688003430022038BD0446022084F8350000209A
:1016980060652046FFF702FFE26D3F239340AB6091
:1016A8002268136843F016031360236C23B1226881
:1016B800136843F0080313602268136843F00103BA
:1016C80013600020DEE70220DCE790F83530DBB25B
:1016D800022B03D08023436501207047052380F83F
:1016E80035300268136823F0010313600020704747
:1016F800F0B583B0044600230193724B1D68724B0A
:10170800A3FB0535AD0A876D3E68C26D082393407B
:10171800334210D003681A6812F0040F0BD01A680D
:1017280022F004021A60C26D08239340BB60436D27
:1017380043F001034365E26D01239340334209D02E
:101748002268526912F0800F04D0BB60636D43F0C9
:1017580002036365E26D04239340334209D0226893
:10176800126812F0020F04D0BB60636D43F00403EB
:101778006365E26D10239340334224D022681268D7
:1017880012F0080F1FD0BB6023681A6812F4802F6C
:101798000DD01B6813F4002F04D1236C9BB1204695
:1017A800984710E0A36C73B1204698470BE01A687D
:1017B80012F4807F03D11A6822F008021A60236CA1
:1017C8000BB120469847E26D20239340334255D011
:1017D8002268126812F0100F50D0BB6094F83530B0
:1017E800DBB2052B0ED023681A6812F4802F33D091
:1017F8001B6813F4002F2AD1636C002B3ED02046BF
:1018080098473BE02268136823F0160313602268A8
:10181800536923F080035361236CA3B122681368D2
:1018280023F008031360E26D3F239340BB6000235D
:1018380084F83430012384F83530236D002B3FD0F1
:10184800204698473CE0A36C002BE7D1EBE7E36B1D
:10185800A3B12046984711E01A6812F4807F09D195
:101868001A6822F010021A60002384F83430012329
:1018780084F83530E36B0BB120469847636DFBB1B4
:10188800636D13F0010F17D0052384F835302268F3
:10189800136823F001031360019B01330193AB42EA
:1018A80004D823681B6813F0010FF5D1002384F8CE
:1018B8003430012384F83530E36C0BB12046984767
:1018C80003B0F0BD18000020B5814E1B00230F2B7C
:1018D80000F2C580F0B583B039E0042200E00022B0
:1018E800AA403A4302345E4D45F824205D4A146804
:1018F800F24302EA04054F6817F4803F01D046EA34
:101908000405584C2560646802EA04054F6817F41A
:10191800003F01D046EA0405524C6560A46802EA1B
:1019280004054F6817F4801F01D046EA04054D4CA2
:10193800A560E46822404D6815F4001F01D046EA0E
:101948000402484CE26001330F2B00F2868001222A
:101958009A400C6804EA0206B242F4D14C68651E4B
:10196800012D03D9112C01D0122C12D185685F00EA
:101978000324BC4025EA0405CC68BC402C438460A1
:10198800456825EA02054C68C4F300129A402A43C8
:101998004260C4685F000322BA40D24314408D6895
:1019A800BD402543C5604C68022C01D0122C13D1D0
:1019B800DD08083550F825E003F007044FEA840CE9
:1019C8000F2404FA0CF42EEA040E0C6904FA0CF441
:1019D80044EA0E0440F82540046822404C6804F0AC
:1019E8000304BC40224302604A6812F0805FAAD018
:1019F800002201921C4A546C44F480445464526C92
:101A080002F480420192019A9C08A51C144A52F8DB
:101A1800257003F0030295000F22AA4027EA020767
:101A2800124A90423FF45BAF02F5806290420ED0BA
:101A380002F5806290420CD002F5806290420AD092
:101A480002F5806290423FF448AF072248E701223E
:101A580046E7022244E7032242E703B0F0BD70479D
:101A680000380140003C01400038024000000240BC
:101A780012B909048161704781617047436931EA8D
:101A8800030301D081617047090481617047000038
:101A9800002800F0E48170B582B00446036813F0B2
:101AA800010F3BD0A74B9B6803F00C03042B2CD0F1
:101AB800A44B9B6803F00C03082B21D06368B3F593
:101AC800803F4FD0B3F5A02F52D09E4B1A6822F416
:101AD80080321A601A6822F480221A606368002B28
:101AE80050D0FFF7DDF90546964B1B6813F4003F0D
:101AF80014D1FFF7D5F9401B6428F5D90320B3E1C9
:101B0800904B5B6813F4800FD8D08E4B1B6813F48E
:101B1800003F03D06368002B00F0A381236813F013
:101B2800020F55D0874B9B6813F00C0F3ED0854BA6
:101B38009B6803F00C03082B33D0E368002B68D0B4
:101B4800814B01221A60FFF7ABF905467D4B1B68F4
:101B580013F0020F54D1FFF7A3F9401B0228F5D95F
:101B6800032081E1774A136843F480331360B5E7B3
:101B7800744B1A6842F480221A601A6842F4803260
:101B88001A60ABE7FFF78CF905466E4B1B6813F438
:101B9800003FC3D0FFF784F9401B6428F5D9032020
:101BA80062E1684B5B6813F4800FC6D1654B1B6814
:101BB80013F0020F04D0E368012B01D0012053E198
:101BC800604A136823F0F803216943EAC1031360EC
:101BD800236813F0080F40D0636963B35B4B01229D
:101BE8001A60FFF75DF90546564B5B6F13F0020F5D
:101BF80033D1FFF755F9401B0228F5D9032033E10B
:101C0800504A136823F0F803216943EAC1031360BB
:101C1800DEE74D4B00221A60FFF742F90546494BB3
:101C28001B6813F0020FD3D0FFF73AF9401B0228C4
:101C3800F5D9032018E1454B00221A60FFF730F967
:101C48000546404B5B6F13F0020F06D0FFF728F9EB
:101C5800401B0228F5D9032006E1236813F0040F7E
:101C680079D0384B1B6C13F0805F33D1002301937C
:101C7800344B1A6C42F080521A641B6C03F0805388
:101C88000193019B0125324B1B6813F4807F23D0FD
:101C9800A368012B34D0052B38D02A4B1A6F22F0B9
:101CA80001021A671A6F22F004021A67A368002B50
:101CB80036D0FFF7F5F80646224B1B6F13F0020FDC
:101CC80048D1FFF7EDF8801B41F288339842F3D9E9
:101CD8000320C9E00025D6E71D4A136843F4807342
:101CE8001360FFF7DDF80646194B1B6813F4807F75
:101CF800CED1FFF7D5F8801B0228F5D90320B3E031
:101D0800104A136F43F001031367CFE70D4B1A6FA7
:101D180042F004021A671A6F42F001021A67C5E717
:101D2800FFF7BEF80646074B1B6F13F0020F11D0E2
:101D3800FFF7B6F8801B41F288339842F3D90320A5
:101D480092E000BF0038024000004742800E474240
:101D580000700040EDB9A369002B00F08480454A6B
:101D6800926802F00C02082A51D0022B17D0424B7D
:101D780000221A60FFF794F804463E4B1B6813F0E4
:101D8800007F42D0FFF78CF8001B0228F5D903200A
:101D98006AE0384A136C23F080531364DBE7364B50
:101DA80000221A60FFF77CF80546324B1B6813F0D7
:101DB800007F06D0FFF774F8401B0228F5D90320EE
:101DC80052E0E369226A1343626A43EA8213A26A11
:101DD8005208013A43EA0243E26A43EA0263254AA7
:101DE8005360254B01221A60FFF75AF80446214B2D
:101DF8001B6813F0007F06D1FFF752F8001B02287A
:101E0800F5D9032030E000202EE000202CE0012B43
:101E18002CD0184B5B6803F48001E269914201D031
:101E2800012021E003F03F02216A8A4201D001200B
:101E38001AE0616A47F6C0721A408A4201D001204E
:101E480012E003F44032A16A8A4201D001200BE07B
:101E580003F07063E26A93420AD0012004E0012093
:101E68007047012000E0002002B070BD0120FBE7B0
:101E78000020F9E70038024060004742324B9B6877
:101E880003F00C03042B5CD0082B01D02F487047BB
:101E98002DE9F04B2C4B5A6802F03F025B6813F4B3
:101EA800800F2BD0284B5B68C3F388131E4600278E
:101EB8005C010025E41A65EB0705A90141EA946174
:101EC800A001001B61EB0501CB0043EA5073C4007D
:101ED800A01943EB07014B0243EAD05344022046C2
:101EE80019460023FEF712FE174B5B68C3F3014344
:101EF80001335B00B0FBF3F0BDE8F08B124B5B687D
:101F0800C3F388131E4600275C010025E41A65EB1D
:101F18000705A90141EA9461A001001B61EB0501D5
:101F2800CB0043EA5073C400A01943EB07018B02AE
:101F380043EA90538402204619460023FEF7E6FD43
:101F4800D2E70348704700BF003802400024F4007D
:101F580000127A00002800F09E8070B50446504BAD
:101F68001B6803F00F038B4209D2CBB24C4A1370A3
:101F7800136803F00F038B4201D0012070BD236862
:101F880013F0020F17D013F0040F04D0454A9368DA
:101F980043F4E0539360236813F0080F04D0414AD8
:101FA800936843F4604393603E4A936823F0F003D8
:101FB800A068034393600D46236813F0010F32D0E5
:101FC8006368012B21D09A1E012A25D9354A126847
:101FD80012F0020F61D033498A6822F003021343DA
:101FE8008B60FEF75DFF06462E4B9B6803F00C03E3
:101FF8006268B3EB820F16D0FEF752FF801B41F2E6
:1020080088339842F0D90320B8E7264A126812F4B8
:10201800003FE0D10120B1E7224A126812F0007FA8
:10202800D9D10120AAE71E4B1B6803F00F03AB426E
:1020380009D9EAB21A4B1A701B6803F00F03AB42B6
:1020480001D001209AE7236813F0040F06D0154A3F
:10205800936823F4E053E1680B439360236813F01B
:10206800080F07D00F4A936823F46043216943EAB5
:10207800C1039360FFF702FF0A4B9B68C3F3031386
:10208800094AD35CD840094B1860094B1868FEF719
:10209800BDFE002072E70120704701206EE700BFF7
:1020A800003C024000380240A84800081800002000
:1020B80004000020014B1868704700BF180000207A
:1020C80008B5FFF7F7FF044B9B68C3F38223034A65
:1020D800D35CD84008BD00BF00380240B8480008AB
:1020E80008B5FFF7E7FF044B9B68C3F34233034A85
:1020F800D35CD84008BD00BF00380240B84800088B
:10210800F8B505460F4616461C462B689B6837EA05
:1021180003030CBF01230023B34237D0B4F1FF3FC0
:10212800F3D0FEF7BDFE069BC01AA04201D2002CD8
:10213800EBD12A68536823F0E00353606B68B3F56A
:10214800827F0BD0AB6AB3F5005F14D0012385F80A
:102158005130002385F85030032018E0AB68B3F500
:10216800004F02D0B3F5806FECD12A68136823F0D2
:1021780040031360E6E72A68136823F400531360EA
:102188002A68136843F400531360DFE70020F8BDA2
:1021980030B585B0164C2468164DA5FB0434640D83
:1021A8004FF47A7505FB04F403944468B4F5827F10
:1021B8000BD0039BC3B1039B013B039303689B684C
:1021C80013F0800FF5D100230FE00B460446009270
:1021D80000228021FFF794FF034630B1636D43F07E
:1021E80020036365032300E00023184605B030BDD3
:1021F80018000020819F5E1600283BD010B50446C9
:102208000023836290F85130002B2ED0022384F8EB
:1022180051302268136823F0400313606368A26892
:102228001343E26813432269134362691343A269A3
:1022380002F400721343E2691343226A1343A16A4A
:1022480022680B431360638B03F00403616A2268FE
:102258000B4353602268D36923F40063D3610020E1
:102268006065012384F8513010BD80F8503002F0C9
:1022780053F8CBE7012070472DE9F04383B0DDF830
:10228800288090F85040012C00F00B811D4617461D
:102298000E460446012380F85030FEF701FE8146C1
:1022A80094F85100C0B26368012815D0B3F5827F55
:1022B8000AD00223012284F85120002284F85020F9
:1022C800184603B0BDE8F083A368002B40F0DB801C
:1022D800042801D00223EDE7002E00F0D680002F5D
:1022E80000F0D580002D00F0D48094F85130DBB296
:1022F800042B02D0052384F8513000236365A763BB
:10230800E587A5872663E586A58623646364236835
:102318001A6812F0400F03D11A6842F040021A609E
:10232800E368B3F5006F10D063680BB1012D0AD1D3
:10233800226B236812781A73236B01332363E38EAD
:10234800013B9BB2E386012569E063680BB1012D6F
:102358000AD1226B23681288DA60236B0233236365
:10236800E38E013B9BB2E38601251BE023689A6854
:1023780012F0010F0DD0E28F92B252B1DA68A36B5E
:102388001A80A36B0233A363E38F013B9BB2E387FD
:102398000125FEF785FDA0EB0900404502D3B8F101
:1023A800FF3F78D1E38E9BB21BB9E38F9BB2002B22
:1023B80052D023689A6812F0020FD7D0E28E92B2F8
:1023C800002AD3D0002DD1D0226B1288DA60236B7B
:1023D80002332363E38E013B9BB2E3860025C5E706
:1023E80023689A6812F0010F0DD0E28F92B252B1B1
:1023F800DA68A36B1A70A36B0133A363E38F013B05
:102408009BB2E3870125FEF74BFDA0EB0900404591
:1024180002D3B8F1FF3F40D1B8F1000F3FD0E38EAF
:102428009BB213B9E38F9BB2B3B123689A6812F0D9
:10243800020FD5D0E28E92B2002AD1D0002DCFD093
:10244800226B12781A73236B01332363E38E013BEB
:102458009BB2E3860025C3E74A4641462046FFF77C
:1024680097FE034618B120236365012322E7A2687B
:10247800002A7FF41FAF01922268D1680191926807
:102488000192019A16E7022314E7012312E70123B8
:1024980010E701230EE703230CE703230AE70323CE
:1024A80008E702230CE710B4036A046A24F0010465
:1024B8000462846924F0F00444EA021223F00A0357
:1024C8000B43826103625DF8044B704710B4036AE2
:1024D80023F0100303628469036A24F4704444EA15
:1024E800023223F0A00343EA0113826103625DF81C
:1024F800044B7047836823F07003194341F00701C8
:1025080081607047022380F83D300268936803F0C9
:102518000703062B03D0136843F00103136001235C
:1025280080F83D30002070470368254A90420ED05D
:10253800B0F1804F0BD0A2F57C42904207D002F553
:102548008062904203D002F58062904203D123F06A
:1025580070034A6813431A4A90421AD0B0F1804F68
:1025680017D0A2F57C42904213D002F580629042C7
:102578000FD002F5806290420BD002F59A32904259
:1025880007D002F58062904203D002F58062904243
:1025980003D123F44073CA68134323F080034A69C4
:1025A800134303608B68C3620B688362044B9842D1
:1025B80002D00123436170470B690363F9E700BF49
:1025C80000000140A8B110B5044690F83D305BB159
:1025D800022384F83D30211D2068FFF7A5FF012361
:1025E80084F83D30002010BD80F83C3001F05EFFDB
:1025F800EEE70120704710B4846824F47F4442EA6F
:1026080003230B43234383605DF8044B704790F822
:102618003C30012B66D010B50446012380F83C30CD
:10262800022380F83D300268936823F47F4323F047
:10263800770393600B68402B4AD013D9602B3DD0A9
:102648001ED9702B28D0B3F5005F30D1CB684A680B
:1026580089680068FFF7CFFF2268936843F48043D6
:10266800936024E0102B06D004D9202B03D0302B04
:1026780001D01CE0DBB919462068FFF73BFF16E0E4
:10268800502B14D1CA6849680068FFF70CFF502125
:102698002068FFF72FFF0AE0CB684A68896800685E
:1026A800FFF7A9FF2268936843F07703936001233B
:1026B80084F83D30002084F83C0010BDCA684968A1
:1026C8000068FFF703FF60212068FFF713FFEEE7BC
:1026D800CA6849680068FFF7E6FE40212068FFF7EE
:1026E80009FFE4E70220704790F83C30012B33D013
:1026F80030B4012380F83C30022380F83D30036871
:102708005C689D6824F070040A6822435A60036874
:10271800124A934212D0B3F1804F0FD0A2F57C42F7
:1027280093420BD002F58062934207D002F5806293
:10273800934203D002F59A32934204D125F08005E2
:102748004A6815439D60012380F83D30002380F8D6
:102758003C30184630BC70470220704700000140EA
:102768000268D36823F49073D3600268536923F036
:1027780001035361202380F83A30704790F83930CC
:10278800DBB2212B2AD18368B3F5805F16D0036AA8
:102798005A1C02621A7803685A60C38C013B9BB2C8
:1027A800C384EBB90268D36823F08003D36002685E
:1027B800D36843F04003D36000207047036A1B8846
:1027C8000268C3F30803536003691BB9036A023341
:1027D8000362E2E7036A01330362DEE7022070471F
:1027E800002070472DE9F04B04460268136923F472
:1027F8004053C1680B4313618368026913434269FC
:102808001343C2691A430168CB6823F4164323F0C3
:102818000C031343CB600268536923F44073816946
:102828000B435361C369B3F5004F3BD00368714A4A
:10283800934200F0AB8002F58062934200F0A680DC
:10284800FFF73EFC4FF00009061849EB090716EBA5
:10285800000B47EB090C4FEACC0343EA5B734FEAE2
:10286800CB0293469C4663689A009B0F10EB0B00C3
:1028780049EB0C01FEF74AF95F4DA5FB00325109FF
:10288800642202FB110213013233A5FB03235B0907
:1028980003F0F00202EB011203F00F032168134466
:1028A8008B60A4E00368534A934239D002F58062F2
:1028B800934235D0FFF704FC83464FF0000C06180E
:1028C8004CEB0C0716EB000847EB0C094FEAC90361
:1028D80043EA58734FEAC802904699466268002155
:1028E800921841EB01031BEB08004CEB0901FEF7C2
:1028F8000DF9414DA5FB00325109642202FB11027A
:10290800D3003233A5FB03235B095A0002F4F872A3
:1029180002EB011203F00703216813448B6066E0A1
:10292800FFF7DEFB80464FF00009061849EB090760
:1029380016EB000B47EB090C4FEACC0343EA5B7339
:102948004FEACB0293469C4662680021921841EBFD
:10295800010318EB0B0049EB0C01FEF7D7F8264DE5
:10296800A5FB00325109642202FB1102D300323365
:10297800A5FB03235B095A0002F4F87202EB01126B
:1029880003F00703216813448B6030E0FFF7A8FBCE
:102998004FF00009061849EB090716EB000B47EB47
:1029A800090C4FEACC0343EA5B734FEACB02934628
:1029B8009C4663689A009B0F10EB0B0049EB0C01D7
:1029C800FEF7A4F80C4DA5FB00325109642202FB66
:1029D800110213013233A5FB03235B0903F0F00254
:1029E80002EB011203F00F03216813448B60BDE86A
:1029F800F08B00BF001001401F85EB512DE9F0411D
:102A080005460F4616469846069C2B681B6837EA0B
:102A180003030CBF01230023B3421DD1B4F1FF3FD0
:102A2800F3D02CB1FEF73CFAA0EB0800A042ECD999
:102A38002A68D36823F4D073D3602A68536923F0D3
:102A480001035361202385F8393085F83A30002393
:102A580085F83830032000E00020BDE8F08158B345
:102A680010B5044690F839300BB3242384F8393074
:102A78002268D36823F40053D3602046FFF7B2FEE0
:102A88002268136923F4904313612268536923F081
:102A98002A0353612268D36843F40053D3600020AB
:102AA800E063202384F8393084F83A3010BD80F888
:102AB800383001F02BFDD8E7012070472DE9F043AD
:102AC80083B01E4690F83930DBB2202B56D104462D
:102AD8000D469046002956D0002A56D090F8383036
:102AE800012B54D0012380F838304FF00009C0F88A
:102AF8003C90212380F83930FEF7D2F90746A4F834
:102B08002480A4F8268084F8389010E000963B468C
:102B1800002280212046FFF771FF002839D12B8839
:102B28002268C3F3080353602369C3B90235E38CF1
:102B38009BB2B3B1E38C013B9BB2E384A368B3F5CA
:102B4800805FE3D000963B46002280212046FFF7B5
:102B580055FF00BB2A7823685A600135E7E701353D
:102B6800E5E700963B46002240212046FFF746FF56
:102B7800034690B9202284F8392000E00223184641
:102B880003B0BDE8F0830123F9E70123F7E7022347
:102B9800F5E70323F3E70323F1E70323EFE790F8CF
:102BA8003A30DBB2202B20D109B312B390F8383079
:102BB800012B20D081628285C2850023C363222233
:102BC80080F83A2080F838300168CA6842F4807288
:102BD800CA6001684A6942F001024A610168CA682C
:102BE80042F02002CA601846704702207047012050
:102BF80070470120704702207047704708B5016888
:102C0800CB6823F04003CB60202380F83930FFF7EE
:102C1800F4FF002008BD08B590F83A30DBB2222B4B
:102C280045D18368B3F5805F0ED0036903BB0368A1
:102C38005A68836A591C81621A70C38D013B9BB222
:102C4800C385F3B1002033E0826A036943B903689E
:102C58005B68C3F308031380836A02338362ECE77B
:102C680003685B68DBB21380836A01338362E4E73D
:102C780003685B68826A511C816203F07F031370EA
:102C8800DBE70268D36823F02003D3600268D368C7
:102C980023F48073D3600268536923F001035361FE
:102CA800202380F83A3001F005FB002000E00220E4
:102CB80008BD704710B5044602681368D1685269A8
:102CC80013F00F0005D113F0200F02D011F0200FE0
:102CD80056D100286AD012F0010202D111F4907F77
:102CE80064D013F0010F06D011F4807F03D0E06B9D
:102CF80040F00100E06313F0040F04D01AB1E06B58
:102D080040F00200E06313F0020F04D01AB1E06B48
:102D180040F00400E06313F0080F07D011F0200F13
:102D280000D11AB1E26B42F00802E263E26B002ABA
:102D380048D013F0200F02D011F0200F24D12368BF
:102D48005B6903F04003E26B12F0080F00D13BB35C
:102D58002046FFF705FD23685A6912F0400F1BD083
:102D68005A6922F040025A61636B8BB11A4A1A659C
:102D7800606BFEF7AAFC28B3606B036D984721E0EF
:102D88002046FFF748FF1DE02046FFF744FFD6E73F
:102D98002046FFF78EFF15E02046FFF78AFF11E077
:102DA8002046FFF786FF0023E3630BE013F0800F54
:102DB80002D011F0800F06D113F0400F02D011F0AD
:102DC800400F04D110BD2046FFF7D8FCFAE7204693
:102DD800FFF714FFF6E700BFE52D000808B5806B84
:102DE8000023C385C384FFF764FF08BD234B00227B
:102DF8001A605A609A60DA601A615A619A61DA61F7
:102E08001A625A629A62DA621A865A869A86DA864A
:102E18001A875A879A87DA87A3F84020A3F84220AE
:102E28005A64174901200870A3F8482010E0134B92
:102E38000022A3F86C23A3F88C26A3F8AC29A3F8E6
:102E4800CC2CA3F8EC2F41F20C301A5201319961C5
:102E58000A4B9969B1F5C77FE9D90AE0094A02EB3B
:102E680083020021C2F81412C2F834120133034A53
:102E78005361024B5B69072BF0D97047380000207B
:102E880008000020301100202DE9F04F89B0B34B25
:102E980083ED000AB24BDB69B3F5C87FC0F0188137
:102EA800AF4B00225A611EE0581CAD4901EB4002AD
:102EB800B2F84C4001EB4303A3F84C40B2F86C4322
:102EC800A3F86C43B2F88C46A3F88C46B2F8AC4928
:102ED800A3F8AC49B2F8CC4CA3F8CC4CB2F8EC2F20
:102EE800A3F8EC2F48619E4B5B69B3F5C77FDBD92C
:102EF8009B4B40F28F12DA62994AD46ABCEEC00A40
:102F080010EE103A9BB202EB4401A1F84C30D069A4
:102F1800471CD761A1F86C33002C0BDD621E904969
:102F280001EB4202B2F86C2301EB440103EB4203CC
:102F3800A1F86C33012C0CDDA21E894B03EB420275
:102F4800B2F86C1303EB4403B3F86C23521AA3F8DA
:102F58006C23052C0DDDA21F814B03EB4202B2F856
:102F68004C1003EB4403B3F86C23A2EB4102A3F823
:102F78006C230B2C0DDDA4F10C02794B03EB420200
:102F8800B2F84C2003EB4403B3F86C130A44A3F8DB
:102F98006C23734A02EB4402B2F86C335B429BB277
:102FA800A2F88C36002C0ADD621E6D4901EB420244
:102FB800B2F88C2601EB44011344A1F88C360F2C8F
:102FC8000EDDA4F11002664B03EB4202B2F86C135B
:102FD80003EB4403B3F88C2602EB4112A3F88C26CA
:102FE800102C0EDDA4F111025D4B03EB4202B2F886
:102FF8006C1303EB4403B3F88C26A2EB4112A3F83D
:103008008C261F2C0DDDA4F12002554B03EB420248
:10301800B2F86C2303EB4403B3F88C160A44A3F804
:103028008C264F4A02EB4403B3F88C964FEA4903C7
:103038009BB2A2F84830002C08DD621E484901EB1B
:103048004202B2F88C261344A1F84830022C0ADD5B
:10305800E31E434A02EB4303B3F88C16B2F8483038
:103068005B1AA2F84830032C0BDD231F3C4A02EB05
:103078004303B3F88C16B2F84830A3EB4103A2F827
:103088004830374AB2F84830DB08A2F8483013FB1A
:1030980003F302EB4401A1F8AC390023A1F8CC3CBE
:1030A80053612F4B5B69132B15D89AB2944212DBEC
:1030B800E11A2B4A02EB4101B1F8AC1902EB4400CA
:1030C800B0F8CC5C2944A0F8CC1C01335361E8E784
:1030D800234AD36210E79BB2214A02EB4401B1F8BC
:1030E800CCACBAFBF3FAA1F8CCAC00235364938EB2
:1030F8009A4502D2128F914504D3194AA2F830A0FA
:10310800A2F832909A45C0F04481154B1B8F99451F
:10311800C0F03F81124B1B6A03F13202974240F222
:103128004B815A339F4200F2A0800D4B00229A62D5
:10313800A4F10A029A6102E00133094A9361084B3B
:103148009B69A3420ED8064A02EB4301B1F8AC19B9
:10315800926A9142F0D9024A9162EDE790130020F9
:1031680038000020904A536AD2F82880C3F34F03EE
:10317800984540F20E811546108EFDF77BF9002226
:103188004FF07F53FDF7E0F9CDE90001A88FFDF777
:1031980071F90022854BFDF7D7F902460B46DDE9A8
:1031A8000001FDF71BF8FDF791FC80B2A887B5F880
:1031B8004060801BFDF75EF900227D4BFDF7C4F9E6
:1031C800CDE900013046FDF755F9DDE90023FDF7AB
:1031D80005F8FDF77BFC80B2A886FDF74BF90022C5
:1031E800744BFDF7B1F9FDF771FCE886688EFDF7C1
:1031F80041F900224FF07F53FDF7A6F9CDE9000110
:10320800E88FFDF737F90022684BFDF79DF9024674
:103218000B46DDE90001FCF7E1FFFDF757FC80B242
:10322800E887B5F84260801BFDF724F90022604B5F
:10323800FDF78AF9CDE900013046FDF71BF9DDE914
:103248000023FCF7CBFFFDF741FC80B22887FDF790
:1032580011F90022574BFDF777F9FDF737FC68871E
:10326800C5F8248001236B6493E04F4B00229A62D7
:10327800A4F10A029A6102E001334B4A93614A4B76
:103288009B69A3420AD8484A02EB4301B1F8AC193A
:10329800926A9142F0D9444A9162EDE7424D288EF4
:1032A800FDF7E8F800224FF07F53FDF74DF9CDE91F
:1032B8000001A88FFDF7DEF800223C4BFDF744F92A
:1032C80002460B46DDE90001FCF788FFFDF7FEFB2F
:1032D80080B2A887B5F84080A0EB0800FDF7CAF8CF
:1032E8000022334BFDF730F9CDE900014046FDF7E8
:1032F800C1F8DDE90023FCF771FFFDF7E7FB80B2B9
:10330800A886FDF7B7F800222A4BFDF71DF9FDF74F
:10331800DDFBE886688EFDF7ADF800224FF07F539D
:10332800FDF712F9CDE90001E88FFDF7A3F80022B7
:103338001E4BFDF709F902460B46DDE90001FCF7D3
:103348004DFFFDF7C3FB80B2E887B5F84280A0EBDC
:103358000800FDF78FF80022154BFDF7F5F8CDE9C9
:1033680000014046FDF786F8DDE90023FCF736FF4B
:10337800FDF7ACFB80B22887FDF77CF800220D4BE7
:10338800FDF7E2F8FDF7A2FB6887AB6A6B620123E1
:103398006B64054B5B6C002B00F02781024B00220D
:1033A8001A605A619AE000BF380000200000EC3F24
:1033B8000000D03F0000E03FA54DA5F830A05046E2
:1033C800FDF758F800224FF07F53FDF7BDF8064689
:1033D8000F46B5F84000FDF74DF800229D4BFDF76C
:1033E800B3F802460B4630463946FCF7F7FEFDF7C0
:1033F8006DFB1FFA80F8A5F84080A88FA0EB0800A5
:10340800FDF738F80022944BFDF79EF806460F4664
:103418004046FDF72FF832463B46FCF7DFFEFDF746
:1034280055FB80B2A886FDF725F800228B4BFDF7E7
:103438008BF8FDF74BFBE886A5F832904846FDF778
:1034480019F800224FF07F53FDF77EF806460F4625
:10345800B5F84200FDF70EF800227E4BFDF774F830
:1034680002460B4630463946FCF7B8FEFDF72EFB00
:1034780086B2A5F84260E88F801BFCF7FBFF0022AC
:10348800754BFDF761F8804689463046FCF7F2FF38
:1034980042464B46FCF7A2FEFDF718FB80B2288790
:1034A800FCF7E8FF00226D4BFDF74EF8FDF70EFB29
:1034B800688705EB44040020A4F8EC0F92E0511C47
:1034C800674B03EB8100D0F8140203EB8203C3F8C7
:1034D80014025F4B1A6802441A6059615C4B5A69BE
:1034E800062AECD91E461C6A3C1B5D4BC3F83042C9
:1034F800376230682044FCF7BDFF00224FF07F534D
:10350800FDF722F8FDF7BAFA05463060B3689C4229
:1035180049DBF3689C4246DC0022726072610EE06F
:10352800511C4F4B03EB8100D0F8340203EB8203AC
:10353800C3F83402464B5A6802445A605961444BF6
:103548005A69062AECD9464BC3F85042404E706877
:103558002044FCF78FFF00224FF07F53FCF7F4FF65
:10356800FDF78CFA7060FCF785FF8046894632A328
:10357800D3E90023FCF7E8FFFDF780FAB06030A339
:10358800D3E9002340464946FCF7DEFFFDF776FA0B
:10359800F0602DA3D3E9002340464946FCF7D4FF49
:1035A800FDF76CFA30612F4B1A78294B5B689D4206
:1035B8000BD02C4B0021197052B1254B9A8E520812
:1035C8009A861A8F52081A8702E0264B01221A702F
:1035D8001F4B586CDA6A03EB4203A3F8EC0F003078
:1035E80018BF012009B0BDE8F08F194B196A009186
:1035F8007A1A1B699A4240F2BD810B4632339F42C8
:1036080040F2B881CB1BA04623443233104A5361A1
:10361800079452E001330E4A93610D4B9B69AB420C
:1036280022D80B4A02EB4301B1F8AC19926A9142D5
:10363800F0D9074A9162EDE7713D0AD7A370ED3FD3
:103648008FC2F5285C8FF23F8FC2F5285C8FFA3F56
:10365800380000200000EC3F0000D03F0000E03FB1
:103668003011002008000020B74A536A946AC3F357
:103678004F039C423BD27819FCF7ECFECDE90201DE
:103688000098FCF7E7FECDE90401A7A3D3E90023DE
:10369800FCF75AFF02460B46DDE90401FCF79EFDE4
:1036A80002460B46DDE90201FDF7C0F9F8B1A64B69
:1036B80000225A640135A44B5D61A34B5D69A8459E
:1036C80040F25281A04B03EB4502B2F8CCBCDB8E32
:1036D8009B45EFD99C4BB2F88C665B8F9E42E9D92B
:1036E800994B00229A62A5F10A029A6195E7029421
:1036F800079C954BA3F830B05E865846FCF7BAFE97
:103708000022924BFCF720FFCDE904018E4B988FE5
:10371800FCF7B0FE00228E4BFCF716FF02460B4664
:10372800DDE90401FCF75AFDFDF7D0F91FFA80FB2B
:10373800854BA3F83CB03046FCF79CFE0022834B37
:10374800FCF702FFCDE904017F4B1E46D88FFCF73A
:1037580091FE00227E4BFCF7F7FE02460B46DDE9A0
:103768000401FCF73BFDFDF7B1F91FFA80F8A6F854
:103778003E80B6F84060ABEB0600FCF77BFE00220B
:10378800724BFCF7E1FECDE904013046FCF772FE0E
:10379800DDE90423FCF722FDFDF798F980B28346A2
:1037A800694B1E469886FCF765FE0022694BFCF7BC
:1037B800CBFEFDF78BF9F086029A7262B6F842608A
:1037C800A8EB0600FCF756FE0022604BFCF7BCFE97
:1037D800CDE902013046FCF74DFEDDE90223FCF796
:1037E800FDFCFDF773F986B2574B1E873046FCF790
:1037F80041FE0022574BFCF7A7FEFDF767F9524B35
:103808001A4658870023136093610EE0511C524BEF
:1038180003EB8100D0F8140203EB8203C3F814020F
:10382800494B1A6802441A609961474B9A69062AFB
:10383800ECD92D1B3D44009BA5EB0308464BC3F870
:103848003082414F01237B643D6238684044FCF775
:1038580011FE00224FF07F53FCF776FEFDF70EF9BC
:1038680005463860BB68984549DBFB68984546DCE7
:1038780000227A607A610EE0511C374B03EB81001D
:10388800D0F8340203EB8203C3F834022E4B5A6893
:1038980002445A6059612C4B5A69062AECD92E4BBE
:1038A800C3F85082284F78684044FCF7E3FD0022B3
:1038B8004FF07F53FCF748FEFDF7E0F87860FCF71F
:1038C800D9FDCDE900011AA3D3E90023FCF73CFE9A
:1038D800FDF7D4F8B86018A3D3E90023DDE90001A7
:1038E800FCF732FEFDF7CAF8F86015A3D3E9002308
:1038F800DDE90001FCF728FEFDF7C0F83861174B39
:103908001A78114B5B689D422AD0144B002119701C
:103918005AB30D4B4FEA5B0BA3F834B076081E87F9
:1039280023E000BFAFF300800AD7A3703D0AD73F5A
:10393800713D0AD7A370ED3F8FC2F5285C8FF23F27
:103948008FC2F5285C8FFA3F380000200000D03F76
:103958000000E83F0000E03F301100200800002090
:10396800504B01221A7000E0079C4F4B5B6C002BF8
:1039780040F08A804C4B5B6C002B7FF429AE4A4B9D
:103988009B8E9A4504D2484B1B8F9945FFF420AE75
:10399800454CA4F830A05046FCF76CFD00224FF0CF
:1039A8007F53FCF7D1FD06460F46B4F84000FCF7FC
:1039B80061FD00223D4BFCF7C7FD02460B46304631
:1039C8003946FCF70BFCFDF781F885B2A4F84050A6
:1039D800A08F401BFCF74EFD0022354BFCF7B4FDD1
:1039E80006460F462846FCF745FD32463B46FCF79F
:1039F800F5FBFDF76BF880B2A086FCF73BFD0022D3
:103A08002C4BFCF7A1FDFDF761F8E086A4F8329095
:103A18004846FCF72FFD00224FF07F53FCF794FD3A
:103A280006460F46B4F84200FCF724FD00221F4B5F
:103A3800FCF78AFD02460B4630463946FCF7CEFBBA
:103A4800FDF744F885B2A4F84250E08F401BFCF71C
:103A580011FD0022164BFCF777FD06460F46284657
:103A6800FCF708FD32463B46FCF7B8FBFDF72EF89D
:103A780080B22087FCF7FEFC00220E4BFCF764FDA9
:103A8800FDF724F86087A3E5074B03EB4404002205
:103A9800A4F8EC2F5A6903EB42030120A3F8EC0FBA
:103AA800A0E500BF08000020380000200000EC3F1F
:103AB8000000D03F0000E03F002210460BE0074B1B
:103AC80053F82230064981FB03C1DB17C3EB6103BE
:103AD800184401300132202AF1DD70471414002007
:103AE80067666666104B1B68202B01D00020704764
:103AF80000231846194605E00130012910DC032887
:103B080010DC01331F2B09DC084A52F82320052A50
:103B1800F2D0023A022AF0D80131EEE700207047CD
:103B2800012070470120704784130020941300205F
:103B3800034B1B68181A0138024B53F820007047D2
:103B4800841300209413002070B50546441E4B4B87
:103B5800012243F824204A4B5B6853B9494A52F87A
:103B68002420B2F5167F28DA464850F8250082420C
:103B780023DA11BB002B60D0AA1E424951F822203B
:103B8800B2F5487F0ADA51F82410B1F5487F05DA12
:103B98003C4951F82510B1F5487F56DB394951F8B1
:103BA8002400024451F825100A44B2F5E16F4CDBB9
:103BB800032B5CDD324B00225A60324B53F8242031
:103BC80007EE902AF8EEE76AA91E53F8213007EEAF
:103BD800903AF8EEE77A2C4991ED007A27EE877A49
:103BE800F4EEC76AF1EE10FA18D5264951F82510F7
:103BF80007EE101AB8EEC77A234890ED016A27EE4F
:103C0800067AF4EEC77AF1EE10FA07D50A44B2EB59
:103C1800430F2EDA194B022243F824201A4B93ED56
:103C2800027A67EE877AF4EEE76AF1EE10FA03DDBE
:103C3800124B042243F8242070BD0133104A53600C
:103C48000E4B052243F82420F6E701330C4A536053
:103C58000A4B052243F82420EEE70121A81BFFF7B1
:103C680073FF0136064B5B68B342F6DAA2E701261A
:103C7800F8E7024B032243F82420CFE794130020EF
:103C880084130020141400200C00002038B5194BB0
:103C98001D68202D22D0184B43F82500012D1FDC6C
:103CA80015BB164B01221A601EE05A1C124951F826
:103CB800224041F82340114951F8224041F823405D
:103CC80013461E2BF1DD0C4B53F82520DA6743F819
:103CD800250000212846FFF737FF09E00023F0E719
:103CE80000212846FFF730FF024A136801331360AA
:103CF80038BD00BF84130020141400209413002042
:103D080000B585B0002300930193029303931648EE
:103D1800164A02604FF48032426083600361037682
:103D280080F820304FF08052C2624FF0C062826249
:103D3800C3600123C36180F830304361FDF764F943
:103D480060B9012300930193002302936946064852
:103D5800FDF772FA28B905B05DF804FB00F0BAFA6D
:103D6800EFE700F0B7FAF6E79814002000200140CA
:103D780030B589B000230393049305930693079302
:103D8800026803F1804303F590339A4201D009B0E9
:103D980030BD04460025019503F58C335A6C42F476
:103DA80080725A645A6C02F480720192019A0295E8
:103DB8001A6B42F001021A631B6B03F001030293B2
:103DC800029B022303930323049303A91048FDF7DE
:103DD8007DFD1048104B036045608560C5604FF459
:103DE800806303614FF4006343614FF400538361C0
:103DF8004FF48073C36105624562FDF7CBFB18B9C8
:103E0800044BA3639C63C2E700F064FAF8E700BFC1
:103E180000000240E01400201064024000B583B0A6
:103E280000210191094B1A6B42F480021A631B6B43
:103E380003F480030193019B0A463820FDF7D6FA64
:103E48003820FDF707FB03B05DF804FB003802409B
:103E580030B589B00024039404940594069407941B
:103E68000094184B1A6B42F080021A631A6B02F026
:103E780080020092009A01941A6B42F001021A63C0
:103E88001A6B02F001020192019A02941A6B42F035
:103E980002021A631B6B03F002030293029B0A4D92
:103EA800224630212846FDF7E3FD30230393012302
:103EB80004930594069403A92846FDF707FD09B065
:103EC80030BD00BF003802400000024010B5044673
:103ED8004FF47A70FCF7EAFF642303220649204670
:103EE800FEF7ECFD6420FCF7E1FF64230F22034991
:103EF8002046FEF7E3FD10BDC0480008C44800088E
:103F080030B595B03022002108A800F0B1FC00249B
:103F18000394049405940694079401941B4B1A6C1B
:103F280042F080521A641B6C03F080530193019B8A
:103F38000294174A136823F4404343F40043136080
:103F4800136803F440430293029B0225089501235A
:103F58000B9310230C930E950F940823109354235E
:103F6800119312950423139308A8FDF791FD0F23CD
:103F78000393049505944FF48053069307942946B8
:103F880003A8FDF7E7FF15B030BD00BF00380240B9
:103F9800007000402DE9F04786B00026B54B1E7032
:103FA800FCF758FFFFF7ACFFFFF752FFFFF736FFAC
:103FB800FFF7A6FE00F090FA00F040FA00F08CF946
:103FC8002022AD49AD48FDF74BF8AD48FEF79AFA07
:103FD800AC4C0122AC492046FEF7E1FD2046FFF734
:103FE80075FFFEF703FF00F067FB3746354625E00F
:103FF800062F15D001349F4B1B78013B1B010F3353
:10400800A34218DB9C4B1B5D00EE103AB8EE400A49
:10401800FEF73AFF9D4B18700028E9D00137E7E713
:10402800954B1A5D9A4B5A559A4B01225A5500B92D
:1040380016440135DEE78F4B00221A70052F0EDC7F
:104048008C4B1B78DBB2012B04D08A4B1B78DBB27C
:10405800022BF0D1874B1C78013C2401CBE74FF0B1
:104068000009CA46C8464F4609E0824B1B78DBB2B6
:10407800012B0ED07F4B1B78DBB2022B09D041F20B
:104088006F739945F1DD012FEFD1002006B0BDE82F
:10409800F087784B1C78013C2401AEE020217E4853
:1040A800FDF7ECFC06EB8600FFF7F0FDB8F1050F15
:1040B80022D0013606AB03EB880343F8146C08F1F1
:1040C8000108B8F1020F19DCB8F1010F79D0012FFE
:1040D80079D10026ACE05A1C06A901EB820151F8FF
:1040E800141C06A800EB830343F8141C1346032B87
:1040F800F1DD01360596E4E70023F8E70020FFF735
:1041080017FD052808D0BAF1000F07D0BAF1030F40
:1041180017DD4FF0000A01E00AF1010A0020FFF75D
:1041280007FDA8F1020306AA02EB830353F8143C27
:1041380008F1FF3206A901EB820252F8146C3344ED
:1041480035E008F1FF3306AA02EB830353F8146C39
:10415800AE1B002292451BDBA8F102039B1A06A99D
:1041680001EB830353F8143CF61A0132F2E7494B8A
:10417800985501360132A8F10203A3EB0A0306A9F8
:1041880001EB830353F8143C9342F0DC0AF1FF3A45
:10419800BAF1000F04DD5046FFF7CAFC0022EAE737
:1041A8004FF0000ABAE7EA1A3A498854013B9E429E
:1041B800F9DB8CE7374A012151550B449D42F9DC64
:1041C80085E70023FAE7FFF78DFC0746012801D0B1
:1041D80000262DE0FFF770FC281A002801DC0026D5
:1041E80026E0FFF769FC002622E0234B1A5D284BE6
:1041F8005A5509F10109013501341E4B1B78013B61
:104208001B010F33A34231DB41F26F739D4201DD85
:10421800012F2BD0184B1B5D00EE103AB8EE400A68
:10422800FEF732FE194B187000287FF437AF0136BD
:10423800012FDAD043F697239D4215DC0E4B1A5D09
:10424800134B5A550135D7E75A1C1149885CC85495
:10425800134643F696229342F6DD074B195D0C4A46
:1042680043F69723D154C7E70023F2E7014B002216
:104278001A7004E778B9002058B900209814002073
:10428800D4B9002014BA002054B90020486700208F
:104298004C6700204015002000000240014B01221D
:1042A8001A70704778B90020014B02221A707047C3
:1042B80078B9002008B5054B834200D008BD01221B
:1042C80003491846FEF76BFCF8E700BF14BA002054
:1042D80054B900207047000008B50D480D4B036025
:1042E8004FF48273436000238360C36003614361BA
:1042F8004FF400728261C3610362436283620A23DE
:10430800C362FDF779FF00B908BDFFF7E3FFFBE7DC
:104318007CB9002000300140F0B589B00023039338
:10432800049305930693079302681E4B9A4201D0A3
:1043380009B0F0BD0024009403F584335A6C42F4AC
:1043480080525A645A6C02F480520092009A019486
:104358001A6B42F001021A631A6B02F00102019211
:10436800019A02941A6B42F002021A631B6B03F063
:1043780002030293029BC023039302270497032698
:1043880006960525079503A90748FDF79FFA082310
:104398000393049705940696079503A90348FDF728
:1043A80095FAC5E7003001400000024000040240D1
:1043B80082B0002100910B4B5A6C42F480425A643F
:1043C8005A6C02F480420092009A01911A6C42F0F1
:1043D80080521A641B6C03F080530193019B02B056
:1043E800704700BF003802407047FEE7FEE7FEE76F
:1043F800FEE770477047704708B5FCF745FD08BDF4
:1044080008B50248FEF756FC08BD00BF14BA0020E4
:1044180008B50248FDF76CF908BD00BFE01400209C
:10442800054BD3F8882042F47002C3F888204FF077
:1044380000629A60704700BF00ED00E000B587B0E9
:104448000023029303930493059300930193154863
:104458004FF08042026043608360134AC260036188
:104468008361FEF7AFF8A0B906A94FF4805341F86D
:10447800103D0C48FEF7CBF870B9202300930023B9
:10448800019369460748FEF72FF940B907B05DF870
:1044980004FBFFF71FFFE7E7FFF71CFFEDE7FFF758
:1044A80019FFF3E7D4B90020EFCC01000368B3F19A
:1044B800804F00D0704782B000230193054B1A6CDF
:1044C80042F001021A641B6C03F001030193019B83
:1044D80002B070470038024008B50A480A4B03602A
:1044E8004FF41653436000238360C36003610C22BA
:1044F80042618361C361FEF7B2FA00B908BDFFF7F4
:10450800E9FEFBE714BA00200010014010B588B09E
:10451800002303930493059306930793026803F11A
:10452800804303F588339A4201D008B010BD0024B7
:10453800019403F594335A6C42F010025A645A6C91
:1045480002F010020192019A02941A6B42F00102E1
:104558001A631B6B03F001030293029B4FF4C063C1
:10456800039302230493032306930723079303A9C2
:104578000548FDF7ABF9224621462520FCF736FF12
:104588002520FCF767FFD0E70000024000B587B0A0
:104598008DF80F006423009301230DF117020DF12C
:1045A8000F010448FDF768FE9DF8170007B05DF895
:1045B80004FB00BF7CB90020F8B50F4D0022102184
:1045C8002846FDF755FA9F20FFF7E0FFA520FFF7E3
:1045D800DDFF0746A520FFF7D9FF0446A520FFF712
:1045E800D5FF0646012210212846FDF741FA200290
:1045F80040EA07403043F8BD0000024010B50022F1
:1046080010211048FDF734FA4B20FFF7BFFF0024B4
:1046180004E0A520FFF7BAFF0134E4B2032CF8D96F
:10462800002407E0A520FFF7B1FF074B234458708B
:104638000134E4B2072CF5D9012210210148FDF715
:1046480017FA10BD0000024054BA002010B5044605
:10465800002210211648FDF70BFA012C12D0022C6B
:104668001BD01520FFF792FFA520FFF78FFF044608
:10467800104B83F82600012210210D48FDF7F8F9A8
:10468800204610BD0520FFF781FFA520FFF77EFF1C
:104698000446084B83F82400EDE73520FFF776FF42
:1046A800A520FFF773FF0446024B83F82500E2E7D5
:1046B8000000024054BA002010B5444B012283F890
:1046C800272002E00120FCF7F1FBFCF7E9FB632857
:1046D800F8D9012210213E48FDF7CAF96420FCF7F9
:1046E800E5FBFFF769FF80B2A0F580401138092883
:1046F80066D8DFE800F05F59534D47413B342D053C
:10470800324B0A221A704FF48062DA612F4C4FF450
:10471800807363814FF480532361E3691A016261F6
:104728001B041A0AE2604FF48032A2619B0A2362DA
:10473800FFF764FF0120FFF789FF0220FFF786FFDC
:104748000320FFF783FF002384F82730012010BDE2
:104758001E4B09221A704FF40072DA61D6E71B4B20
:1047680008221A704FF48072DA61CFE7174B0722DC
:104778001A708022DA61C9E7144B06221A704022A7
:10478800DA61C3E7114B05221A702022DA61BDE70E
:104798000E4B04221A701022DA61B7E70B4B032282
:1047A8001A700822DA61B1E7084B02221A70042253
:1047B800DA61ABE7054B01221A700222DA61A5E73C
:1047C8000020024B83F82700C1E700BF54BA00203D
:1047D80000000240DFF834D0002103E00C4B5B58A6
:1047E800435004310B480C4B42189A42F6D30B4AFB
:1047F80002E0002342F8043B094B9A42F9D3FFF741
:104808000FFE00F011F8FFF7C5FB7047008001208C
:10481800E4480008000000201C0000201C000020C4
:104828007CBA0020FEE7000070B50D4E0D4CA41BAD
:10483800A4100025A54209D10B4E0C4C00F020F81D
:10484800A41BA4100025A54205D170BD56F825303B
:1048580098470135EEE756F8253098470135F2E7D5
:10486800DC480008DC480008DC480008E04800088C
:1048780002440346934200D1704703F8011BF9E74D
:10488800F8B500BFF8BC08BC9E467047F8B500BF35
:08489800F8BC08BC9E46704705
:1048A00000061016000610160000000000000000B0
:1048B00001020304060708090000000001020304C6
:1048C00041540A0041542B4E414D453D454B475FF5
:0448D00042540A0044
:0848D40070C2FF7F010000002B
:0448DC00BD01000812
:0448E0009901000832
:1048E4000100000010000000010000006666663F41
:0C48F4006666663F0000C03F0024F40030
:04000005080047DDCB
:00000001FF
