:020000040800F2
:100000000080012041200008ED1F0008EF1F0008BC
:10001000F11F0008F31F0008F51F00080000000092
:10002000000000000000000000000000F71F0008B2
:10003000F91F000800000000FB1F0008FD1F00085A
:1000400091200008912000089120000891200008CC
:1000500091200008912000089120000891200008BC
:1000600091200008912000089120000891200008AC
:10007000912000089120000891200008912000089C
:1000800091200008052000089120000800000000D1
:1000900000000000000000000000000091200008A7
:1000A000912000089120000891200008912000086C
:1000B000912000089120000891200008912000085C
:1000C000912000089120000891200008912000084C
:1000D00091200008912000089120000800000000F5
:1000E00091200008912000089120000800000000E5
:1000F0000000000000000000000000009120000847
:1001000000000000912000089120000891200008C4
:1001100000000000000000000000000000000000DF
:100120001520000891200008912000089120000867
:100130009120000800000000000000000000000006
:1001400000000000000000000000000091200008F6
:1001500091200008912000089120000891200008BB
:10016000912000089120000800000000000000001D
:10017000000000000000000000000000000000007F
:1001800000000000912000080000000000000000B6
:0401900091200008B2
:1001940010B5054C237833B9044B13B10448AFF3BD
:1001A40000800123237010BD0C000020000000001B
:1001B400EC20000808B5034B1BB103490348AFF317
:1001C400008008BD0000000010000020EC200008A2
:1001D40053B94AB9002908BF00281CBF4FF0FF31AA
:1001E4004FF0FF3000F072B9ADF1080C6DE904CEA8
:1001F40000F006F8DDF804E0DDE9022304B07047FE
:100204002DE9F047089E04468846002B4BD18A42CC
:10021400154667D9B2FA82F24AB1C2F1200701FA4F
:1002240002F320FA07F7954047EA030894404FEA9F
:10023400154E230CB8FBFEF71FFA85FC0EFB17883E
:1002440043EA084307FB0CF1994209D9EB1807F17B
:10025400FF3080F01B81994240F21881023F2B4409
:100264005B1AA4B2B3FBFEF00EFB103344EA034462
:1002740000FB0CFCA44509D92C1900F1FF3380F0D4
:100284000781A44540F2048102382C4440EA074027
:10029400A4EB0C0400271EB1D4400023C6E900439C
:1002A4003946BDE8F0878B4209D9002E00F0EB8077
:1002B4000027C6E9000138463946BDE8F087B3FA9D
:1002C40083F7002F47D18B4202D3824200F2FA8097
:1002D400841A61EB030301209846002EE0D0C6E99E
:1002E4000048DDE702B9FFDEB2FA82F2002A40F0EC
:1002F4008F80491B4FEA154E1FFA85F80127B1FB81
:10030400FEFC230C0EFB1C1143EA014308FB0CF119
:10031400994207D9EB180CF1FF3002D2994200F24E
:10032400CD808446591AA3B2B1FBFEF00EFB101423
:1003340043EA044408FB00F8A04507D92C1900F14E
:10034400FF3302D2A04500F2B6801846A4EB08049D
:1003540040EA0C409FE7C7F1200CBB4022FA0CFE98
:100364004EEA030E01FA07F420FA0CF521FA0CF315
:100374004FEA1E482543B3FBF8F92C0C08FB19334C
:100384001FFA8EFA44EA034309FB0AF49C4202FA78
:1003940007F200FA07F10BD91EEB030309F1FF3052
:1003A40080F087809C4240F28480A9F10209734462
:1003B4001B1BADB2B3FBF8F008FB103345EA034452
:1003C40000FB0AFAA24508D91EEB040400F1FF332E
:1003D4006BD2A24569D90238744440EA0940A0FBB3
:1003E4000289A4EB0A044C45C2464B4654D351D06F
:1003F400002E69D0B1EB0A0564EB030404FA0CFC8B
:10040400FD40FC404CEA0505C6E90054002747E7D7
:10041400C2F1200320FA03F7954001FA02F021FA11
:1004240003F34FEA154E3843010CB3FBFEF71FFAF2
:1004340085F80EFB173341EA034107FB08F38B42AF
:1004440004FA02F407D9691807F1FF3C2FD28B4252
:100454002DD9023F2944CB1A81B2B3FBFEF00EFB27
:10046400103341EA034100FB08F38B4207D96918B2
:1004740000F1FF3C17D28B4215D902382944C91A1E
:1004840040EA07473BE73746304609E70746E7E6D1
:100494001846FBE64145ABD2B8EB020A69EB0E0203
:1004A40001381346A4E76046E9E7184695E767462E
:1004B400D1E781467CE702382C4447E7ACF1020CD3
:1004C4002B442FE7384608E73746E9E6704700BF74
:1004D40010B504460E4B18784FF47A73B3FBF0F35F
:1004E4000C4A1068B0FBF3F000F0A0FB68B90F2CC5
:1004F40001D901200AE0002221464FF0FF3000F02C
:1005040053FB034B5C60002000E0012010BD00BFE2
:10051400000000200800002008B50B4B1A6842F4C4
:1005240000721A601A6842F480621A601A6842F40F
:1005340080721A60032000F025FB0020FFF7C8FF3B
:1005440001F084FC002008BD003C0240034A11680D
:10055400034B1B780B441360704700BF2800002036
:1005640000000020014B1868704700BF28000020DD
:1005740038B50446FFF7F6FF0546B4F1FF3F02D055
:10058400044B1B781C44FFF7EDFF401BA042FAD339
:1005940038BD00BF000000204A4B5A6822F44032A4
:1005A4005A605A6841680A435A600268536823F4DF
:1005B4008073536002685368016943EA01235360FE
:1005C4000268536823F0407353600268536881687B
:1005D4000B4353600268936823F4006393600268DA
:1005E4009368C1680B439360826A374B9A424BD03D
:1005F4000268936823F07063936002689368816A69
:100604000B4393600268936823F04053936002683D
:100614009368C16A0B4393600268936823F00203F2
:10062400936002689368017E43EA4103936090F803
:100634002030002B33D10268536823F400635360E5
:100644000268D36A23F47003D3620168CB6AC26977
:10065400013A43EA0253CB620268936823F40073BD
:1006640093600268936890F8301043EA41239360E2
:100674000268936823F48063936002689368416915
:1006840043EA8123936070470268936823F07063A0
:1006940093600268936823F040539360BCE7026858
:1006A400536843F4006353600268536823F460435F
:1006B400536001684B68426A013A43EA42334B6033
:1006C400BEE700BF002301400100000F38B310B59E
:1006D4000446036C43B1236C13F0100F0BD00120BC
:1006E400002384F83C3010BD01F0CCFB002363648C
:1006F40084F83C30EFE7236C23F4885323F002039F
:1007040043F0020323642046FFF746FF00206064A1
:10071400236C23F0030343F001032364E0E7012087
:100724007047000082B00023019390F83C30012B05
:1007340063D0012380F83C3003689A6812F0010FFB
:1007440013D19A6842F001029A60304B1B68304A18
:10075400A2FB03239B0C03EB4303019302E0019BE5
:10076400013B0193019B002BF9D10268936813F0BC
:10077400010F44D0036C23F4E06323F0010343F43A
:1007840080730364536813F4806F05D0036C23F4FF
:10079400405343F480530364036C13F4805F19D013
:1007A400436C23F006034364002380F83C306FF06D
:1007B40022031360174B5B6813F01F0F0DD10368FE
:1007C4009A6812F0405F1DD19A6842F080429A60A4
:1007D400002015E000234364E6E703680E4A9342D1
:1007E40001D000200CE09A6812F0405F0CD19A68A6
:1007F40042F080429A60002002E0022000E00020E3
:1008040002B070470020FBE70020F9E70800002051
:1008140083DE1B43002301400020014030B583B038
:100824000023019390F83C30012B00F081800123D8
:1008340080F83C300468A36813F0010F13D1A36857
:1008440043F00103A3603F4B1C683F4BA3FB0434FC
:10085400A40C04EB4404019402E0019C013C0194C7
:10086400019C002CF9D103689C6814F0010F61D03D
:10087400046C24F4E06424F0010444F480740464FB
:100884005B6813F4806F05D0036C23F4405343F486
:1008940080530364036C13F4805F36D0436C23F0FD
:1008A4000603436413460446002280F83C20826B0E
:1008B4002648D063A26B26481064A26B2548D064F6
:1008C40022686FF0220010602568686840F080603C
:1008D40068602568A86840F48070A86020680A46AB
:1008E40000F14C01A06B00F099FA1B4B5B6813F00C
:1008F4001F0F0DD123689A6812F0405F1DD19A68CA
:1009040042F080429A60002015E000234364C9E766
:100914002368124A934201D000200CE09A6812F036
:10092400405F0CD19A6842F080429A60002002E055
:10093400022000E0002003B030BD0020FBE70020CF
:10094400F9E700BF0800002083DE1B438709000885
:1009540065090008710900080023014000200140D6
:1009640008B5806B01F05CFA08BD704708B5806B70
:1009740040230364436C43F004034364FFF7F5FF2F
:1009840008BD08B5836B1A6C12F0500F26D11A6C8F
:1009940042F400721A641A68916811F0405F19D128
:1009A400197EB9B9D16A11F4700F03D0916811F4AA
:1009B400806F0FD1516821F0200151601A6C22F42C
:1009C40080721A641A6C12F4805F03D11A6C42F0BC
:1009D40001021A64184601F02DFA08BD1A6C12F0CF
:1009E400100F03D19B6BDB6C9847F6E71846FFF7B3
:1009F400BCFFF2E730B482B00023019390F83C309E
:100A0400012B00F0B780012380F83C300B68092BE0
:100A14003ED90568EA689BB203EB43031E3B0724F7
:100A240004FA03F322EA0303EB600568EA688C68BE
:100A34000B8803EB43031E3B04FA03F31343EB60FD
:100A44004B68062B3AD805686A6B03EB8303053BB6
:100A54001F2404FA03F322EA03036B6305686A6B39
:100A64004B6803EB8303053B0C8804FA03F313433D
:100A74006B630268404B9A4250D002683E4B9A42E4
:100A840055D0002380F83C30184602B030BC704783
:100A940005682A699BB203EB4303072404FA03F3B2
:100AA40022EA03032B6105682A698C680B8803EB2F
:100AB400430304FA03F313432B61C1E70C2B16D849
:100AC40005682A6B03EB8303233B1F2404FA03F317
:100AD40022EA03032B6305682A6B4B6803EB830349
:100AE400233B0C8804FA03F313432B63C1E7056823
:100AF400EA6A03EB8303413B1F2404FA03F322EA6B
:100B04000303EB620568EA6A4B6803EB8303413B2A
:100B14000C8804FA03F31343EB62AAE70B68122B65
:100B2400ABD1164A536843F480035360A5E70B68BE
:100B3400103B012BA5D8114A536843F400035360BA
:100B44000B68102B9DD10E4B1B6802F1467202F507
:100B54002E3202F28332A2FB03239B0C03EB8303AA
:100B64005A00019202E0019B013B0193019B002B7F
:100B7400F9D186E7022088E70020014000230140E4
:100B840008000020074AD36823F4E0631B041B0C0D
:100B9400000200F4E060184340F0BF6040F400300D
:100BA400D060704700ED00E030B4174BDB68C3F34E
:100BB4000223C3F10704042C28BF04241D1D062DA1
:100BC40018D9033B4FF0FF3505FA04F421EA040178
:100BD400994005FA03F322EA0303194300280BDBC7
:100BE4000901C9B200F1604000F5614080F80013CA
:100BF40030BC70470023E5E700F00F000901C9B2DB
:100C0400024B1954F4E700BF00ED00E014ED00E0DE
:100C1400002807DB00F01F02400901239340024A29
:100C240042F82030704700BF00E100E00138B0F125
:100C3400807F0AD2064B5860064AF02182F82310BE
:100C44000020986007221A6070470120704700BF97
:100C540010E000E000ED00E030B405682C6824F4F6
:100C640080242C60046863608368402B05D003688B
:100C740099600368DA6030BC704703689A6003685F
:100C8400D960F8E70268D3B2103B0B49A1FB031308
:100C94001B090A49C95CC165032B06D822F47F727B
:100CA40022F003028265806D704722F47F7222F085
:100CB400030204328265F6E7ABAAAAAA042100085B
:100CC400836A826992B9012B0AD01BB1022B01D02D
:100CD40000207047C36A13F0807F2CD10020704736
:100CE400C36AB3F1C07F28D000207047B2F5005F1B
:100CF40005D0022B29D9032B15D000207047032BD4
:100D040003D8DFE803F01C041C0A00207047C36A00
:100D140013F0807F15D100207047C36AB3F1C07F00
:100D240011D000207047C36A13F0807F01D00120E6
:100D34007047002070470120704701207047012050
:100D44007047012070470120704701207047000060
:100D540070B50446FFF706FC002C5BD00546002363
:100D640084F83430022384F835302268136823F081
:100D74000103136023681A6812F0010F0AD0FFF709
:100D8400F1FB401B0528F5D920236365032084F873
:100D9400350070BD1A68204810406168A2680A4393
:100DA400E1680A4321690A4361690A43A1690A4364
:100DB400E1690A43216A0A430243616A04291ED095
:100DC4001A602668756925F00705636A1D43042BBC
:100DD40007D1A36A1D43E36A1BB12046FFF770FFE6
:100DE40090B975612046FFF74DFFE26D3F239340B4
:100DF400836000206065012384F83530C9E7E16A27
:100E0400206B01430A43DBE740236365012084F838
:100E14003500BEE70120BCE73F8010F038B5856D92
:100E240090F83440012C2CD0012480F8344090F800
:100E34003540E4B2012C04D0002380F83430022081
:100E440038BD0446022084F8350000206065204641
:100E5400FFF702FFE26D3F239340AB602268136803
:100E640043F016031360236C23B12268136843F024
:100E7400080313602268136843F001031360002021
:100E8400DEE70220DCE70000F0B583B0044600236F
:100E94000193724B1D68724BA3FB0535AD0A876D38
:100EA4003E68C26D08239340334210D003681A6829
:100EB40012F0040F0BD01A6822F004021A60C26DFB
:100EC40008239340BB60436D43F001034365E26D27
:100ED40001239340334209D02268526912F0800FF3
:100EE40004D0BB60636D43F002036365E26D0423C9
:100EF4009340334209D02268126812F0020F04D0E2
:100F0400BB60636D43F004036365E26D102393409B
:100F1400334224D02268126812F0080F1FD0BB603D
:100F240023681A6812F4802F0DD01B6813F4002F65
:100F340004D1236C9BB12046984710E0A36C73B195
:100F4400204698470BE01A6812F4807F03D11A6890
:100F540022F008021A60236C0BB120469847E26D18
:100F640020239340334255D02268126812F0100FA8
:100F740050D0BB6094F83530DBB2052B0ED023681B
:100F84001A6812F4802F33D01B6813F4002F2AD16F
:100F9400636C002B3ED0204698473BE022681368E0
:100FA40023F0160313602268536923F0800353610E
:100FB400236CA3B12268136823F008031360E26D65
:100FC4003F239340BB60002384F83430012384F82A
:100FD4003530236D002B3FD0204698473CE0A36C6E
:100FE400002BE7D1EBE7E36BA3B12046984711E070
:100FF4001A6812F4807F09D11A6822F010021A606C
:10100400002384F83430012384F83530E36B0BB1CA
:1010140020469847636DFBB1636D13F0010F17D041
:10102400052384F835302268136823F00103136024
:10103400019B01330193AB4204D823681B6813F06E
:10104400010FF5D1002384F83430012384F83530BE
:10105400E36C0BB12046984703B0F0BD08000020B4
:10106400B5814E1B00230F2B00F2C580F0B583B071
:1010740039E0042200E00022AA403A4302345E4DE3
:1010840045F824205D4A1468F24302EA04054F68D7
:1010940017F4803F01D046EA0405584C2560646883
:1010A40002EA04054F6817F4003F01D046EA04053C
:1010B400524C6560A46802EA04054F6817F4801F67
:1010C40001D046EA04054D4CA560E46822404D6811
:1010D40015F4001F01D046EA0402484CE2600133D3
:1010E4000F2B00F2868001229A400C6804EA020663
:1010F400B242F4D14C68651E012D03D9112C01D0E4
:10110400122C12D185685F000324BC4025EA040533
:10111400CC68BC402C438460456825EA02054C68D1
:10112400C4F300129A402A434260C4685F00032259
:10113400BA40D24314408D68BD402543C5604C6815
:10114400022C01D0122C13D1DD08083550F825E00B
:1011540003F007044FEA840C0F2404FA0CF42EEA7B
:10116400040E0C6904FA0CF444EA0E0440F8254019
:10117400046822404C6804F00304BC40224302602B
:101184004A6812F0805FAAD0002201921C4A546C73
:1011940044F480445464526C02F480420192019AF3
:1011A4009C08A51C144A52F8257003F0030295000C
:1011B4000F22AA4027EA0207124A90423FF45BAF8B
:1011C40002F5806290420ED002F5806290420CD00B
:1011D40002F5806290420AD002F5806290423FF4A8
:1011E40048AF072248E7012246E7022244E70322E8
:1011F40042E703B0F0BD704700380140003C0140B5
:10120400003802400000024012B9090481617047AD
:1012140081617047002800F0E48170B582B0044613
:10122400036813F0010F3BD0A74B9B6803F00C033A
:10123400042B2CD0A44B9B6803F00C03082B21D067
:101244006368B3F5803F4FD0B3F5A02F52D09E4BC7
:101254001A6822F480321A601A6822F480221A6012
:101264006368002B50D0FFF77DF90546964B1B6849
:1012740013F4003F14D1FFF775F9401B6428F5D926
:101284000320B3E1904B5B6813F4800FD8D08E4BEE
:101294001B6813F4003F03D06368002B00F0A381A4
:1012A400236813F0020F55D0874B9B6813F00C0F83
:1012B4003ED0854B9B6803F00C03082B33D0E368C6
:1012C400002B68D0814B01221A60FFF74BF90546C9
:1012D4007D4B1B6813F0020F54D1FFF743F9401BF9
:1012E4000228F5D9032081E1774A136843F4803357
:1012F4001360B5E7744B1A6842F480221A601A68C6
:1013040042F480321A60ABE7FFF72CF905466E4BC6
:101314001B6813F4003FC3D0FFF724F9401B642873
:10132400F5D9032062E1684B5B6813F4800FC6D1E2
:10133400654B1B6813F0020F04D0E368012B01D046
:10134400012053E1604A136823F0F803216943EA5A
:10135400C1031360236813F0080F40D0636963B3BB
:101364005B4B01221A60FFF7FDF80546564B5B6F95
:1013740013F0020F33D1FFF7F5F8401B0228F5D91B
:10138400032033E1504A136823F0F803216943EA48
:10139400C1031360DEE74D4B00221A60FFF7E2F849
:1013A4000546494B1B6813F0020FD3D0FFF7DAF858
:1013B400401B0228F5D9032018E1454B00221A608E
:1013C400FFF7D0F80546404B5B6F13F0020F06D0D1
:1013D400FFF7C8F8401B0228F5D9032006E123686B
:1013E40013F0040F79D0384B1B6C13F0805F33D1AA
:1013F40000230193344B1A6C42F080521A641B6C24
:1014040003F080530193019B0125324B1B6813F4B5
:10141400807F23D0A368012B34D0052B38D02A4BEE
:101424001A6F22F001021A671A6F22F004021A6777
:10143400A368002B36D0FFF795F80646224B1B6FA6
:1014440013F0020F48D1FFF78DF8801B41F2883367
:101454009842F3D90320C9E00025D6E71D4A136852
:1014640043F480731360FFF77DF80646194B1B683D
:1014740013F4807FCED1FFF775F8801B0228F5D9CD
:101484000320B3E0104A136F43F001031367CFE75F
:101494000D4B1A6F42F004021A671A6F42F00102F0
:1014A4001A67C5E7FFF75EF80646074B1B6F13F094
:1014B400020F11D0FFF756F8801B41F2883398428F
:1014C400F3D9032092E000BF0038024000004742F5
:1014D400800E474200700040EDB9A369002B00F074
:1014E4008480454A926802F00C02082A51D0022BEB
:1014F40017D0424B00221A60FFF734F804463E4BE3
:101504001B6813F0007F42D0FFF72CF8001B022861
:10151400F5D903206AE0384A136C23F0805313642E
:10152400DBE7364B00221A60FFF71CF80546324B06
:101534001B6813F0007F06D0FFF714F8401B022845
:10154400F5D9032052E0E369226A1343626A43EA4D
:101554008213A26A5208013A43EA0243E26A43EA66
:101564000263254A5360254B01221A60FEF7FAFFF5
:101574000446214B1B6813F0007F06D1FEF7F2FFEF
:10158400001B0228F5D9032030E000202EE00020C3
:101594002CE0012B2CD0184B5B6803F48001E2692A
:1015A400914201D0012021E003F03F02216A8A42E6
:1015B40001D001201AE0616A47F6C0721A408A42DB
:1015C40001D0012012E003F44032A16A8A4201D022
:1015D40001200BE003F07063E26A93420AD0012019
:1015E40004E001207047012000E0002002B070BD3B
:1015F4000120FBE70020F9E7003802406000474281
:10160400264B9B6803F00C03042B44D0082B01D019
:10161400234870472DE9F04B204B5A6802F03F02F3
:101624005B6813F4800F13D01C4B5968C1F3881105
:1016340000231C48A1FB0001FEF7CAFD174B5B68A1
:10164400C3F3014301335B00B0FBF3F0BDE8F08B5F
:10165400124B5B68C3F388131E4600275C01002508
:10166400E41A65EB0705A90141EA9461A001001B96
:1016740061EB0501CB0043EA5073C400A01943EBAE
:1016840007018B0243EA9053840220461946002343
:10169400FEF79EFDD2E70348704700BF00380240C2
:1016A4000024F40040787D01002800F09E8070B58D
:1016B4000446504B1B6803F00F038B4209D2CBB294
:1016C4004C4A1370136803F00F038B4201D00120BE
:1016D40070BD236813F0020F17D013F0040F04D069
:1016E400454A936843F4E0539360236813F0080F6A
:1016F40004D0414A936843F4604393603E4A93683C
:1017040023F0F003A068034393600D46236813F0AD
:10171400010F32D06368012B21D09A1E012A25D9EA
:10172400354A126812F0020F61D033498A6822F0F8
:10173400030213438B60FEF715FF06462E4B9B688E
:1017440003F00C036268B3EB820F16D0FEF70AFFB6
:10175400801B41F288339842F0D90320B8E7264A27
:10176400126812F4003FE0D10120B1E7224A126866
:1017740012F0007FD9D10120AAE71E4B1B6803F0A9
:101784000F03AB4209D9EAB21A4B1A701B6803F073
:101794000F03AB4201D001209AE7236813F0040F32
:1017A40006D0154A936823F4E053E1680B43936031
:1017B400236813F0080F07D00F4A936823F460439B
:1017C400216943EAC1039360FFF71AFF0A4B9B6840
:1017D400C3F30313094AD35CD840094B1860094B7F
:1017E4001868FEF775FE002072E70120704701209B
:1017F4006EE700BF003C0240003802400C210008A4
:101804000800002004000020014B1868704700BF46
:101814000800002008B5FFF7F7FF044B9B68C3F3EB
:101824008223034AD35CD84008BD00BF003802407D
:101834001C21000808B5FFF7E7FF044B9B68C3F3BE
:101844004233034AD35CD84008BD00BF003802408D
:101854001C2100080268D36823F0C003D36020234E
:1018640080F8393070470268D36823F49073D360EA
:101874000268536923F001035361202380F83A304E
:10188400704700002DE9F04B04460268136923F405
:101894004053C1680B43136183680269134342696F
:1018A4001343C2691A430168CB6823F4164323F037
:1018B4000C031343CB600268536923F440738169BA
:1018C4000B435361C369B3F5004F3BD00368714ABE
:1018D400934200F0AB8002F58062934200F0A68050
:1018E400FFF798FF4FF00009061849EB090716EBBC
:1018F400000B47EB090C4FEACC0343EA5B734FEA56
:10190400CB0293469C4663689A009B0F10EB0B0036
:1019140049EB0C01FEF75CFC5F4DA5FB003251095D
:10192400642202FB110213013233A5FB03235B097A
:1019340003F0F00202EB011203F00F0321681344D9
:101944008B60A4E00368534A934239D002F5806265
:10195400934235D0FFF75EFF83464FF0000C061824
:101964004CEB0C0716EB000847EB0C094FEAC903D4
:1019740043EA58734FEAC8029046994662680021C8
:10198400921841EB01031BEB08004CEB0901FEF735
:101994001FFC414DA5FB00325109642202FB1102D8
:1019A400D3003233A5FB03235B095A0002F4F87217
:1019B40002EB011203F00703216813448B6066E015
:1019C400FFF738FF80464FF00009061849EB090776
:1019D40016EB000B47EB090C4FEACC0343EA5B73AD
:1019E4004FEACB0293469C4662680021921841EB71
:1019F400010318EB0B0049EB0C01FEF7E9FB264D44
:101A0400A5FB00325109642202FB1102D3003233D8
:101A1400A5FB03235B095A0002F4F87202EB0112DE
:101A240003F00703216813448B6030E0FFF702FFE3
:101A34004FF00009061849EB090716EB000B47EBBA
:101A4400090C4FEACC0343EA5B734FEACB0293469B
:101A54009C4663689A009B0F10EB0B0049EB0C014A
:101A6400FEF7B6FB0C4DA5FB00325109642202FBC4
:101A7400110213013233A5FB03235B0903F0F002C7
:101A840002EB011203F00F03216813448B60BDE8DD
:101A9400F08B00BF001001401F85EB5158B310B507
:101AA400044690F839300BB3242384F83930226883
:101AB400D36823F40053D3602046FFF7E3FE226883
:101AC400136923F4904313612268536923F02A03B2
:101AD40053612268D36843F40053D3600020E06369
:101AE400202384F8393084F83A3010BD80F8383037
:101AF40000F01EFAD8E701207047000038B590F8CE
:101B04003940E4B2202C31D1002931D0002A31D01F
:101B140090F83830012B2FD013460446012280F868
:101B2400382001628384C3840025C563212280F8A0
:101B34003920026B1148D063226B11481064226B68
:101B44001048D064226B156522680432206BFFF7BD
:101B540065F923686FF040021A6084F838502268EF
:101B6400536943F080035361284600E0022038BDE6
:101B74000120FCE70120FAE70220F8E78F1B0008A8
:101B8400C11B0008CD1B0008704708B5836B0268B1
:101B9400126812F4807F0CD10022DA8419684A6931
:101BA40022F080024A611A68D36843F04003D3608C
:101BB40008BD1846FFF7E8FFFAE7704708B5806BE1
:101BC400FFF7FBFF08BD704710B5846B23685A69A3
:101BD40094F83930DBB2212B10D023685A6902F013
:101BE400400294F83A30DBB2222B11D0E36B43F07D
:101BF4001003E3632046FFF7E6FF10BD02F0800206
:101C0400002AEAD00023E3842046FFF723FEE4E71A
:101C1400002AEBD00023E3852046FFF724FEE5E706
:101C240030B587B00024019402940394049405947D
:101C340000940E4B1A6B42F001021A631B6B03F003
:101C440001030093009B0A4D224620212846FFF7FA
:101C5400DBFA20230193012302930394049401A942
:101C64002846FFF7FFF907B030BD00BF0038024037
:101C74000000024010B582B000240094124B1A6B8D
:101C840042F480021A631A6B02F480020092009AF2
:101C940001941A6B42F400121A631B6B03F40013D1
:101CA4000193019B224621461120FEF77DFF11205E
:101CB400FEF7AEFF224621463820FEF775FF382096
:101CC400FEF7A6FF02B010BD0038024030B585B063
:101CD40000230093019302930393104C104A226053
:101CE4004FF440326260A3602361237684F820308D
:101CF400E3620C4AA262E3600125E56184F8305096
:101D040065612046FEF7E2FC0095019504230293E9
:101D140069462046FEF76EFE05B030BD2C0000205B
:101D2400002001400100000F08B50848084B03607B
:101D34004FF4E133436000238360C36003610C22EA
:101D440042618361C361FFF7A9FE08BD4801002019
:101D54000044004010B594B03022002108A800F0DF
:101D6400BBF9002403940494059406940794019405
:101D7400164B1A6C42F080521A641B6C03F08053A9
:101D84000193019B0294124A136823F4404343F4E1
:101D940000431360136803F440430293029B02233D
:101DA400089301230B9310230C930E9408A8FFF7B8
:101DB40031FA0F230393049405940694079421465F
:101DC40003A8FFF771FC14B010BD00BF0038024037
:101DD4000070004008B5FEF79FFBFFF7BBFFFFF75D
:101DE4001FFFFFF747FFFFF771FFFFF79DFF094C48
:101DF4000A2221460848FEF711FD0A222146074817
:101E0400FFF77CFE6420FEF7B3FB0348FEF78AFC71
:101E1400F8E700BFD40000202C0000204801002077
:101E240008B5012220210248FFF7EEF908BD00BFE2
:101E34000000024008B5002220210248FFF7E4F91F
:101E440008BD00BF000002407047000082B00021BE
:101E540000910B4B5A6C42F480425A645A6C02F45F
:101E640080420092009A01911A6C42F080521A64E6
:101E74001B6C03F080530193019B02B0704700BFB9
:101E84000038024030B589B00023039304930593CE
:101E940006930793026803F1804303F590339A4253
:101EA40001D009B030BD04460025019503F58C33FB
:101EB4005A6C42F480725A645A6C02F48072019231
:101EC400019A02951A6B42F001021A631B6B03F02C
:101ED40001030293029B022303930323049303A9A4
:101EE4001048FFF7BFF81048104B03604560856049
:101EF400C5604FF4806303614FF4006343614FF4A2
:101F0400005383614FF48073C36105624562FEF739
:101F14001FFF18B9044BA3639C63C2E7FFF794FF48
:101F2400F8E700BF00000240E8000020106402400F
:101F340030B589B000230393049305930693079364
:101F44000268254B9A4201D009B030BD04460025F1
:101F5400019503F5FA331A6C42F400321A641A6CD0
:101F640002F400320192019A02951A6B42F00102C6
:101F74001A631B6B03F001030293029B0C2303936C
:101F840002230493032306930723079303A9134807
:101F9400FFF768F81248134B03604FF00063436087
:101FA40040238360C5604FF4806303614FF4006392
:101FB40043614FF4005383614FF48073C36105623E
:101FC4004562FEF7C5FE18B9054B23639C63BBE766
:101FD400FFF73AFFF8E700BF00440040000002406A
:101FE40074000020A06002407047FEE7FEE7FEE7B1
:101FF400FEE770477047704708B5FEF7A7FA08BDBB
:1020040008B50248FEF740FF08BD00BF7400002079
:1020140008B50248FEF738FF08BD00BFE8000020FD
:10202400054BD3F8882042F47002C3F888204FF09F
:1020340000629A60704700BF00ED00E0DFF834D022
:10204400002103E00C4B5B58435004310B480C4B0C
:1020540042189A42F6D30B4A02E0002342F8043BAA
:10206400094B9A42F9D3FFF7DBFF00F011F8FFF7B1
:10207400B1FE7047008001203421000800000020D8
:102084000C0000200C00002088010020FEE7000066
:1020940070B50D4E0D4CA41BA4100025A54209D10A
:1020A4000B4E0C4C00F020F8A41BA4100025A542F4
:1020B40005D170BD56F8253098470135EEE756F83E
:1020C400253098470135F2E72C2100082C2100081F
:1020D4002C2100083021000802440346934200D119
:1020E400704703F8011BF9E7F8B500BFF8BC08BC5A
:1020F4009E467047F8B500BFF8BC08BC9E467047C2
:102104000006101600061016000000000000000073
:102114000102030406070809000000000102030489
:08212400E0E0FF7F0100000074
:04212C00B9010008ED
:04213000950100080D
:0C21340001000000100000000024F40076
:04000005080020418E
:00000001FF
